8=FIX.4.4|9=75|35=A|34=1|49=BVMF2|52=20130426-18:29:09.333|56=EXECUTOR3|98=0|108=30|141=Y|10=054|8=FIX.4.4|9=57|35=0|34=2|49=BVMF2|52=20130426-18:29:39.591|56=EXECUTOR3|10=233|8=FIX.4.4|9=57|35=0|34=3|49=BVMF2|52=20130426-18:30:09.591|56=EXECUTOR3|10=223|8=FIX.4.4|9=57|35=0|34=4|49=BVMF2|52=20130426-18:30:39.593|56=EXECUTOR3|10=229|8=FIX.4.4|9=57|35=0|34=5|49=BVMF2|52=20130426-18:31:09.595|56=EXECUTOR3|10=230|