8=FIX.4.2|9=72|35=A|34=1|49=BOV|52=20130426-18:29:09.341|56=EXECUTOR|98=0|108=30|141=Y|10=135|8=FIX.4.2|9=221|35=8|34=2|49=BOV|52=20130426-18:29:27.500|56=EXECUTOR|6=0|11=fa002e67-aacb-45fc-b542-d8c3c6750b15|14=0|17=7c30c8ee-9552-42ee-b0d4-759914018186|20=0|37=fa002e67-aacb-45fc-b542-d8c3c6750b15|39=0|54=2|55=INDM13|150=0|151=10|10=000|8=FIX.4.2|9=221|35=8|34=3|49=BOV|52=20130426-18:29:27.505|56=EXECUTOR|6=0|11=e240f32d-f7e2-44e6-a418-924bb5131cd4|14=0|17=4baf59af-6f12-40ac-be2b-ddddcf380c11|20=0|37=e240f32d-f7e2-44e6-a418-924bb5131cd4|39=0|54=1|55=INDM13|150=0|151=10|10=180|8=FIX.4.2|9=236|35=8|34=4|49=BOV|52=20130426-18:29:27.543|56=EXECUTOR|6=0|11=e240f32d-f7e2-44e6-a418-924bb5131cd4|14=10|17=3d23c99d-4ef1-491f-9954-ff1aad8632fa|20=0|31=54440|32=10|37=e240f32d-f7e2-44e6-a418-924bb5131cd4|39=2|54=1|55=INDM13|150=2|151=0|10=156|8=FIX.4.2|9=54|35=0|34=5|49=BOV|52=20130426-18:29:57.591|56=EXECUTOR|10=062|8=FIX.4.2|9=54|35=0|34=6|49=BOV|52=20130426-18:30:27.592|56=EXECUTOR|10=053|8=FIX.4.2|9=54|35=0|34=7|49=BOV|52=20130426-18:30:57.594|56=EXECUTOR|10=059|8=FIX.4.2|9=54|35=0|34=8|49=BOV|52=20130426-18:31:27.596|56=EXECUTOR|10=060|