8=FIX.4.4|9=90|35=A|34=1|49=EXECUTOR3|52=20130404-14:03:20.020|56=BVMF2|95=6|96=PMANQE|98=0|108=30|141=Y|10=102|
8=FIX.4.4|9=75|35=A|34=1|49=BVMF2|52=20130404-14:03:20.050|56=EXECUTOR3|98=0|108=30|141=Y|10=027|
8=FIX.4.4|9=57|35=0|34=2|49=BVMF2|52=20130404-14:03:50.236|56=EXECUTOR3|10=206|
8=FIX.4.4|9=57|35=0|34=2|49=EXECUTOR3|52=20130404-14:03:50.241|56=BVMF2|10=202|
8=FIX.4.4|9=57|35=0|34=3|49=EXECUTOR3|52=20130404-14:04:20.990|56=BVMF2|10=212|
8=FIX.4.4|9=57|35=0|34=3|49=BVMF2|52=20130404-14:04:20.994|56=EXECUTOR3|10=216|
8=FIX.4.4|9=57|35=0|34=4|49=BVMF2|52=20130404-14:04:51.231|56=EXECUTOR3|10=205|
8=FIX.4.4|9=57|35=0|34=4|49=EXECUTOR3|52=20130404-14:04:51.235|56=BVMF2|10=209|
8=FIX.4.4|9=57|35=0|34=5|49=EXECUTOR3|52=20130404-14:05:21.987|56=BVMF2|10=222|
8=FIX.4.4|9=57|35=0|34=5|49=BVMF2|52=20130404-14:05:21.990|56=EXECUTOR3|10=216|
8=FIX.4.4|9=57|35=0|34=6|49=BVMF2|52=20130404-14:05:52.229|56=EXECUTOR3|10=216|
8=FIX.4.4|9=57|35=0|34=6|49=EXECUTOR3|52=20130404-14:05:52.232|56=BVMF2|10=210|
8=FIX.4.4|9=57|35=0|34=7|49=EXECUTOR3|52=20130404-14:06:22.984|56=BVMF2|10=223|
8=FIX.4.4|9=57|35=0|34=7|49=BVMF2|52=20130404-14:06:22.987|56=EXECUTOR3|10=226|
8=FIX.4.4|9=57|35=0|34=8|49=BVMF2|52=20130404-14:06:53.226|56=EXECUTOR3|10=217|
8=FIX.4.4|9=57|35=0|34=8|49=EXECUTOR3|52=20130404-14:06:53.228|56=BVMF2|10=219|
8=FIX.4.4|9=57|35=0|34=9|49=EXECUTOR3|52=20130404-14:07:23.982|56=BVMF2|10=225|
8=FIX.4.4|9=57|35=0|34=9|49=BVMF2|52=20130404-14:07:23.985|56=EXECUTOR3|10=228|
8=FIX.4.4|9=58|35=0|34=10|49=BVMF2|52=20130404-14:07:54.224|56=EXECUTOR3|10=003|
8=FIX.4.4|9=58|35=0|34=10|49=EXECUTOR3|52=20130404-14:07:54.226|56=BVMF2|10=005|
8=FIX.4.4|9=58|35=0|34=11|49=EXECUTOR3|52=20130404-14:08:24.979|56=BVMF2|10=019|
8=FIX.4.4|9=58|35=0|34=11|49=BVMF2|52=20130404-14:08:24.982|56=EXECUTOR3|10=013|
8=FIX.4.4|9=58|35=0|34=12|49=BVMF2|52=20130404-14:08:55.221|56=EXECUTOR3|10=004|
8=FIX.4.4|9=58|35=0|34=12|49=EXECUTOR3|52=20130404-14:08:55.224|56=BVMF2|10=007|
8=FIX.4.4|9=58|35=0|34=13|49=EXECUTOR3|52=20130404-14:09:25.977|56=BVMF2|10=021|
8=FIX.4.4|9=58|35=0|34=13|49=BVMF2|52=20130404-14:09:25.980|56=EXECUTOR3|10=015|
8=FIX.4.4|9=58|35=0|34=14|49=BVMF2|52=20130404-14:09:56.219|56=EXECUTOR3|10=015|
8=FIX.4.4|9=58|35=0|34=14|49=EXECUTOR3|52=20130404-14:09:56.222|56=BVMF2|10=009|
8=FIX.4.4|9=90|35=A|34=1|49=EXECUTOR3|52=20130404-14:10:44.292|56=BVMF2|95=6|96=PMANQE|98=0|108=30|141=Y|10=117|
8=FIX.4.4|9=75|35=A|34=1|49=BVMF2|52=20130404-14:10:44.319|56=EXECUTOR3|98=0|108=30|141=Y|10=039|
8=FIX.4.4|9=57|35=0|34=2|49=BVMF2|52=20130404-14:11:14.859|56=EXECUTOR3|10=216|
8=FIX.4.4|9=57|35=0|34=2|49=EXECUTOR3|52=20130404-14:11:14.860|56=BVMF2|10=208|
8=FIX.4.4|9=57|35=0|34=3|49=EXECUTOR3|52=20130404-14:11:45.263|56=BVMF2|10=210|
8=FIX.4.4|9=57|35=0|34=3|49=BVMF2|52=20130404-14:11:45.267|56=EXECUTOR3|10=214|
8=FIX.4.4|9=57|35=0|34=4|49=BVMF2|52=20130404-14:12:15.854|56=EXECUTOR3|10=215|
8=FIX.4.4|9=57|35=0|34=4|49=EXECUTOR3|52=20130404-14:12:15.858|56=BVMF2|10=219|
8=FIX.4.4|9=57|35=0|34=5|49=EXECUTOR3|52=20130404-14:12:46.260|56=BVMF2|10=211|
8=FIX.4.4|9=57|35=0|34=5|49=BVMF2|52=20130404-14:12:46.264|56=EXECUTOR3|10=215|
8=FIX.4.4|9=57|35=0|34=6|49=BVMF2|52=20130404-14:13:16.851|56=EXECUTOR3|10=216|
8=FIX.4.4|9=57|35=0|34=6|49=EXECUTOR3|52=20130404-14:13:16.854|56=BVMF2|10=219|
8=FIX.4.4|9=57|35=0|34=7|49=EXECUTOR3|52=20130404-14:13:47.258|56=BVMF2|10=222|
8=FIX.4.4|9=57|35=0|34=7|49=BVMF2|52=20130404-14:13:47.261|56=EXECUTOR3|10=216|
8=FIX.4.4|9=57|35=0|34=8|49=BVMF2|52=20130404-14:14:17.849|56=EXECUTOR3|10=227|
8=FIX.4.4|9=57|35=0|34=8|49=EXECUTOR3|52=20130404-14:14:17.852|56=BVMF2|10=221|
8=FIX.4.4|9=90|35=A|34=1|49=EXECUTOR3|52=20130404-14:15:06.170|56=BVMF2|95=6|96=PMANQE|98=0|108=30|141=Y|10=115|
8=FIX.4.4|9=75|35=A|34=1|49=BVMF2|52=20130404-14:15:06.205|56=EXECUTOR3|98=0|108=30|141=Y|10=036|
8=FIX.4.4|9=57|35=0|34=2|49=BVMF2|52=20130404-14:15:36.936|56=EXECUTOR3|10=220|
8=FIX.4.4|9=57|35=0|34=2|49=EXECUTOR3|52=20130404-14:15:36.940|56=BVMF2|10=215|
8=FIX.4.4|9=57|35=0|34=3|49=EXECUTOR3|52=20130404-14:16:07.139|56=BVMF2|10=215|
8=FIX.4.4|9=57|35=0|34=3|49=BVMF2|52=20130404-14:16:07.143|56=EXECUTOR3|10=210|
8=FIX.4.4|9=57|35=0|34=4|49=BVMF2|52=20130404-14:16:37.933|56=EXECUTOR3|10=221|
8=FIX.4.4|9=57|35=0|34=4|49=EXECUTOR3|52=20130404-14:16:37.937|56=BVMF2|10=225|
8=FIX.4.4|9=57|35=0|34=5|49=EXECUTOR3|52=20130404-14:17:08.137|56=BVMF2|10=217|
8=FIX.4.4|9=57|35=0|34=5|49=BVMF2|52=20130404-14:17:08.141|56=EXECUTOR3|10=212|
8=FIX.4.4|9=57|35=0|34=6|49=BVMF2|52=20130404-14:17:38.930|56=EXECUTOR3|10=222|
8=FIX.4.4|9=57|35=0|34=6|49=EXECUTOR3|52=20130404-14:17:38.934|56=BVMF2|10=226|
8=FIX.4.4|9=57|35=0|34=7|49=EXECUTOR3|52=20130404-14:18:09.134|56=BVMF2|10=218|
8=FIX.4.4|9=57|35=0|34=7|49=BVMF2|52=20130404-14:18:09.138|56=EXECUTOR3|10=222|
8=FIX.4.4|9=57|35=0|34=8|49=BVMF2|52=20130404-14:18:39.928|56=EXECUTOR3|10=233|
8=FIX.4.4|9=57|35=0|34=8|49=EXECUTOR3|52=20130404-14:18:39.932|56=BVMF2|10=228|
8=FIX.4.4|9=57|35=0|34=9|49=EXECUTOR3|52=20130404-14:19:10.132|56=BVMF2|10=211|
8=FIX.4.4|9=57|35=0|34=9|49=BVMF2|52=20130404-14:19:10.136|56=EXECUTOR3|10=215|
8=FIX.4.4|9=58|35=0|34=10|49=BVMF2|52=20130404-14:19:40.921|56=EXECUTOR3|10=005|
8=FIX.4.4|9=58|35=0|34=10|49=EXECUTOR3|52=20130404-14:19:40.923|56=BVMF2|10=007|
8=FIX.4.4|9=58|35=0|34=11|49=EXECUTOR3|52=20130404-14:20:11.129|56=BVMF2|10=252|
8=FIX.4.4|9=58|35=0|34=11|49=BVMF2|52=20130404-14:20:11.133|56=EXECUTOR3|10=247|
8=FIX.4.4|9=58|35=0|34=12|49=BVMF2|52=20130404-14:20:41.919|56=EXECUTOR3|10=007|
8=FIX.4.4|9=58|35=0|34=12|49=EXECUTOR3|52=20130404-14:20:41.923|56=BVMF2|10=002|
8=FIX.4.4|9=58|35=0|34=13|49=EXECUTOR3|52=20130404-14:21:12.127|56=BVMF2|10=254|
8=FIX.4.4|9=58|35=0|34=13|49=BVMF2|52=20130404-14:21:12.133|56=EXECUTOR3|10=251|
8=FIX.4.4|9=58|35=0|34=14|49=BVMF2|52=20130404-14:21:42.916|56=EXECUTOR3|10=008|
8=FIX.4.4|9=58|35=0|34=14|49=EXECUTOR3|52=20130404-14:21:42.918|56=BVMF2|10=010|
8=FIX.4.4|9=90|35=A|34=1|49=EXECUTOR3|52=20130404-14:22:41.436|56=BVMF2|95=6|96=PMANQE|98=0|108=30|141=Y|10=117|
8=FIX.4.4|9=75|35=A|34=1|49=BVMF2|52=20130404-14:22:41.473|56=EXECUTOR3|98=0|108=30|141=Y|10=040|
8=FIX.4.4|9=57|35=0|34=2|49=BVMF2|52=20130404-14:23:11.800|56=EXECUTOR3|10=202|
8=FIX.4.4|9=57|35=0|34=2|49=EXECUTOR3|52=20130404-14:23:11.804|56=BVMF2|10=206|
8=FIX.4.4|9=57|35=0|34=3|49=EXECUTOR3|52=20130404-14:23:42.406|56=BVMF2|10=209|
8=FIX.4.4|9=57|35=0|34=3|49=BVMF2|52=20130404-14:23:42.410|56=EXECUTOR3|10=204|
8=FIX.4.4|9=57|35=0|34=4|49=BVMF2|52=20130404-14:24:12.794|56=EXECUTOR3|10=218|
8=FIX.4.4|9=57|35=0|34=4|49=EXECUTOR3|52=20130404-14:24:12.796|56=BVMF2|10=220|
8=FIX.4.4|9=57|35=0|34=5|49=EXECUTOR3|52=20130404-14:24:43.404|56=BVMF2|10=211|
8=FIX.4.4|9=57|35=0|34=5|49=BVMF2|52=20130404-14:24:43.408|56=EXECUTOR3|10=215|
8=FIX.4.4|9=57|35=0|34=6|49=BVMF2|52=20130404-14:25:13.794|56=EXECUTOR3|10=222|
8=FIX.4.4|9=57|35=0|34=6|49=EXECUTOR3|52=20130404-14:25:13.798|56=BVMF2|10=226|
8=FIX.4.4|9=57|35=0|34=7|49=EXECUTOR3|52=20130404-14:25:44.401|56=BVMF2|10=212|
8=FIX.4.4|9=57|35=0|34=7|49=BVMF2|52=20130404-14:25:44.405|56=EXECUTOR3|10=216|
8=FIX.4.4|9=57|35=0|34=8|49=BVMF2|52=20130404-14:26:14.791|56=EXECUTOR3|10=223|
8=FIX.4.4|9=57|35=0|34=8|49=EXECUTOR3|52=20130404-14:26:14.794|56=BVMF2|10=226|
8=FIX.4.4|9=57|35=0|34=9|49=EXECUTOR3|52=20130404-14:26:45.399|56=BVMF2|10=232|
8=FIX.4.4|9=57|35=0|34=9|49=BVMF2|52=20130404-14:26:45.403|56=EXECUTOR3|10=218|
8=FIX.4.4|9=58|35=0|34=10|49=BVMF2|52=20130404-14:27:15.789|56=EXECUTOR3|10=018|
8=FIX.4.4|9=58|35=0|34=10|49=EXECUTOR3|52=20130404-14:27:15.792|56=BVMF2|10=012|
8=FIX.4.4|9=58|35=0|34=11|49=EXECUTOR3|52=20130404-14:27:46.396|56=BVMF2|10=017|
8=FIX.4.4|9=58|35=0|34=11|49=BVMF2|52=20130404-14:27:46.400|56=EXECUTOR3|10=003|
8=FIX.4.4|9=58|35=0|34=12|49=BVMF2|52=20130404-14:28:16.785|56=EXECUTOR3|10=018|
8=FIX.4.4|9=58|35=0|34=12|49=EXECUTOR3|52=20130404-14:28:16.788|56=BVMF2|10=021|
8=FIX.4.4|9=58|35=0|34=13|49=EXECUTOR3|52=20130404-14:28:47.394|56=BVMF2|10=019|
8=FIX.4.4|9=58|35=0|34=13|49=BVMF2|52=20130404-14:28:47.398|56=EXECUTOR3|10=023|
8=FIX.4.4|9=58|35=0|34=14|49=BVMF2|52=20130404-14:29:17.783|56=EXECUTOR3|10=020|
8=FIX.4.4|9=58|35=0|34=14|49=EXECUTOR3|52=20130404-14:29:17.787|56=BVMF2|10=024|
8=FIX.4.4|9=58|35=0|34=15|49=EXECUTOR3|52=20130404-14:29:48.391|56=BVMF2|10=020|
8=FIX.4.4|9=58|35=0|34=15|49=BVMF2|52=20130404-14:29:48.393|56=EXECUTOR3|10=022|
8=FIX.4.4|9=58|35=0|34=16|49=BVMF2|52=20130404-14:30:18.780|56=EXECUTOR3|10=012|
8=FIX.4.4|9=58|35=0|34=16|49=EXECUTOR3|52=20130404-14:30:18.783|56=BVMF2|10=015|
8=FIX.4.4|9=58|35=0|34=17|49=EXECUTOR3|52=20130404-14:30:49.389|56=BVMF2|10=022|
8=FIX.4.4|9=58|35=0|34=17|49=BVMF2|52=20130404-14:30:49.393|56=EXECUTOR3|10=017|
8=FIX.4.4|9=58|35=0|34=18|49=BVMF2|52=20130404-14:31:19.778|56=EXECUTOR3|10=023|
8=FIX.4.4|9=58|35=0|34=18|49=EXECUTOR3|52=20130404-14:31:19.781|56=BVMF2|10=017|
8=FIX.4.4|9=58|35=0|34=19|49=EXECUTOR3|52=20130404-14:31:50.386|56=BVMF2|10=014|
8=FIX.4.4|9=58|35=0|34=19|49=BVMF2|52=20130404-14:31:50.390|56=EXECUTOR3|10=009|
8=FIX.4.4|9=58|35=0|34=20|49=BVMF2|52=20130404-14:32:20.775|56=EXECUTOR3|10=006|
8=FIX.4.4|9=58|35=0|34=20|49=EXECUTOR3|52=20130404-14:32:20.779|56=BVMF2|10=010|
8=FIX.4.4|9=58|35=0|34=21|49=EXECUTOR3|52=20130404-14:32:51.384|56=BVMF2|10=007|
8=FIX.4.4|9=58|35=0|34=21|49=BVMF2|52=20130404-14:32:51.388|56=EXECUTOR3|10=011|
8=FIX.4.4|9=58|35=0|34=22|49=BVMF2|52=20130404-14:33:21.773|56=EXECUTOR3|10=008|
8=FIX.4.4|9=58|35=0|34=22|49=EXECUTOR3|52=20130404-14:33:21.776|56=BVMF2|10=011|
8=FIX.4.4|9=58|35=0|34=23|49=EXECUTOR3|52=20130404-14:33:52.381|56=BVMF2|10=008|
8=FIX.4.4|9=58|35=0|34=23|49=BVMF2|52=20130404-14:33:52.385|56=EXECUTOR3|10=012|
8=FIX.4.4|9=58|35=0|34=24|49=BVMF2|52=20130404-14:34:22.770|56=EXECUTOR3|10=009|
8=FIX.4.4|9=58|35=0|34=24|49=EXECUTOR3|52=20130404-14:34:22.773|56=BVMF2|10=012|
8=FIX.4.4|9=58|35=0|34=25|49=EXECUTOR3|52=20130404-14:34:53.379|56=BVMF2|10=019|
8=FIX.4.4|9=58|35=0|34=25|49=BVMF2|52=20130404-14:34:53.383|56=EXECUTOR3|10=014|
8=FIX.4.4|9=58|35=0|34=26|49=BVMF2|52=20130404-14:35:23.768|56=EXECUTOR3|10=020|
8=FIX.4.4|9=58|35=0|34=26|49=EXECUTOR3|52=20130404-14:35:23.771|56=BVMF2|10=014|
8=FIX.4.4|9=58|35=0|34=27|49=EXECUTOR3|52=20130404-14:35:54.376|56=BVMF2|10=020|
8=FIX.4.4|9=58|35=0|34=27|49=BVMF2|52=20130404-14:35:54.380|56=EXECUTOR3|10=015|
8=FIX.4.4|9=58|35=0|34=28|49=BVMF2|52=20130404-14:36:24.765|56=EXECUTOR3|10=021|
8=FIX.4.4|9=58|35=0|34=28|49=EXECUTOR3|52=20130404-14:36:24.768|56=BVMF2|10=024|
8=FIX.4.4|9=58|35=0|34=29|49=EXECUTOR3|52=20130404-14:36:55.374|56=BVMF2|10=022|
8=FIX.4.4|9=58|35=0|34=29|49=BVMF2|52=20130404-14:36:55.378|56=EXECUTOR3|10=026|
8=FIX.4.4|9=58|35=0|34=30|49=BVMF2|52=20130404-14:37:25.761|56=EXECUTOR3|10=012|
8=FIX.4.4|9=58|35=0|34=30|49=EXECUTOR3|52=20130404-14:37:25.762|56=BVMF2|10=013|
8=FIX.4.4|9=58|35=0|34=31|49=EXECUTOR3|52=20130404-14:37:56.371|56=BVMF2|10=014|
8=FIX.4.4|9=58|35=0|34=31|49=BVMF2|52=20130404-14:37:56.375|56=EXECUTOR3|10=018|
8=FIX.4.4|9=58|35=0|34=32|49=BVMF2|52=20130404-14:38:26.760|56=EXECUTOR3|10=015|
8=FIX.4.4|9=58|35=0|34=32|49=EXECUTOR3|52=20130404-14:38:26.763|56=BVMF2|10=018|
8=FIX.4.4|9=58|35=0|34=33|49=EXECUTOR3|52=20130404-14:38:57.369|56=BVMF2|10=025|
8=FIX.4.4|9=58|35=0|34=33|49=BVMF2|52=20130404-14:38:57.372|56=EXECUTOR3|10=019|
8=FIX.4.4|9=58|35=0|34=34|49=BVMF2|52=20130404-14:39:27.758|56=EXECUTOR3|10=026|
8=FIX.4.4|9=58|35=0|34=34|49=EXECUTOR3|52=20130404-14:39:27.761|56=BVMF2|10=020|
8=FIX.4.4|9=58|35=0|34=35|49=EXECUTOR3|52=20130404-14:39:58.366|56=BVMF2|10=026|
8=FIX.4.4|9=58|35=0|34=35|49=BVMF2|52=20130404-14:39:58.368|56=EXECUTOR3|10=028|
8=FIX.4.4|9=58|35=0|34=36|49=BVMF2|52=20130404-14:40:28.754|56=EXECUTOR3|10=017|
8=FIX.4.4|9=58|35=0|34=36|49=EXECUTOR3|52=20130404-14:40:28.756|56=BVMF2|10=019|
8=FIX.4.4|9=58|35=0|34=37|49=EXECUTOR3|52=20130404-14:40:59.364|56=BVMF2|10=019|
8=FIX.4.4|9=58|35=0|34=37|49=BVMF2|52=20130404-14:40:59.366|56=EXECUTOR3|10=021|
8=FIX.4.4|9=58|35=0|34=38|49=BVMF2|52=20130404-14:41:29.753|56=EXECUTOR3|10=020|
8=FIX.4.4|9=58|35=0|34=38|49=EXECUTOR3|52=20130404-14:41:29.756|56=BVMF2|10=023|
8=FIX.4.4|9=58|35=0|34=39|49=EXECUTOR3|52=20130404-14:42:00.361|56=BVMF2|10=006|
8=FIX.4.4|9=58|35=0|34=39|49=BVMF2|52=20130404-14:42:00.365|56=EXECUTOR3|10=010|
8=FIX.4.4|9=58|35=0|34=40|49=BVMF2|52=20130404-14:42:30.750|56=EXECUTOR3|10=003|
8=FIX.4.4|9=58|35=0|34=40|49=EXECUTOR3|52=20130404-14:42:30.753|56=BVMF2|10=006|
8=FIX.4.4|9=58|35=0|34=41|49=EXECUTOR3|52=20130404-14:43:01.359|56=BVMF2|10=008|
8=FIX.4.4|9=58|35=0|34=41|49=BVMF2|52=20130404-14:43:01.362|56=EXECUTOR3|10=002|
8=FIX.4.4|9=58|35=0|34=42|49=BVMF2|52=20130404-14:43:31.746|56=EXECUTOR3|10=012|
8=FIX.4.4|9=58|35=0|34=42|49=EXECUTOR3|52=20130404-14:43:31.748|56=BVMF2|10=014|
8=FIX.4.4|9=58|35=0|34=43|49=EXECUTOR3|52=20130404-14:44:02.356|56=BVMF2|10=009|
8=FIX.4.4|9=58|35=0|34=43|49=BVMF2|52=20130404-14:44:02.360|56=EXECUTOR3|10=004|
8=FIX.4.4|9=58|35=0|34=44|49=BVMF2|52=20130404-14:44:32.744|56=EXECUTOR3|10=014|
8=FIX.4.4|9=58|35=0|34=44|49=EXECUTOR3|52=20130404-14:44:32.749|56=BVMF2|10=019|
8=FIX.4.4|9=58|35=0|34=45|49=EXECUTOR3|52=20130404-14:45:03.354|56=BVMF2|10=011|
8=FIX.4.4|9=58|35=0|34=45|49=BVMF2|52=20130404-14:45:03.357|56=EXECUTOR3|10=014|
8=FIX.4.4|9=58|35=0|34=46|49=BVMF2|52=20130404-14:45:33.741|56=EXECUTOR3|10=015|
8=FIX.4.4|9=58|35=0|34=46|49=EXECUTOR3|52=20130404-14:45:33.743|56=BVMF2|10=017|
8=FIX.4.4|9=58|35=0|34=47|49=EXECUTOR3|52=20130404-14:46:04.351|56=BVMF2|10=012|
8=FIX.4.4|9=58|35=0|34=47|49=BVMF2|52=20130404-14:46:04.355|56=EXECUTOR3|10=016|
8=FIX.4.4|9=58|35=0|34=48|49=BVMF2|52=20130404-14:46:34.740|56=EXECUTOR3|10=018|
8=FIX.4.4|9=58|35=0|34=48|49=EXECUTOR3|52=20130404-14:46:34.743|56=BVMF2|10=021|
8=FIX.4.4|9=58|35=0|34=49|49=EXECUTOR3|52=20130404-14:47:05.349|56=BVMF2|10=023|
8=FIX.4.4|9=58|35=0|34=49|49=BVMF2|52=20130404-14:47:05.351|56=EXECUTOR3|10=016|
8=FIX.4.4|9=58|35=0|34=50|49=BVMF2|52=20130404-14:47:35.737|56=EXECUTOR3|10=019|
8=FIX.4.4|9=58|35=0|34=50|49=EXECUTOR3|52=20130404-14:47:35.738|56=BVMF2|10=020|
8=FIX.4.4|9=58|35=0|34=51|49=EXECUTOR3|52=20130404-14:48:06.346|56=BVMF2|10=015|
8=FIX.4.4|9=58|35=0|34=51|49=BVMF2|52=20130404-14:48:06.348|56=EXECUTOR3|10=017|
8=FIX.4.4|9=58|35=0|34=52|49=BVMF2|52=20130404-14:48:36.735|56=EXECUTOR3|10=021|
8=FIX.4.4|9=58|35=0|34=52|49=EXECUTOR3|52=20130404-14:48:36.738|56=BVMF2|10=024|
8=FIX.4.4|9=58|35=0|34=53|49=EXECUTOR3|52=20130404-14:49:07.344|56=BVMF2|10=017|
8=FIX.4.4|9=58|35=0|34=53|49=BVMF2|52=20130404-14:49:07.346|56=EXECUTOR3|10=019|
8=FIX.4.4|9=58|35=0|34=54|49=BVMF2|52=20130404-14:49:37.732|56=EXECUTOR3|10=022|
8=FIX.4.4|9=58|35=0|34=54|49=EXECUTOR3|52=20130404-14:49:37.734|56=BVMF2|10=024|
8=FIX.4.4|9=58|35=0|34=55|49=EXECUTOR3|52=20130404-14:50:08.341|56=BVMF2|10=009|
8=FIX.4.4|9=58|35=0|34=55|49=BVMF2|52=20130404-14:50:08.343|56=EXECUTOR3|10=011|
8=FIX.4.4|9=58|35=0|34=56|49=BVMF2|52=20130404-14:50:38.729|56=EXECUTOR3|10=023|
8=FIX.4.4|9=58|35=0|34=56|49=EXECUTOR3|52=20130404-14:50:38.730|56=BVMF2|10=015|
8=FIX.4.4|9=58|35=0|34=57|49=EXECUTOR3|52=20130404-14:51:09.339|56=BVMF2|10=020|
8=FIX.4.4|9=58|35=0|34=57|49=BVMF2|52=20130404-14:51:09.342|56=EXECUTOR3|10=014|
8=FIX.4.4|9=58|35=0|34=58|49=BVMF2|52=20130404-14:51:39.726|56=EXECUTOR3|10=024|
8=FIX.4.4|9=58|35=0|34=58|49=EXECUTOR3|52=20130404-14:51:39.728|56=BVMF2|10=026|
8=FIX.4.4|9=58|35=0|34=59|49=EXECUTOR3|52=20130404-14:52:10.336|56=BVMF2|10=012|
8=FIX.4.4|9=58|35=0|34=59|49=BVMF2|52=20130404-14:52:10.339|56=EXECUTOR3|10=015|
8=FIX.4.4|9=58|35=0|34=60|49=BVMF2|52=20130404-14:52:40.723|56=EXECUTOR3|10=007|
8=FIX.4.4|9=58|35=0|34=60|49=EXECUTOR3|52=20130404-14:52:40.725|56=BVMF2|10=009|
8=FIX.4.4|9=58|35=0|34=61|49=EXECUTOR3|52=20130404-14:53:11.334|56=BVMF2|10=005|
8=FIX.4.4|9=58|35=0|34=61|49=BVMF2|52=20130404-14:53:11.336|56=EXECUTOR3|10=007|
8=FIX.4.4|9=58|35=0|34=62|49=BVMF2|52=20130404-14:53:41.722|56=EXECUTOR3|10=010|
8=FIX.4.4|9=58|35=0|34=62|49=EXECUTOR3|52=20130404-14:53:41.723|56=BVMF2|10=011|
8=FIX.4.4|9=58|35=0|34=63|49=EXECUTOR3|52=20130404-14:54:12.331|56=BVMF2|10=006|
8=FIX.4.4|9=58|35=0|34=63|49=BVMF2|52=20130404-14:54:12.333|56=EXECUTOR3|10=008|
8=FIX.4.4|9=58|35=0|34=64|49=BVMF2|52=20130404-14:54:42.720|56=EXECUTOR3|10=012|
8=FIX.4.4|9=58|35=0|34=64|49=EXECUTOR3|52=20130404-14:54:42.723|56=BVMF2|10=015|
8=FIX.4.4|9=58|35=0|34=65|49=EXECUTOR3|52=20130404-14:55:13.329|56=BVMF2|10=017|
8=FIX.4.4|9=58|35=0|34=65|49=BVMF2|52=20130404-14:55:13.331|56=EXECUTOR3|10=010|
8=FIX.4.4|9=58|35=0|34=66|49=BVMF2|52=20130404-14:55:43.717|56=EXECUTOR3|10=022|
8=FIX.4.4|9=58|35=0|34=66|49=EXECUTOR3|52=20130404-14:55:43.719|56=BVMF2|10=024|
8=FIX.4.4|9=58|35=0|34=67|49=EXECUTOR3|52=20130404-14:56:14.326|56=BVMF2|10=018|
8=FIX.4.4|9=58|35=0|34=67|49=BVMF2|52=20130404-14:56:14.328|56=EXECUTOR3|10=020|
8=FIX.4.4|9=58|35=0|34=68|49=BVMF2|52=20130404-14:56:44.714|56=EXECUTOR3|10=023|
8=FIX.4.4|9=58|35=0|34=68|49=EXECUTOR3|52=20130404-14:56:44.716|56=BVMF2|10=025|
8=FIX.4.4|9=58|35=0|34=69|49=EXECUTOR3|52=20130404-14:57:15.324|56=BVMF2|10=020|
8=FIX.4.4|9=58|35=0|34=69|49=BVMF2|52=20130404-14:57:15.326|56=EXECUTOR3|10=022|
8=FIX.4.4|9=58|35=0|34=70|49=BVMF2|52=20130404-14:57:45.712|56=EXECUTOR3|10=016|
8=FIX.4.4|9=58|35=0|34=70|49=EXECUTOR3|52=20130404-14:57:45.716|56=BVMF2|10=020|
8=FIX.4.4|9=58|35=0|34=71|49=EXECUTOR3|52=20130404-14:58:16.321|56=BVMF2|10=012|
8=FIX.4.4|9=58|35=0|34=71|49=BVMF2|52=20130404-14:58:16.325|56=EXECUTOR3|10=016|
8=FIX.4.4|9=58|35=0|34=72|49=BVMF2|52=20130404-14:58:46.709|56=EXECUTOR3|10=026|
8=FIX.4.4|9=58|35=0|34=72|49=EXECUTOR3|52=20130404-14:58:46.713|56=BVMF2|10=021|
8=FIX.4.4|9=58|35=0|34=73|49=EXECUTOR3|52=20130404-14:59:17.319|56=BVMF2|10=023|
8=FIX.4.4|9=58|35=0|34=73|49=BVMF2|52=20130404-14:59:17.321|56=EXECUTOR3|10=016|
8=FIX.4.4|9=58|35=0|34=74|49=BVMF2|52=20130404-14:59:47.706|56=EXECUTOR3|10=027|
8=FIX.4.4|9=58|35=0|34=74|49=EXECUTOR3|52=20130404-14:59:47.708|56=BVMF2|10=029|
8=FIX.4.4|9=58|35=0|34=75|49=EXECUTOR3|52=20130404-15:00:18.316|56=BVMF2|10=010|
8=FIX.4.4|9=58|35=0|34=75|49=BVMF2|52=20130404-15:00:18.318|56=EXECUTOR3|10=012|
8=FIX.4.4|9=58|35=0|34=76|49=BVMF2|52=20130404-15:00:48.704|56=EXECUTOR3|10=015|
8=FIX.4.4|9=58|35=0|34=76|49=EXECUTOR3|52=20130404-15:00:48.707|56=BVMF2|10=018|
8=FIX.4.4|9=58|35=0|34=77|49=EXECUTOR3|52=20130404-15:01:19.314|56=BVMF2|10=012|
8=FIX.4.4|9=58|35=0|34=77|49=BVMF2|52=20130404-15:01:19.316|56=EXECUTOR3|10=014|
8=FIX.4.4|9=58|35=0|34=78|49=BVMF2|52=20130404-15:01:49.701|56=EXECUTOR3|10=016|
8=FIX.4.4|9=58|35=0|34=78|49=EXECUTOR3|52=20130404-15:01:49.703|56=BVMF2|10=018|
8=FIX.4.4|9=58|35=0|34=79|49=EXECUTOR3|52=20130404-15:02:20.311|56=BVMF2|10=004|
8=FIX.4.4|9=58|35=0|34=79|49=BVMF2|52=20130404-15:02:20.313|56=EXECUTOR3|10=006|
8=FIX.4.4|9=58|35=0|34=80|49=BVMF2|52=20130404-15:02:50.698|56=EXECUTOR3|10=017|
8=FIX.4.4|9=58|35=0|34=80|49=EXECUTOR3|52=20130404-15:02:50.700|56=BVMF2|10=001|
8=FIX.4.4|9=58|35=0|34=81|49=EXECUTOR3|52=20130404-15:03:21.309|56=BVMF2|10=006|
8=FIX.4.4|9=58|35=0|34=81|49=BVMF2|52=20130404-15:03:21.311|56=EXECUTOR3|10=255|
8=FIX.4.4|9=58|35=0|34=82|49=BVMF2|52=20130404-15:03:51.696|56=EXECUTOR3|10=019|
8=FIX.4.4|9=58|35=0|34=82|49=EXECUTOR3|52=20130404-15:03:51.698|56=BVMF2|10=021|
8=FIX.4.4|9=58|35=0|34=83|49=EXECUTOR3|52=20130404-15:04:22.306|56=BVMF2|10=007|
8=FIX.4.4|9=58|35=0|34=83|49=BVMF2|52=20130404-15:04:22.309|56=EXECUTOR3|10=010|
8=FIX.4.4|9=58|35=0|34=84|49=BVMF2|52=20130404-15:04:52.693|56=EXECUTOR3|10=020|
8=FIX.4.4|9=58|35=0|34=84|49=EXECUTOR3|52=20130404-15:04:52.695|56=BVMF2|10=022|
8=FIX.4.4|9=58|35=0|34=85|49=EXECUTOR3|52=20130404-15:05:23.304|56=BVMF2|10=009|
8=FIX.4.4|9=58|35=0|34=85|49=BVMF2|52=20130404-15:05:23.306|56=EXECUTOR3|10=011|
8=FIX.4.4|9=58|35=0|34=86|49=BVMF2|52=20130404-15:05:53.691|56=EXECUTOR3|10=022|
8=FIX.4.4|9=58|35=0|34=86|49=EXECUTOR3|52=20130404-15:05:53.693|56=BVMF2|10=024|
8=FIX.4.4|9=58|35=0|34=87|49=EXECUTOR3|52=20130404-15:06:24.301|56=BVMF2|10=010|
8=FIX.4.4|9=58|35=0|34=87|49=BVMF2|52=20130404-15:06:24.303|56=EXECUTOR3|10=012|
8=FIX.4.4|9=58|35=0|34=88|49=BVMF2|52=20130404-15:06:54.688|56=EXECUTOR3|10=032|
8=FIX.4.4|9=58|35=0|34=88|49=EXECUTOR3|52=20130404-15:06:54.690|56=BVMF2|10=025|
8=FIX.4.4|9=58|35=0|34=89|49=EXECUTOR3|52=20130404-15:07:25.299|56=BVMF2|10=030|
8=FIX.4.4|9=58|35=0|34=89|49=BVMF2|52=20130404-15:07:25.301|56=EXECUTOR3|10=014|
8=FIX.4.4|9=58|35=0|34=90|49=BVMF2|52=20130404-15:07:55.686|56=EXECUTOR3|10=025|
8=FIX.4.4|9=58|35=0|34=90|49=EXECUTOR3|52=20130404-15:07:55.688|56=BVMF2|10=027|
8=FIX.4.4|9=58|35=0|34=91|49=EXECUTOR3|52=20130404-15:08:26.296|56=BVMF2|10=022|
8=FIX.4.4|9=58|35=0|34=91|49=BVMF2|52=20130404-15:08:26.298|56=EXECUTOR3|10=024|
8=FIX.4.4|9=58|35=0|34=92|49=BVMF2|52=20130404-15:08:56.683|56=EXECUTOR3|10=026|
8=FIX.4.4|9=58|35=0|34=92|49=EXECUTOR3|52=20130404-15:08:56.685|56=BVMF2|10=028|
8=FIX.4.4|9=58|35=0|34=93|49=EXECUTOR3|52=20130404-15:09:27.294|56=BVMF2|10=024|
8=FIX.4.4|9=58|35=0|34=93|49=BVMF2|52=20130404-15:09:27.296|56=EXECUTOR3|10=026|
8=FIX.4.4|9=58|35=0|34=94|49=BVMF2|52=20130404-15:09:57.681|56=EXECUTOR3|10=028|
8=FIX.4.4|9=58|35=0|34=94|49=EXECUTOR3|52=20130404-15:09:57.683|56=BVMF2|10=030|
8=FIX.4.4|9=58|35=0|34=95|49=EXECUTOR3|52=20130404-15:10:28.291|56=BVMF2|10=016|
8=FIX.4.4|9=58|35=0|34=95|49=BVMF2|52=20130404-15:10:28.294|56=EXECUTOR3|10=019|
8=FIX.4.4|9=58|35=0|34=96|49=BVMF2|52=20130404-15:10:58.679|56=EXECUTOR3|10=030|
8=FIX.4.4|9=58|35=0|34=96|49=EXECUTOR3|52=20130404-15:10:58.681|56=BVMF2|10=023|
8=FIX.4.4|9=58|35=0|34=97|49=EXECUTOR3|52=20130404-15:11:29.289|56=BVMF2|10=027|
8=FIX.4.4|9=58|35=0|34=97|49=BVMF2|52=20130404-15:11:29.291|56=EXECUTOR3|10=020|
8=FIX.4.4|9=58|35=0|34=98|49=BVMF2|52=20130404-15:11:59.677|56=EXECUTOR3|10=032|
8=FIX.4.4|9=58|35=0|34=98|49=EXECUTOR3|52=20130404-15:11:59.679|56=BVMF2|10=034|
8=FIX.4.4|9=58|35=0|34=99|49=EXECUTOR3|52=20130404-15:12:30.286|56=BVMF2|10=019|
8=FIX.4.4|9=58|35=0|34=99|49=BVMF2|52=20130404-15:12:30.288|56=EXECUTOR3|10=021|
8=FIX.4.4|9=59|35=0|34=100|49=BVMF2|52=20130404-15:13:00.673|56=EXECUTOR3|10=049|
8=FIX.4.4|9=59|35=0|34=100|49=EXECUTOR3|52=20130404-15:13:00.675|56=BVMF2|10=051|
8=FIX.4.4|9=59|35=0|34=101|49=EXECUTOR3|52=20130404-15:13:31.284|56=BVMF2|10=052|
8=FIX.4.4|9=59|35=0|34=101|49=BVMF2|52=20130404-15:13:31.285|56=EXECUTOR3|10=053|
8=FIX.4.4|9=59|35=0|34=102|49=BVMF2|52=20130404-15:14:01.673|56=EXECUTOR3|10=053|
8=FIX.4.4|9=59|35=0|34=102|49=EXECUTOR3|52=20130404-15:14:01.676|56=BVMF2|10=056|
8=FIX.4.4|9=59|35=0|34=103|49=EXECUTOR3|52=20130404-15:14:32.281|56=BVMF2|10=053|
8=FIX.4.4|9=59|35=0|34=103|49=BVMF2|52=20130404-15:14:32.283|56=EXECUTOR3|10=055|
8=FIX.4.4|9=59|35=0|34=104|49=BVMF2|52=20130404-15:15:02.669|56=EXECUTOR3|10=062|
8=FIX.4.4|9=59|35=0|34=104|49=EXECUTOR3|52=20130404-15:15:02.671|56=BVMF2|10=055|
8=FIX.4.4|9=59|35=0|34=105|49=EXECUTOR3|52=20130404-15:15:33.279|56=BVMF2|10=064|
8=FIX.4.4|9=59|35=0|34=105|49=BVMF2|52=20130404-15:15:33.281|56=EXECUTOR3|10=057|
8=FIX.4.4|9=59|35=0|34=106|49=BVMF2|52=20130404-15:16:03.666|56=EXECUTOR3|10=063|
8=FIX.4.4|9=59|35=0|34=106|49=EXECUTOR3|52=20130404-15:16:03.668|56=BVMF2|10=065|
8=FIX.4.4|9=59|35=0|34=107|49=EXECUTOR3|52=20130404-15:16:34.276|56=BVMF2|10=065|
8=FIX.4.4|9=59|35=0|34=107|49=BVMF2|52=20130404-15:16:34.279|56=EXECUTOR3|10=068|
8=FIX.4.4|9=59|35=0|34=108|49=BVMF2|52=20130404-15:17:04.663|56=EXECUTOR3|10=064|
8=FIX.4.4|9=59|35=0|34=108|49=EXECUTOR3|52=20130404-15:17:04.665|56=BVMF2|10=066|
8=FIX.4.4|9=59|35=0|34=109|49=EXECUTOR3|52=20130404-15:17:35.274|56=BVMF2|10=067|
8=FIX.4.4|9=59|35=0|34=109|49=BVMF2|52=20130404-15:17:35.276|56=EXECUTOR3|10=069|
8=FIX.4.4|9=59|35=0|34=110|49=BVMF2|52=20130404-15:18:05.661|56=EXECUTOR3|10=057|
8=FIX.4.4|9=59|35=0|34=110|49=EXECUTOR3|52=20130404-15:18:05.663|56=BVMF2|10=059|
8=FIX.4.4|9=59|35=0|34=111|49=EXECUTOR3|52=20130404-15:18:36.271|56=BVMF2|10=059|
8=FIX.4.4|9=59|35=0|34=111|49=BVMF2|52=20130404-15:18:36.273|56=EXECUTOR3|10=061|
8=FIX.4.4|9=59|35=0|34=112|49=BVMF2|52=20130404-15:19:06.658|56=EXECUTOR3|10=067|
8=FIX.4.4|9=59|35=0|34=112|49=EXECUTOR3|52=20130404-15:19:06.659|56=BVMF2|10=068|
8=FIX.4.4|9=59|35=0|34=113|49=EXECUTOR3|52=20130404-15:19:37.269|56=BVMF2|10=070|
8=FIX.4.4|9=59|35=0|34=113|49=BVMF2|52=20130404-15:19:37.271|56=EXECUTOR3|10=063|
8=FIX.4.4|9=59|35=0|34=114|49=BVMF2|52=20130404-15:20:07.657|56=EXECUTOR3|10=061|
8=FIX.4.4|9=59|35=0|34=114|49=EXECUTOR3|52=20130404-15:20:07.660|56=BVMF2|10=055|
8=FIX.4.4|9=59|35=0|34=115|49=EXECUTOR3|52=20130404-15:20:38.266|56=BVMF2|10=062|
8=FIX.4.4|9=59|35=0|34=115|49=BVMF2|52=20130404-15:20:38.268|56=EXECUTOR3|10=064|
8=FIX.4.4|9=59|35=0|34=116|49=BVMF2|52=20130404-15:21:08.654|56=EXECUTOR3|10=062|
8=FIX.4.4|9=59|35=0|34=116|49=EXECUTOR3|52=20130404-15:21:08.655|56=BVMF2|10=063|
8=FIX.4.4|9=59|35=0|34=117|49=EXECUTOR3|52=20130404-15:21:39.264|56=BVMF2|10=064|
8=FIX.4.4|9=59|35=0|34=117|49=BVMF2|52=20130404-15:21:39.266|56=EXECUTOR3|10=066|
8=FIX.4.4|9=59|35=0|34=118|49=BVMF2|52=20130404-15:22:09.651|56=EXECUTOR3|10=063|
8=FIX.4.4|9=59|35=0|34=118|49=EXECUTOR3|52=20130404-15:22:09.653|56=BVMF2|10=065|
8=FIX.4.4|9=59|35=0|34=119|49=EXECUTOR3|52=20130404-15:22:40.261|56=BVMF2|10=056|
8=FIX.4.4|9=59|35=0|34=119|49=BVMF2|52=20130404-15:22:40.263|56=EXECUTOR3|10=058|
8=FIX.4.4|9=59|35=0|34=120|49=BVMF2|52=20130404-15:23:10.648|56=EXECUTOR3|10=055|
8=FIX.4.4|9=59|35=0|34=120|49=EXECUTOR3|52=20130404-15:23:10.650|56=BVMF2|10=048|
8=FIX.4.4|9=59|35=0|34=121|49=EXECUTOR3|52=20130404-15:23:41.259|56=BVMF2|10=058|
8=FIX.4.4|9=59|35=0|34=121|49=BVMF2|52=20130404-15:23:41.261|56=EXECUTOR3|10=051|
8=FIX.4.4|9=59|35=0|34=122|49=BVMF2|52=20130404-15:24:11.646|56=EXECUTOR3|10=057|
8=FIX.4.4|9=59|35=0|34=122|49=EXECUTOR3|52=20130404-15:24:11.649|56=BVMF2|10=060|
8=FIX.4.4|9=59|35=0|34=123|49=EXECUTOR3|52=20130404-15:24:42.256|56=BVMF2|10=059|
8=FIX.4.4|9=59|35=0|34=123|49=BVMF2|52=20130404-15:24:42.258|56=EXECUTOR3|10=061|
8=FIX.4.4|9=59|35=0|34=124|49=BVMF2|52=20130404-15:25:12.643|56=EXECUTOR3|10=058|
8=FIX.4.4|9=59|35=0|34=124|49=EXECUTOR3|52=20130404-15:25:12.645|56=BVMF2|10=060|
8=FIX.4.4|9=59|35=0|34=125|49=EXECUTOR3|52=20130404-15:25:43.254|56=BVMF2|10=061|
8=FIX.4.4|9=59|35=0|34=125|49=BVMF2|52=20130404-15:25:43.256|56=EXECUTOR3|10=063|
8=FIX.4.4|9=59|35=0|34=126|49=BVMF2|52=20130404-15:26:13.642|56=EXECUTOR3|10=061|
8=FIX.4.4|9=59|35=0|34=126|49=EXECUTOR3|52=20130404-15:26:13.645|56=BVMF2|10=064|
8=FIX.4.4|9=59|35=0|34=127|49=EXECUTOR3|52=20130404-15:26:44.251|56=BVMF2|10=062|
8=FIX.4.4|9=59|35=0|34=127|49=BVMF2|52=20130404-15:26:44.253|56=EXECUTOR3|10=064|
8=FIX.4.4|9=59|35=0|34=128|49=BVMF2|52=20130404-15:27:14.638|56=EXECUTOR3|10=070|
8=FIX.4.4|9=59|35=0|34=128|49=EXECUTOR3|52=20130404-15:27:14.640|56=BVMF2|10=063|
8=FIX.4.4|9=59|35=0|34=129|49=EXECUTOR3|52=20130404-15:27:45.249|56=BVMF2|10=073|
8=FIX.4.4|9=59|35=0|34=129|49=BVMF2|52=20130404-15:27:45.251|56=EXECUTOR3|10=066|
8=FIX.4.4|9=59|35=0|34=130|49=BVMF2|52=20130404-15:28:15.636|56=EXECUTOR3|10=063|
8=FIX.4.4|9=59|35=0|34=130|49=EXECUTOR3|52=20130404-15:28:15.638|56=BVMF2|10=065|
8=FIX.4.4|9=59|35=0|34=131|49=EXECUTOR3|52=20130404-15:28:46.246|56=BVMF2|10=065|
8=FIX.4.4|9=59|35=0|34=131|49=BVMF2|52=20130404-15:28:46.248|56=EXECUTOR3|10=067|
8=FIX.4.4|9=59|35=0|34=132|49=BVMF2|52=20130404-15:29:16.633|56=EXECUTOR3|10=064|
8=FIX.4.4|9=59|35=0|34=132|49=EXECUTOR3|52=20130404-15:29:16.635|56=BVMF2|10=066|
8=FIX.4.4|9=59|35=0|34=133|49=EXECUTOR3|52=20130404-15:29:47.244|56=BVMF2|10=067|
8=FIX.4.4|9=59|35=0|34=133|49=BVMF2|52=20130404-15:29:47.247|56=EXECUTOR3|10=070|
8=FIX.4.4|9=59|35=0|34=134|49=BVMF2|52=20130404-15:30:17.632|56=EXECUTOR3|10=058|
8=FIX.4.4|9=59|35=0|34=134|49=EXECUTOR3|52=20130404-15:30:17.633|56=BVMF2|10=059|
8=FIX.4.4|9=59|35=0|34=135|49=EXECUTOR3|52=20130404-15:30:48.241|56=BVMF2|10=059|
8=FIX.4.4|9=59|35=0|34=135|49=BVMF2|52=20130404-15:30:48.243|56=EXECUTOR3|10=061|
8=FIX.4.4|9=59|35=0|34=136|49=BVMF2|52=20130404-15:31:18.628|56=EXECUTOR3|10=067|
8=FIX.4.4|9=59|35=0|34=136|49=EXECUTOR3|52=20130404-15:31:18.630|56=BVMF2|10=060|
8=FIX.4.4|9=59|35=0|34=137|49=EXECUTOR3|52=20130404-15:31:49.239|56=BVMF2|10=070|
8=FIX.4.4|9=59|35=0|34=137|49=BVMF2|52=20130404-15:31:49.241|56=EXECUTOR3|10=063|
8=FIX.4.4|9=59|35=0|34=138|49=BVMF2|52=20130404-15:32:19.627|56=EXECUTOR3|10=070|
8=FIX.4.4|9=59|35=0|34=138|49=EXECUTOR3|52=20130404-15:32:19.630|56=BVMF2|10=064|
8=FIX.4.4|9=59|35=0|34=139|49=EXECUTOR3|52=20130404-15:32:50.236|56=BVMF2|10=062|
8=FIX.4.4|9=59|35=0|34=139|49=BVMF2|52=20130404-15:32:50.238|56=EXECUTOR3|10=064|
8=FIX.4.4|9=59|35=0|34=140|49=BVMF2|52=20130404-15:33:20.623|56=EXECUTOR3|10=052|
8=FIX.4.4|9=59|35=0|34=140|49=EXECUTOR3|52=20130404-15:33:20.624|56=BVMF2|10=053|
8=FIX.4.4|9=59|35=0|34=141|49=EXECUTOR3|52=20130404-15:33:51.234|56=BVMF2|10=055|
8=FIX.4.4|9=59|35=0|34=141|49=BVMF2|52=20130404-15:33:51.236|56=EXECUTOR3|10=057|
8=FIX.4.4|9=59|35=0|34=142|49=BVMF2|52=20130404-15:34:21.621|56=EXECUTOR3|10=054|
8=FIX.4.4|9=59|35=0|34=142|49=EXECUTOR3|52=20130404-15:34:21.623|56=BVMF2|10=056|
8=FIX.4.4|9=59|35=0|34=143|49=EXECUTOR3|52=20130404-15:34:52.231|56=BVMF2|10=056|
8=FIX.4.4|9=59|35=0|34=143|49=BVMF2|52=20130404-15:34:52.233|56=EXECUTOR3|10=058|
8=FIX.4.4|9=59|35=0|34=144|49=BVMF2|52=20130404-15:35:22.618|56=EXECUTOR3|10=064|
8=FIX.4.4|9=59|35=0|34=144|49=EXECUTOR3|52=20130404-15:35:22.619|56=BVMF2|10=065|
8=FIX.4.4|9=59|35=0|34=145|49=EXECUTOR3|52=20130404-15:35:53.229|56=BVMF2|10=067|
8=FIX.4.4|9=59|35=0|34=145|49=BVMF2|52=20130404-15:35:53.232|56=EXECUTOR3|10=061|
8=FIX.4.4|9=59|35=0|34=146|49=BVMF2|52=20130404-15:36:23.616|56=EXECUTOR3|10=066|
8=FIX.4.4|9=59|35=0|34=146|49=EXECUTOR3|52=20130404-15:36:23.618|56=BVMF2|10=068|
8=FIX.4.4|9=59|35=0|34=147|49=EXECUTOR3|52=20130404-15:36:54.226|56=BVMF2|10=068|
8=FIX.4.4|9=59|35=0|34=147|49=BVMF2|52=20130404-15:36:54.228|56=EXECUTOR3|10=070|
8=FIX.4.4|9=59|35=0|34=148|49=BVMF2|52=20130404-15:37:24.614|56=EXECUTOR3|10=068|
8=FIX.4.4|9=59|35=0|34=148|49=EXECUTOR3|52=20130404-15:37:24.616|56=BVMF2|10=070|
8=FIX.4.4|9=59|35=0|34=149|49=EXECUTOR3|52=20130404-15:37:55.224|56=BVMF2|10=070|
8=FIX.4.4|9=59|35=0|34=149|49=BVMF2|52=20130404-15:37:55.226|56=EXECUTOR3|10=072|
8=FIX.4.4|9=59|35=0|34=150|49=BVMF2|52=20130404-15:38:25.612|56=EXECUTOR3|10=061|
8=FIX.4.4|9=59|35=0|34=150|49=EXECUTOR3|52=20130404-15:38:25.614|56=BVMF2|10=063|
8=FIX.4.4|9=59|35=0|34=151|49=EXECUTOR3|52=20130404-15:38:56.221|56=BVMF2|10=062|
8=FIX.4.4|9=59|35=0|34=151|49=BVMF2|52=20130404-15:38:56.222|56=EXECUTOR3|10=063|
8=FIX.4.4|9=59|35=0|34=152|49=BVMF2|52=20130404-15:39:26.609|56=EXECUTOR3|10=071|
8=FIX.4.4|9=59|35=0|34=152|49=EXECUTOR3|52=20130404-15:39:26.612|56=BVMF2|10=065|
8=FIX.4.4|9=59|35=0|34=153|49=EXECUTOR3|52=20130404-15:39:57.219|56=BVMF2|10=073|
8=FIX.4.4|9=59|35=0|34=153|49=BVMF2|52=20130404-15:39:57.221|56=EXECUTOR3|10=066|
8=FIX.4.4|9=59|35=0|34=154|49=BVMF2|52=20130404-15:40:27.606|56=EXECUTOR3|10=063|
8=FIX.4.4|9=59|35=0|34=154|49=EXECUTOR3|52=20130404-15:40:27.607|56=BVMF2|10=064|
8=FIX.4.4|9=59|35=0|34=155|49=EXECUTOR3|52=20130404-15:40:58.216|56=BVMF2|10=065|
8=FIX.4.4|9=59|35=0|34=155|49=BVMF2|52=20130404-15:40:58.218|56=EXECUTOR3|10=067|
8=FIX.4.4|9=59|35=0|34=156|49=BVMF2|52=20130404-15:41:28.603|56=EXECUTOR3|10=064|
8=FIX.4.4|9=59|35=0|34=156|49=EXECUTOR3|52=20130404-15:41:28.604|56=BVMF2|10=065|
8=FIX.4.4|9=59|35=0|34=157|49=EXECUTOR3|52=20130404-15:41:59.214|56=BVMF2|10=067|
8=FIX.4.4|9=59|35=0|34=157|49=BVMF2|52=20130404-15:41:59.216|56=EXECUTOR3|10=069|
8=FIX.4.4|9=59|35=0|34=158|49=BVMF2|52=20130404-15:42:29.601|56=EXECUTOR3|10=066|
8=FIX.4.4|9=59|35=0|34=158|49=EXECUTOR3|52=20130404-15:42:29.603|56=BVMF2|10=068|
8=FIX.4.4|9=59|35=0|34=159|49=EXECUTOR3|52=20130404-15:43:00.211|56=BVMF2|10=054|
8=FIX.4.4|9=59|35=0|34=159|49=BVMF2|52=20130404-15:43:00.213|56=EXECUTOR3|10=056|
8=FIX.4.4|9=59|35=0|34=160|49=BVMF2|52=20130404-15:43:30.598|56=EXECUTOR3|10=067|
8=FIX.4.4|9=59|35=0|34=160|49=EXECUTOR3|52=20130404-15:43:30.600|56=BVMF2|10=051|
8=FIX.4.4|9=59|35=0|34=161|49=EXECUTOR3|52=20130404-15:44:01.209|56=BVMF2|10=056|
8=FIX.4.4|9=59|35=0|34=161|49=BVMF2|52=20130404-15:44:01.210|56=EXECUTOR3|10=048|
8=FIX.4.4|9=59|35=0|34=162|49=BVMF2|52=20130404-15:44:31.596|56=EXECUTOR3|10=069|
8=FIX.4.4|9=59|35=0|34=162|49=EXECUTOR3|52=20130404-15:44:31.597|56=BVMF2|10=070|
8=FIX.4.4|9=59|35=0|34=163|49=EXECUTOR3|52=20130404-15:45:02.206|56=BVMF2|10=057|
8=FIX.4.4|9=59|35=0|34=163|49=BVMF2|52=20130404-15:45:02.208|56=EXECUTOR3|10=059|
8=FIX.4.4|9=59|35=0|34=164|49=BVMF2|52=20130404-15:45:32.594|56=EXECUTOR3|10=071|
8=FIX.4.4|9=59|35=0|34=164|49=EXECUTOR3|52=20130404-15:45:32.597|56=BVMF2|10=074|
8=FIX.4.4|9=59|35=0|34=165|49=EXECUTOR3|52=20130404-15:46:03.204|56=BVMF2|10=059|
8=FIX.4.4|9=59|35=0|34=165|49=BVMF2|52=20130404-15:46:03.206|56=EXECUTOR3|10=061|
8=FIX.4.4|9=59|35=0|34=166|49=BVMF2|52=20130404-15:46:33.592|56=EXECUTOR3|10=073|
8=FIX.4.4|9=59|35=0|34=166|49=EXECUTOR3|52=20130404-15:46:33.595|56=BVMF2|10=076|
8=FIX.4.4|9=59|35=0|34=167|49=EXECUTOR3|52=20130404-15:47:04.201|56=BVMF2|10=060|
8=FIX.4.4|9=59|35=0|34=167|49=BVMF2|52=20130404-15:47:04.203|56=EXECUTOR3|10=062|
8=FIX.4.4|9=59|35=0|34=168|49=BVMF2|52=20130404-15:47:34.589|56=EXECUTOR3|10=083|
8=FIX.4.4|9=59|35=0|34=168|49=EXECUTOR3|52=20130404-15:47:34.591|56=BVMF2|10=076|
8=FIX.4.4|9=59|35=0|34=169|49=EXECUTOR3|52=20130404-15:48:05.199|56=BVMF2|10=080|
8=FIX.4.4|9=59|35=0|34=169|49=BVMF2|52=20130404-15:48:05.201|56=EXECUTOR3|10=064|
8=FIX.4.4|9=59|35=0|34=170|49=BVMF2|52=20130404-15:48:35.587|56=EXECUTOR3|10=076|
8=FIX.4.4|9=59|35=0|34=170|49=EXECUTOR3|52=20130404-15:48:35.589|56=BVMF2|10=078|
8=FIX.4.4|9=59|35=0|34=171|49=EXECUTOR3|52=20130404-15:49:06.196|56=BVMF2|10=072|
8=FIX.4.4|9=59|35=0|34=171|49=BVMF2|52=20130404-15:49:06.199|56=EXECUTOR3|10=075|
8=FIX.4.4|9=59|35=0|34=172|49=BVMF2|52=20130404-15:49:36.584|56=EXECUTOR3|10=077|
8=FIX.4.4|9=59|35=0|34=172|49=EXECUTOR3|52=20130404-15:49:36.586|56=BVMF2|10=079|
8=FIX.4.4|9=59|35=0|34=173|49=EXECUTOR3|52=20130404-15:50:07.194|56=BVMF2|10=065|
8=FIX.4.4|9=59|35=0|34=173|49=BVMF2|52=20130404-15:50:07.197|56=EXECUTOR3|10=068|
8=FIX.4.4|9=59|35=0|34=174|49=BVMF2|52=20130404-15:50:37.582|56=EXECUTOR3|10=070|
8=FIX.4.4|9=59|35=0|34=174|49=EXECUTOR3|52=20130404-15:50:37.584|56=BVMF2|10=072|
8=FIX.4.4|9=59|35=0|34=175|49=EXECUTOR3|52=20130404-15:51:08.191|56=BVMF2|10=066|
8=FIX.4.4|9=59|35=0|34=175|49=BVMF2|52=20130404-15:51:08.193|56=EXECUTOR3|10=068|
8=FIX.4.4|9=59|35=0|34=176|49=BVMF2|52=20130404-15:51:38.579|56=EXECUTOR3|10=080|
8=FIX.4.4|9=59|35=0|34=176|49=EXECUTOR3|52=20130404-15:51:38.581|56=BVMF2|10=073|
8=FIX.4.4|9=59|35=0|34=177|49=EXECUTOR3|52=20130404-15:52:09.189|56=BVMF2|10=077|
8=FIX.4.4|9=59|35=0|34=177|49=BVMF2|52=20130404-15:52:09.191|56=EXECUTOR3|10=070|
8=FIX.4.4|9=59|35=0|34=178|49=BVMF2|52=20130404-15:52:39.577|56=EXECUTOR3|10=082|
8=FIX.4.4|9=59|35=0|34=178|49=EXECUTOR3|52=20130404-15:52:39.580|56=BVMF2|10=076|
8=FIX.4.4|9=59|35=0|34=179|49=EXECUTOR3|52=20130404-15:53:10.186|56=BVMF2|10=069|
8=FIX.4.4|9=59|35=0|34=179|49=BVMF2|52=20130404-15:53:10.188|56=EXECUTOR3|10=071|
8=FIX.4.4|9=59|35=0|34=180|49=BVMF2|52=20130404-15:53:40.573|56=EXECUTOR3|10=064|
8=FIX.4.4|9=59|35=0|34=180|49=EXECUTOR3|52=20130404-15:53:40.574|56=BVMF2|10=065|
8=FIX.4.4|9=59|35=0|34=181|49=EXECUTOR3|52=20130404-15:54:11.184|56=BVMF2|10=062|
8=FIX.4.4|9=59|35=0|34=181|49=BVMF2|52=20130404-15:54:11.187|56=EXECUTOR3|10=065|
8=FIX.4.4|9=59|35=0|34=182|49=BVMF2|52=20130404-15:54:41.571|56=EXECUTOR3|10=066|
8=FIX.4.4|9=59|35=0|34=182|49=EXECUTOR3|52=20130404-15:54:41.572|56=BVMF2|10=067|
8=FIX.4.4|9=59|35=0|34=183|49=EXECUTOR3|52=20130404-15:55:12.181|56=BVMF2|10=063|
8=FIX.4.4|9=59|35=0|34=183|49=BVMF2|52=20130404-15:55:12.182|56=EXECUTOR3|10=064|
8=FIX.4.4|9=59|35=0|34=184|49=BVMF2|52=20130404-15:55:42.568|56=EXECUTOR3|10=076|
8=FIX.4.4|9=59|35=0|34=184|49=EXECUTOR3|52=20130404-15:55:42.569|56=BVMF2|10=077|
8=FIX.4.4|9=59|35=0|34=185|49=EXECUTOR3|52=20130404-15:56:13.179|56=BVMF2|10=074|
8=FIX.4.4|9=59|35=0|34=185|49=BVMF2|52=20130404-15:56:13.180|56=EXECUTOR3|10=066|
8=FIX.4.4|9=59|35=0|34=186|49=BVMF2|52=20130404-15:56:43.567|56=EXECUTOR3|10=079|
8=FIX.4.4|9=59|35=0|34=186|49=EXECUTOR3|52=20130404-15:56:43.569|56=BVMF2|10=081|
8=FIX.4.4|9=59|35=0|34=187|49=EXECUTOR3|52=20130404-15:57:14.176|56=BVMF2|10=075|
8=FIX.4.4|9=59|35=0|34=187|49=BVMF2|52=20130404-15:57:14.177|56=EXECUTOR3|10=076|
8=FIX.4.4|9=59|35=0|34=188|49=BVMF2|52=20130404-15:57:44.564|56=EXECUTOR3|10=080|
8=FIX.4.4|9=59|35=0|34=188|49=EXECUTOR3|52=20130404-15:57:44.566|56=BVMF2|10=082|
8=FIX.4.4|9=59|35=0|34=189|49=EXECUTOR3|52=20130404-15:58:15.174|56=BVMF2|10=077|
8=FIX.4.4|9=59|35=0|34=189|49=BVMF2|52=20130404-15:58:15.177|56=EXECUTOR3|10=080|
8=FIX.4.4|9=59|35=0|34=190|49=BVMF2|52=20130404-15:58:45.562|56=EXECUTOR3|10=073|
8=FIX.4.4|9=59|35=0|34=190|49=EXECUTOR3|52=20130404-15:58:45.564|56=BVMF2|10=075|
8=FIX.4.4|9=59|35=0|34=191|49=EXECUTOR3|52=20130404-15:59:16.171|56=BVMF2|10=069|
8=FIX.4.4|9=59|35=0|34=191|49=BVMF2|52=20130404-15:59:16.174|56=EXECUTOR3|10=072|
8=FIX.4.4|9=59|35=0|34=192|49=BVMF2|52=20130404-15:59:46.559|56=EXECUTOR3|10=083|
8=FIX.4.4|9=59|35=0|34=192|49=EXECUTOR3|52=20130404-15:59:46.562|56=BVMF2|10=077|
8=FIX.4.4|9=59|35=0|34=193|49=EXECUTOR3|52=20130404-16:00:17.169|56=BVMF2|10=066|
8=FIX.4.4|9=59|35=0|34=193|49=BVMF2|52=20130404-16:00:17.172|56=EXECUTOR3|10=060|
8=FIX.4.4|9=59|35=0|34=194|49=BVMF2|52=20130404-16:00:47.557|56=EXECUTOR3|10=071|
8=FIX.4.4|9=59|35=0|34=194|49=EXECUTOR3|52=20130404-16:00:47.559|56=BVMF2|10=073|
8=FIX.4.4|9=59|35=0|34=195|49=EXECUTOR3|52=20130404-16:01:18.166|56=BVMF2|10=067|
8=FIX.4.4|9=59|35=0|34=195|49=BVMF2|52=20130404-16:01:18.169|56=EXECUTOR3|10=070|
8=FIX.4.4|9=59|35=0|34=196|49=BVMF2|52=20130404-16:01:48.554|56=EXECUTOR3|10=072|
8=FIX.4.4|9=59|35=0|34=196|49=EXECUTOR3|52=20130404-16:01:48.557|56=BVMF2|10=075|
8=FIX.4.4|9=59|35=0|34=197|49=EXECUTOR3|52=20130404-16:02:19.164|56=BVMF2|10=069|
8=FIX.4.4|9=59|35=0|34=197|49=BVMF2|52=20130404-16:02:19.166|56=EXECUTOR3|10=071|
8=FIX.4.4|9=59|35=0|34=198|49=BVMF2|52=20130404-16:02:49.552|56=EXECUTOR3|10=074|
8=FIX.4.4|9=59|35=0|34=198|49=EXECUTOR3|52=20130404-16:02:49.554|56=BVMF2|10=076|
8=FIX.4.4|9=59|35=0|34=199|49=EXECUTOR3|52=20130404-16:03:20.161|56=BVMF2|10=061|
8=FIX.4.4|9=59|35=0|34=199|49=BVMF2|52=20130404-16:03:20.164|56=EXECUTOR3|10=064|
8=FIX.4.4|9=59|35=0|34=200|49=BVMF2|52=20130404-16:03:50.549|56=EXECUTOR3|10=057|
8=FIX.4.4|9=59|35=0|34=200|49=EXECUTOR3|52=20130404-16:03:50.552|56=BVMF2|10=051|
8=FIX.4.4|9=59|35=0|34=201|49=EXECUTOR3|52=20130404-16:04:21.159|56=BVMF2|10=054|
8=FIX.4.4|9=59|35=0|34=201|49=BVMF2|52=20130404-16:04:21.162|56=EXECUTOR3|10=048|
8=FIX.4.4|9=59|35=0|34=202|49=BVMF2|52=20130404-16:04:51.546|56=EXECUTOR3|10=058|
8=FIX.4.4|9=59|35=0|34=202|49=EXECUTOR3|52=20130404-16:04:51.548|56=BVMF2|10=060|
8=FIX.4.4|9=59|35=0|34=203|49=EXECUTOR3|52=20130404-16:05:22.156|56=BVMF2|10=055|
8=FIX.4.4|9=59|35=0|34=203|49=BVMF2|52=20130404-16:05:22.159|56=EXECUTOR3|10=058|
8=FIX.4.4|9=59|35=0|34=204|49=BVMF2|52=20130404-16:05:52.544|56=EXECUTOR3|10=060|
8=FIX.4.4|9=59|35=0|34=204|49=EXECUTOR3|52=20130404-16:05:52.546|56=BVMF2|10=062|
8=FIX.4.4|9=59|35=0|34=205|49=EXECUTOR3|52=20130404-16:06:23.154|56=BVMF2|10=057|
8=FIX.4.4|9=59|35=0|34=205|49=BVMF2|52=20130404-16:06:23.156|56=EXECUTOR3|10=059|
8=FIX.4.4|9=59|35=0|34=206|49=BVMF2|52=20130404-16:06:53.541|56=EXECUTOR3|10=061|
8=FIX.4.4|9=59|35=0|34=206|49=EXECUTOR3|52=20130404-16:06:53.543|56=BVMF2|10=063|
8=FIX.4.4|9=59|35=0|34=207|49=EXECUTOR3|52=20130404-16:07:24.151|56=BVMF2|10=058|
8=FIX.4.4|9=59|35=0|34=207|49=BVMF2|52=20130404-16:07:24.154|56=EXECUTOR3|10=061|
8=FIX.4.4|9=59|35=0|34=208|49=BVMF2|52=20130404-16:07:54.539|56=EXECUTOR3|10=072|
8=FIX.4.4|9=59|35=0|34=208|49=EXECUTOR3|52=20130404-16:07:54.541|56=BVMF2|10=065|
8=FIX.4.4|9=59|35=0|34=209|49=EXECUTOR3|52=20130404-16:08:25.149|56=BVMF2|10=069|
8=FIX.4.4|9=59|35=0|34=209|49=BVMF2|52=20130404-16:08:25.152|56=EXECUTOR3|10=063|
8=FIX.4.4|9=59|35=0|34=210|49=BVMF2|52=20130404-16:08:55.537|56=EXECUTOR3|10=065|
8=FIX.4.4|9=59|35=0|34=210|49=EXECUTOR3|52=20130404-16:08:55.540|56=BVMF2|10=059|
8=FIX.4.4|9=59|35=0|34=211|49=EXECUTOR3|52=20130404-16:09:26.146|56=BVMF2|10=061|
8=FIX.4.4|9=59|35=0|34=211|49=BVMF2|52=20130404-16:09:26.149|56=EXECUTOR3|10=064|
8=FIX.4.4|9=59|35=0|34=212|49=BVMF2|52=20130404-16:09:56.533|56=EXECUTOR3|10=065|
8=FIX.4.4|9=59|35=0|34=212|49=EXECUTOR3|52=20130404-16:09:56.535|56=BVMF2|10=067|
8=FIX.4.4|9=59|35=0|34=213|49=EXECUTOR3|52=20130404-16:10:27.144|56=BVMF2|10=054|
8=FIX.4.4|9=59|35=0|34=213|49=BVMF2|52=20130404-16:10:27.147|56=EXECUTOR3|10=057|
8=FIX.4.4|9=59|35=0|34=214|49=BVMF2|52=20130404-16:10:57.532|56=EXECUTOR3|10=059|
8=FIX.4.4|9=59|35=0|34=214|49=EXECUTOR3|52=20130404-16:10:57.534|56=BVMF2|10=061|
8=FIX.4.4|9=59|35=0|34=215|49=EXECUTOR3|52=20130404-16:11:28.141|56=BVMF2|10=055|
8=FIX.4.4|9=59|35=0|34=215|49=BVMF2|52=20130404-16:11:28.142|56=EXECUTOR3|10=056|
8=FIX.4.4|9=59|35=0|34=216|49=BVMF2|52=20130404-16:11:58.529|56=EXECUTOR3|10=069|
8=FIX.4.4|9=59|35=0|34=216|49=EXECUTOR3|52=20130404-16:11:58.531|56=BVMF2|10=062|
8=FIX.4.4|9=59|35=0|34=217|49=EXECUTOR3|52=20130404-16:12:29.139|56=BVMF2|10=066|
8=FIX.4.4|9=59|35=0|34=217|49=BVMF2|52=20130404-16:12:29.141|56=EXECUTOR3|10=059|
8=FIX.4.4|9=59|35=0|34=218|49=BVMF2|52=20130404-16:12:59.527|56=EXECUTOR3|10=071|
8=FIX.4.4|9=59|35=0|34=218|49=EXECUTOR3|52=20130404-16:12:59.529|56=BVMF2|10=073|
8=FIX.4.4|9=59|35=0|34=219|49=EXECUTOR3|52=20130404-16:13:30.136|56=BVMF2|10=058|
8=FIX.4.4|9=59|35=0|34=219|49=BVMF2|52=20130404-16:13:30.139|56=EXECUTOR3|10=061|
8=FIX.4.4|9=59|35=0|34=220|49=BVMF2|52=20130404-16:14:00.524|56=EXECUTOR3|10=049|
8=FIX.4.4|9=59|35=0|34=220|49=EXECUTOR3|52=20130404-16:14:00.527|56=BVMF2|10=052|
8=FIX.4.4|9=59|35=0|34=221|49=EXECUTOR3|52=20130404-16:14:31.134|56=BVMF2|10=051|
8=FIX.4.4|9=59|35=0|34=221|49=BVMF2|52=20130404-16:14:31.137|56=EXECUTOR3|10=054|
8=FIX.4.4|9=59|35=0|34=222|49=BVMF2|52=20130404-16:15:01.522|56=EXECUTOR3|10=051|
8=FIX.4.4|9=59|35=0|34=222|49=EXECUTOR3|52=20130404-16:15:01.525|56=BVMF2|10=054|
8=FIX.4.4|9=59|35=0|34=223|49=EXECUTOR3|52=20130404-16:15:32.131|56=BVMF2|10=052|
8=FIX.4.4|9=59|35=0|34=223|49=BVMF2|52=20130404-16:15:32.134|56=EXECUTOR3|10=055|
8=FIX.4.4|9=59|35=0|34=224|49=BVMF2|52=20130404-16:16:02.519|56=EXECUTOR3|10=061|
8=FIX.4.4|9=59|35=0|34=224|49=EXECUTOR3|52=20130404-16:16:02.521|56=BVMF2|10=054|
8=FIX.4.4|9=59|35=0|34=225|49=EXECUTOR3|52=20130404-16:16:33.129|56=BVMF2|10=063|
8=FIX.4.4|9=59|35=0|34=225|49=BVMF2|52=20130404-16:16:33.132|56=EXECUTOR3|10=057|
8=FIX.4.4|9=59|35=0|34=226|49=BVMF2|52=20130404-16:17:03.517|56=EXECUTOR3|10=063|
8=FIX.4.4|9=59|35=0|34=226|49=EXECUTOR3|52=20130404-16:17:03.520|56=BVMF2|10=057|
8=FIX.4.4|9=59|35=0|34=227|49=EXECUTOR3|52=20130404-16:17:34.126|56=BVMF2|10=064|
8=FIX.4.4|9=59|35=0|34=227|49=BVMF2|52=20130404-16:17:34.127|56=EXECUTOR3|10=065|
8=FIX.4.4|9=59|35=0|34=228|49=BVMF2|52=20130404-16:18:04.514|56=EXECUTOR3|10=064|
8=FIX.4.4|9=59|35=0|34=228|49=EXECUTOR3|52=20130404-16:18:04.516|56=BVMF2|10=066|
8=FIX.4.4|9=59|35=0|34=229|49=EXECUTOR3|52=20130404-16:18:35.124|56=BVMF2|10=066|
8=FIX.4.4|9=59|35=0|34=229|49=BVMF2|52=20130404-16:18:35.127|56=EXECUTOR3|10=069|
8=FIX.4.4|9=59|35=0|34=230|49=BVMF2|52=20130404-16:19:05.511|56=EXECUTOR3|10=056|
8=FIX.4.4|9=59|35=0|34=230|49=EXECUTOR3|52=20130404-16:19:05.512|56=BVMF2|10=057|
8=FIX.4.4|9=59|35=0|34=231|49=EXECUTOR3|52=20130404-16:19:36.121|56=BVMF2|10=058|
8=FIX.4.4|9=59|35=0|34=231|49=BVMF2|52=20130404-16:19:36.122|56=EXECUTOR3|10=059|
8=FIX.4.4|9=59|35=0|34=232|49=BVMF2|52=20130404-16:20:06.509|56=EXECUTOR3|10=058|
8=FIX.4.4|9=59|35=0|34=232|49=EXECUTOR3|52=20130404-16:20:06.511|56=BVMF2|10=051|
8=FIX.4.4|9=59|35=0|34=233|49=EXECUTOR3|52=20130404-16:20:37.119|56=BVMF2|10=060|
8=FIX.4.4|9=59|35=0|34=233|49=BVMF2|52=20130404-16:20:37.123|56=EXECUTOR3|10=055|
8=FIX.4.4|9=59|35=0|34=234|49=BVMF2|52=20130404-16:21:07.507|56=EXECUTOR3|10=060|
8=FIX.4.4|9=59|35=0|34=234|49=EXECUTOR3|52=20130404-16:21:07.510|56=BVMF2|10=054|
8=FIX.4.4|9=59|35=0|34=235|49=EXECUTOR3|52=20130404-16:21:38.116|56=BVMF2|10=061|
8=FIX.4.4|9=59|35=0|34=235|49=BVMF2|52=20130404-16:21:38.119|56=EXECUTOR3|10=064|
8=FIX.4.4|9=59|35=0|34=236|49=BVMF2|52=20130404-16:22:08.504|56=EXECUTOR3|10=061|
8=FIX.4.4|9=59|35=0|34=236|49=EXECUTOR3|52=20130404-16:22:08.506|56=BVMF2|10=063|
8=FIX.4.4|9=59|35=0|34=237|49=EXECUTOR3|52=20130404-16:22:39.114|56=BVMF2|10=063|
8=FIX.4.4|9=59|35=0|34=237|49=BVMF2|52=20130404-16:22:39.117|56=EXECUTOR3|10=066|
8=FIX.4.4|9=59|35=0|34=238|49=BVMF2|52=20130404-16:23:09.502|56=EXECUTOR3|10=063|
8=FIX.4.4|9=59|35=0|34=238|49=EXECUTOR3|52=20130404-16:23:09.504|56=BVMF2|10=065|
8=FIX.4.4|9=59|35=0|34=239|49=EXECUTOR3|52=20130404-16:23:40.111|56=BVMF2|10=055|
8=FIX.4.4|9=59|35=0|34=239|49=BVMF2|52=20130404-16:23:40.114|56=EXECUTOR3|10=058|
8=FIX.4.4|9=59|35=0|34=240|49=BVMF2|52=20130404-16:24:10.499|56=EXECUTOR3|10=064|
8=FIX.4.4|9=59|35=0|34=240|49=EXECUTOR3|52=20130404-16:24:10.501|56=BVMF2|10=048|
8=FIX.4.4|9=59|35=0|34=241|49=EXECUTOR3|52=20130404-16:24:41.109|56=BVMF2|10=057|
8=FIX.4.4|9=59|35=0|34=241|49=BVMF2|52=20130404-16:24:41.112|56=EXECUTOR3|10=051|
8=FIX.4.4|9=59|35=0|34=242|49=BVMF2|52=20130404-16:25:11.497|56=EXECUTOR3|10=066|
8=FIX.4.4|9=59|35=0|34=242|49=EXECUTOR3|52=20130404-16:25:11.499|56=BVMF2|10=068|
8=FIX.4.4|9=59|35=0|34=243|49=EXECUTOR3|52=20130404-16:25:42.106|56=BVMF2|10=058|
8=FIX.4.4|9=59|35=0|34=243|49=BVMF2|52=20130404-16:25:42.109|56=EXECUTOR3|10=061|
8=FIX.4.4|9=59|35=0|34=244|49=BVMF2|52=20130404-16:26:12.494|56=EXECUTOR3|10=067|
8=FIX.4.4|9=59|35=0|34=244|49=EXECUTOR3|52=20130404-16:26:12.497|56=BVMF2|10=070|
8=FIX.4.4|9=59|35=0|34=245|49=EXECUTOR3|52=20130404-16:26:43.104|56=BVMF2|10=060|
8=FIX.4.4|9=59|35=0|34=245|49=BVMF2|52=20130404-16:26:43.107|56=EXECUTOR3|10=063|
8=FIX.4.4|9=59|35=0|34=246|49=BVMF2|52=20130404-16:27:13.492|56=EXECUTOR3|10=069|
8=FIX.4.4|9=59|35=0|34=246|49=EXECUTOR3|52=20130404-16:27:13.494|56=BVMF2|10=071|
8=FIX.4.4|9=59|35=0|34=247|49=EXECUTOR3|52=20130404-16:27:44.101|56=BVMF2|10=061|
8=FIX.4.4|9=59|35=0|34=247|49=BVMF2|52=20130404-16:27:44.104|56=EXECUTOR3|10=064|
8=FIX.4.4|9=59|35=0|34=248|49=BVMF2|52=20130404-16:28:14.489|56=EXECUTOR3|10=079|
8=FIX.4.4|9=59|35=0|34=248|49=EXECUTOR3|52=20130404-16:28:14.491|56=BVMF2|10=072|
8=FIX.4.4|9=59|35=0|34=249|49=EXECUTOR3|52=20130404-16:28:45.099|56=BVMF2|10=081|
8=FIX.4.4|9=59|35=0|34=249|49=BVMF2|52=20130404-16:28:45.102|56=EXECUTOR3|10=066|
8=FIX.4.4|9=59|35=0|34=250|49=BVMF2|52=20130404-16:29:15.487|56=EXECUTOR3|10=072|
8=FIX.4.4|9=59|35=0|34=250|49=EXECUTOR3|52=20130404-16:29:15.489|56=BVMF2|10=074|
8=FIX.4.4|9=59|35=0|34=251|49=EXECUTOR3|52=20130404-16:29:46.096|56=BVMF2|10=073|
8=FIX.4.4|9=59|35=0|34=251|49=BVMF2|52=20130404-16:29:46.098|56=EXECUTOR3|10=075|
8=FIX.4.4|9=59|35=0|34=252|49=BVMF2|52=20130404-16:30:16.484|56=EXECUTOR3|10=064|
8=FIX.4.4|9=59|35=0|34=252|49=EXECUTOR3|52=20130404-16:30:16.486|56=BVMF2|10=066|
8=FIX.4.4|9=59|35=0|34=253|49=EXECUTOR3|52=20130404-16:30:47.094|56=BVMF2|10=066|
8=FIX.4.4|9=59|35=0|34=253|49=BVMF2|52=20130404-16:30:47.097|56=EXECUTOR3|10=069|
8=FIX.4.4|9=59|35=0|34=254|49=BVMF2|52=20130404-16:31:17.482|56=EXECUTOR3|10=066|
8=FIX.4.4|9=59|35=0|34=254|49=EXECUTOR3|52=20130404-16:31:17.484|56=BVMF2|10=068|
8=FIX.4.4|9=59|35=0|34=255|49=EXECUTOR3|52=20130404-16:31:48.091|56=BVMF2|10=067|
8=FIX.4.4|9=59|35=0|34=255|49=BVMF2|52=20130404-16:31:48.094|56=EXECUTOR3|10=070|
8=FIX.4.4|9=59|35=0|34=256|49=BVMF2|52=20130404-16:32:18.479|56=EXECUTOR3|10=076|
8=FIX.4.4|9=59|35=0|34=256|49=EXECUTOR3|52=20130404-16:32:18.481|56=BVMF2|10=069|
8=FIX.4.4|9=59|35=0|34=257|49=EXECUTOR3|52=20130404-16:32:49.089|56=BVMF2|10=078|
8=FIX.4.4|9=59|35=0|34=257|49=BVMF2|52=20130404-16:32:49.092|56=EXECUTOR3|10=072|
8=FIX.4.4|9=59|35=0|34=258|49=BVMF2|52=20130404-16:33:19.476|56=EXECUTOR3|10=077|
8=FIX.4.4|9=59|35=0|34=258|49=EXECUTOR3|52=20130404-16:33:19.477|56=BVMF2|10=078|
8=FIX.4.4|9=59|35=0|34=259|49=EXECUTOR3|52=20130404-16:33:50.086|56=BVMF2|10=070|
8=FIX.4.4|9=59|35=0|34=259|49=BVMF2|52=20130404-16:33:50.087|56=EXECUTOR3|10=071|
8=FIX.4.4|9=59|35=0|34=260|49=BVMF2|52=20130404-16:34:20.474|56=EXECUTOR3|10=061|
8=FIX.4.4|9=59|35=0|34=260|49=EXECUTOR3|52=20130404-16:34:20.476|56=BVMF2|10=063|
8=FIX.4.4|9=59|35=0|34=261|49=EXECUTOR3|52=20130404-16:34:51.084|56=BVMF2|10=063|
8=FIX.4.4|9=59|35=0|34=261|49=BVMF2|52=20130404-16:34:51.087|56=EXECUTOR3|10=066|
8=FIX.4.4|9=59|35=0|34=262|49=BVMF2|52=20130404-16:35:21.472|56=EXECUTOR3|10=063|
8=FIX.4.4|9=59|35=0|34=262|49=EXECUTOR3|52=20130404-16:35:21.475|56=BVMF2|10=066|
8=FIX.4.4|9=59|35=0|34=263|49=EXECUTOR3|52=20130404-16:35:52.081|56=BVMF2|10=064|
8=FIX.4.4|9=59|35=0|34=263|49=BVMF2|52=20130404-16:35:52.083|56=EXECUTOR3|10=066|
8=FIX.4.4|9=59|35=0|34=264|49=BVMF2|52=20130404-16:36:22.469|56=EXECUTOR3|10=073|
8=FIX.4.4|9=59|35=0|34=264|49=EXECUTOR3|52=20130404-16:36:22.471|56=BVMF2|10=066|
8=FIX.4.4|9=59|35=0|34=265|49=EXECUTOR3|52=20130404-16:36:53.079|56=BVMF2|10=075|
8=FIX.4.4|9=59|35=0|34=265|49=BVMF2|52=20130404-16:36:53.082|56=EXECUTOR3|10=069|
8=FIX.4.4|9=59|35=0|34=266|49=BVMF2|52=20130404-16:37:23.467|56=EXECUTOR3|10=075|
8=FIX.4.4|9=59|35=0|34=266|49=EXECUTOR3|52=20130404-16:37:23.469|56=BVMF2|10=077|
8=FIX.4.4|9=59|35=0|34=267|49=EXECUTOR3|52=20130404-16:37:54.076|56=BVMF2|10=076|
8=FIX.4.4|9=59|35=0|34=267|49=BVMF2|52=20130404-16:37:54.079|56=EXECUTOR3|10=079|
8=FIX.4.4|9=59|35=0|34=268|49=BVMF2|52=20130404-16:38:24.464|56=EXECUTOR3|10=076|
8=FIX.4.4|9=59|35=0|34=268|49=EXECUTOR3|52=20130404-16:38:24.466|56=BVMF2|10=078|
8=FIX.4.4|9=59|35=0|34=269|49=EXECUTOR3|52=20130404-16:38:55.074|56=BVMF2|10=078|
8=FIX.4.4|9=59|35=0|34=269|49=BVMF2|52=20130404-16:38:55.077|56=EXECUTOR3|10=081|
8=FIX.4.4|9=59|35=0|34=270|49=BVMF2|52=20130404-16:39:25.461|56=EXECUTOR3|10=068|
8=FIX.4.4|9=59|35=0|34=270|49=EXECUTOR3|52=20130404-16:39:25.463|56=BVMF2|10=070|
8=FIX.4.4|9=59|35=0|34=271|49=EXECUTOR3|52=20130404-16:39:56.071|56=BVMF2|10=070|
8=FIX.4.4|9=59|35=0|34=271|49=BVMF2|52=20130404-16:39:56.073|56=EXECUTOR3|10=072|
8=FIX.4.4|9=59|35=0|34=272|49=BVMF2|52=20130404-16:40:26.459|56=EXECUTOR3|10=070|
8=FIX.4.4|9=59|35=0|34=272|49=EXECUTOR3|52=20130404-16:40:26.461|56=BVMF2|10=063|
8=FIX.4.4|9=59|35=0|34=273|49=EXECUTOR3|52=20130404-16:40:57.069|56=BVMF2|10=072|
8=FIX.4.4|9=59|35=0|34=273|49=BVMF2|52=20130404-16:40:57.072|56=EXECUTOR3|10=066|
8=FIX.4.4|9=59|35=0|34=274|49=BVMF2|52=20130404-16:41:27.457|56=EXECUTOR3|10=072|
8=FIX.4.4|9=59|35=0|34=274|49=EXECUTOR3|52=20130404-16:41:27.460|56=BVMF2|10=066|
8=FIX.4.4|9=59|35=0|34=275|49=EXECUTOR3|52=20130404-16:41:58.066|56=BVMF2|10=073|
8=FIX.4.4|9=59|35=0|34=275|49=BVMF2|52=20130404-16:41:58.069|56=EXECUTOR3|10=076|
8=FIX.4.4|9=59|35=0|34=276|49=BVMF2|52=20130404-16:42:28.454|56=EXECUTOR3|10=073|
8=FIX.4.4|9=59|35=0|34=276|49=EXECUTOR3|52=20130404-16:42:28.456|56=BVMF2|10=075|
8=FIX.4.4|9=59|35=0|34=277|49=EXECUTOR3|52=20130404-16:42:59.064|56=BVMF2|10=075|
8=FIX.4.4|9=59|35=0|34=277|49=BVMF2|52=20130404-16:42:59.067|56=EXECUTOR3|10=078|
8=FIX.4.4|9=59|35=0|34=278|49=BVMF2|52=20130404-16:43:29.452|56=EXECUTOR3|10=075|
8=FIX.4.4|9=59|35=0|34=278|49=EXECUTOR3|52=20130404-16:43:29.454|56=BVMF2|10=077|
8=FIX.4.4|9=59|35=0|34=279|49=EXECUTOR3|52=20130404-16:44:00.061|56=BVMF2|10=062|
8=FIX.4.4|9=59|35=0|34=279|49=BVMF2|52=20130404-16:44:00.064|56=EXECUTOR3|10=065|
8=FIX.4.4|9=59|35=0|34=280|49=BVMF2|52=20130404-16:44:30.449|56=EXECUTOR3|10=067|
8=FIX.4.4|9=59|35=0|34=280|49=EXECUTOR3|52=20130404-16:44:30.451|56=BVMF2|10=060|
8=FIX.4.4|9=59|35=0|34=281|49=EXECUTOR3|52=20130404-16:45:01.059|56=BVMF2|10=064|
8=FIX.4.4|9=59|35=0|34=281|49=BVMF2|52=20130404-16:45:01.062|56=EXECUTOR3|10=058|
8=FIX.4.4|9=59|35=0|34=282|49=BVMF2|52=20130404-16:45:31.447|56=EXECUTOR3|10=069|
8=FIX.4.4|9=59|35=0|34=282|49=EXECUTOR3|52=20130404-16:45:31.449|56=BVMF2|10=071|
8=FIX.4.4|9=59|35=0|34=283|49=EXECUTOR3|52=20130404-16:46:02.056|56=BVMF2|10=065|
8=FIX.4.4|9=59|35=0|34=283|49=BVMF2|52=20130404-16:46:02.059|56=EXECUTOR3|10=068|
8=FIX.4.4|9=59|35=0|34=284|49=BVMF2|52=20130404-16:46:32.444|56=EXECUTOR3|10=070|
8=FIX.4.4|9=59|35=0|34=284|49=EXECUTOR3|52=20130404-16:46:32.446|56=BVMF2|10=072|
8=FIX.4.4|9=59|35=0|34=285|49=EXECUTOR3|52=20130404-16:47:03.054|56=BVMF2|10=067|
8=FIX.4.4|9=59|35=0|34=285|49=BVMF2|52=20130404-16:47:03.057|56=EXECUTOR3|10=070|
8=FIX.4.4|9=59|35=0|34=286|49=BVMF2|52=20130404-16:47:33.441|56=EXECUTOR3|10=071|
8=FIX.4.4|9=59|35=0|34=286|49=EXECUTOR3|52=20130404-16:47:33.442|56=BVMF2|10=072|
8=FIX.4.4|9=59|35=0|34=287|49=EXECUTOR3|52=20130404-16:48:04.051|56=BVMF2|10=068|
8=FIX.4.4|9=59|35=0|34=287|49=BVMF2|52=20130404-16:48:04.054|56=EXECUTOR3|10=071|
8=FIX.4.4|9=59|35=0|34=288|49=BVMF2|52=20130404-16:48:34.438|56=EXECUTOR3|10=081|
8=FIX.4.4|9=59|35=0|34=288|49=EXECUTOR3|52=20130404-16:48:34.439|56=BVMF2|10=082|
8=FIX.4.4|9=59|35=0|34=289|49=EXECUTOR3|52=20130404-16:49:05.049|56=BVMF2|10=079|
8=FIX.4.4|9=59|35=0|34=289|49=BVMF2|52=20130404-16:49:05.052|56=EXECUTOR3|10=073|
8=FIX.4.4|9=59|35=0|34=290|49=BVMF2|52=20130404-16:49:35.436|56=EXECUTOR3|10=074|
8=FIX.4.4|9=59|35=0|34=290|49=EXECUTOR3|52=20130404-16:49:35.437|56=BVMF2|10=075|
8=FIX.4.4|9=59|35=0|34=291|49=EXECUTOR3|52=20130404-16:50:06.046|56=BVMF2|10=062|
8=FIX.4.4|9=59|35=0|34=291|49=BVMF2|52=20130404-16:50:06.049|56=EXECUTOR3|10=065|
8=FIX.4.4|9=59|35=0|34=292|49=BVMF2|52=20130404-16:50:36.434|56=EXECUTOR3|10=067|
8=FIX.4.4|9=59|35=0|34=292|49=EXECUTOR3|52=20130404-16:50:36.436|56=BVMF2|10=069|
8=FIX.4.4|9=59|35=0|34=293|49=EXECUTOR3|52=20130404-16:51:07.044|56=BVMF2|10=064|
8=FIX.4.4|9=59|35=0|34=293|49=BVMF2|52=20130404-16:51:07.046|56=EXECUTOR3|10=066|
8=FIX.4.4|9=59|35=0|34=294|49=BVMF2|52=20130404-16:51:37.432|56=EXECUTOR3|10=069|
8=FIX.4.4|9=59|35=0|34=294|49=EXECUTOR3|52=20130404-16:51:37.438|56=BVMF2|10=075|
8=FIX.4.4|9=59|35=0|34=295|49=EXECUTOR3|52=20130404-16:52:08.041|56=BVMF2|10=065|
8=FIX.4.4|9=59|35=0|34=295|49=BVMF2|52=20130404-16:52:08.042|56=EXECUTOR3|10=066|
8=FIX.4.4|9=59|35=0|34=296|49=BVMF2|52=20130404-16:52:38.429|56=EXECUTOR3|10=079|
8=FIX.4.4|9=59|35=0|34=296|49=EXECUTOR3|52=20130404-16:52:38.432|56=BVMF2|10=073|
8=FIX.4.4|9=59|35=0|34=297|49=EXECUTOR3|52=20130404-16:53:09.039|56=BVMF2|10=076|
8=FIX.4.4|9=59|35=0|34=297|49=BVMF2|52=20130404-16:53:09.042|56=EXECUTOR3|10=070|
8=FIX.4.4|9=59|35=0|34=298|49=BVMF2|52=20130404-16:53:39.427|56=EXECUTOR3|10=081|
8=FIX.4.4|9=59|35=0|34=298|49=EXECUTOR3|52=20130404-16:53:39.429|56=BVMF2|10=083|
8=FIX.4.4|9=59|35=0|34=299|49=EXECUTOR3|52=20130404-16:54:10.036|56=BVMF2|10=068|
8=FIX.4.4|9=59|35=0|34=299|49=BVMF2|52=20130404-16:54:10.039|56=EXECUTOR3|10=071|
8=FIX.4.4|9=59|35=0|34=300|49=BVMF2|52=20130404-16:54:40.424|56=EXECUTOR3|10=055|
8=FIX.4.4|9=59|35=0|34=300|49=EXECUTOR3|52=20130404-16:54:40.426|56=BVMF2|10=057|
8=FIX.4.4|9=59|35=0|34=301|49=EXECUTOR3|52=20130404-16:55:11.034|56=BVMF2|10=052|
8=FIX.4.4|9=59|35=0|34=301|49=BVMF2|52=20130404-16:55:11.035|56=EXECUTOR3|10=053|
8=FIX.4.4|9=59|35=0|34=302|49=BVMF2|52=20130404-16:55:41.422|56=EXECUTOR3|10=057|
8=FIX.4.4|9=59|35=0|34=302|49=EXECUTOR3|52=20130404-16:55:41.425|56=BVMF2|10=060|
8=FIX.4.4|9=59|35=0|34=303|49=EXECUTOR3|52=20130404-16:56:12.031|56=BVMF2|10=053|
8=FIX.4.4|9=59|35=0|34=303|49=BVMF2|52=20130404-16:56:12.032|56=EXECUTOR3|10=054|
8=FIX.4.4|9=59|35=0|34=304|49=BVMF2|52=20130404-16:56:42.419|56=EXECUTOR3|10=067|
8=FIX.4.4|9=59|35=0|34=304|49=EXECUTOR3|52=20130404-16:56:42.421|56=BVMF2|10=060|
8=FIX.4.4|9=59|35=0|34=305|49=EXECUTOR3|52=20130404-16:57:13.029|56=BVMF2|10=064|
8=FIX.4.4|9=59|35=0|34=305|49=BVMF2|52=20130404-16:57:13.032|56=EXECUTOR3|10=058|
8=FIX.4.4|9=59|35=0|34=306|49=BVMF2|52=20130404-16:57:43.417|56=EXECUTOR3|10=069|
8=FIX.4.4|9=59|35=0|34=306|49=EXECUTOR3|52=20130404-16:57:43.419|56=BVMF2|10=071|
8=FIX.4.4|9=59|35=0|34=307|49=EXECUTOR3|52=20130404-16:58:14.026|56=BVMF2|10=065|
8=FIX.4.4|9=59|35=0|34=307|49=BVMF2|52=20130404-16:58:14.028|56=EXECUTOR3|10=067|
8=FIX.4.4|9=59|35=0|34=308|49=BVMF2|52=20130404-16:58:44.414|56=EXECUTOR3|10=070|
8=FIX.4.4|9=59|35=0|34=308|49=EXECUTOR3|52=20130404-16:58:44.416|56=BVMF2|10=072|
8=FIX.4.4|9=59|35=0|34=309|49=EXECUTOR3|52=20130404-16:59:15.024|56=BVMF2|10=067|
8=FIX.4.4|9=59|35=0|34=309|49=BVMF2|52=20130404-16:59:15.027|56=EXECUTOR3|10=070|
8=FIX.4.4|9=59|35=0|34=310|49=BVMF2|52=20130404-16:59:45.412|56=EXECUTOR3|10=063|
8=FIX.4.4|9=59|35=0|34=310|49=EXECUTOR3|52=20130404-16:59:45.414|56=BVMF2|10=065|
8=FIX.4.4|9=59|35=0|34=311|49=EXECUTOR3|52=20130404-17:00:16.021|56=BVMF2|10=045|
8=FIX.4.4|9=59|35=0|34=311|49=BVMF2|52=20130404-17:00:16.023|56=EXECUTOR3|10=047|
8=FIX.4.4|9=59|35=0|34=312|49=BVMF2|52=20130404-17:00:46.409|56=EXECUTOR3|10=059|
8=FIX.4.4|9=59|35=0|34=312|49=EXECUTOR3|52=20130404-17:00:46.411|56=BVMF2|10=052|
8=FIX.4.4|9=59|35=0|34=313|49=EXECUTOR3|52=20130404-17:01:17.019|56=BVMF2|10=056|
8=FIX.4.4|9=59|35=0|34=313|49=BVMF2|52=20130404-17:01:17.020|56=EXECUTOR3|10=048|
8=FIX.4.4|9=59|35=0|34=314|49=BVMF2|52=20130404-17:01:47.407|56=EXECUTOR3|10=061|
8=FIX.4.4|9=59|35=0|34=314|49=EXECUTOR3|52=20130404-17:01:47.409|56=BVMF2|10=063|
8=FIX.4.4|9=59|35=0|34=315|49=EXECUTOR3|52=20130404-17:02:18.016|56=BVMF2|10=057|
8=FIX.4.4|9=59|35=0|34=315|49=BVMF2|52=20130404-17:02:18.019|56=EXECUTOR3|10=060|
8=FIX.4.4|9=59|35=0|34=316|49=BVMF2|52=20130404-17:02:48.404|56=EXECUTOR3|10=062|
8=FIX.4.4|9=59|35=0|34=316|49=EXECUTOR3|52=20130404-17:02:48.406|56=BVMF2|10=064|
8=FIX.4.4|9=59|35=0|34=317|49=EXECUTOR3|52=20130404-17:03:19.014|56=BVMF2|10=059|
8=FIX.4.4|9=59|35=0|34=317|49=BVMF2|52=20130404-17:03:19.016|56=EXECUTOR3|10=061|
8=FIX.4.4|9=59|35=0|34=318|49=BVMF2|52=20130404-17:03:49.402|56=EXECUTOR3|10=064|
8=FIX.4.4|9=59|35=0|34=318|49=EXECUTOR3|52=20130404-17:03:49.404|56=BVMF2|10=066|
8=FIX.4.4|9=59|35=0|34=319|49=EXECUTOR3|52=20130404-17:04:20.011|56=BVMF2|10=051|
8=FIX.4.4|9=59|35=0|34=319|49=BVMF2|52=20130404-17:04:20.014|56=EXECUTOR3|10=054|
8=FIX.4.4|9=59|35=0|34=320|49=BVMF2|52=20130404-17:04:50.398|56=EXECUTOR3|10=064|
8=FIX.4.4|9=59|35=0|34=320|49=EXECUTOR3|52=20130404-17:04:50.399|56=BVMF2|10=065|
8=FIX.4.4|9=59|35=0|34=321|49=EXECUTOR3|52=20130404-17:05:21.009|56=BVMF2|10=053|
8=FIX.4.4|9=59|35=0|34=321|49=BVMF2|52=20130404-17:05:21.011|56=EXECUTOR3|10=046|
8=FIX.4.4|9=59|35=0|34=322|49=BVMF2|52=20130404-17:05:51.397|56=EXECUTOR3|10=067|
8=FIX.4.4|9=59|35=0|34=322|49=EXECUTOR3|52=20130404-17:05:51.399|56=BVMF2|10=069|
8=FIX.4.4|9=59|35=0|34=323|49=EXECUTOR3|52=20130404-17:06:22.006|56=BVMF2|10=054|
8=FIX.4.4|9=59|35=0|34=323|49=BVMF2|52=20130404-17:06:22.007|56=EXECUTOR3|10=055|
8=FIX.4.4|9=59|35=0|34=324|49=BVMF2|52=20130404-17:06:52.393|56=EXECUTOR3|10=067|
8=FIX.4.4|9=59|35=0|34=324|49=EXECUTOR3|52=20130404-17:06:52.395|56=BVMF2|10=069|
8=FIX.4.4|9=59|35=0|34=325|49=EXECUTOR3|52=20130404-17:07:23.004|56=BVMF2|10=056|
8=FIX.4.4|9=59|35=0|34=325|49=BVMF2|52=20130404-17:07:23.007|56=EXECUTOR3|10=059|
8=FIX.4.4|9=59|35=0|34=326|49=BVMF2|52=20130404-17:07:53.392|56=EXECUTOR3|10=070|
8=FIX.4.4|9=59|35=0|34=326|49=EXECUTOR3|52=20130404-17:07:53.394|56=BVMF2|10=072|
8=FIX.4.4|9=59|35=0|34=327|49=EXECUTOR3|52=20130404-17:08:24.001|56=BVMF2|10=057|
8=FIX.4.4|9=59|35=0|34=327|49=BVMF2|52=20130404-17:08:24.004|56=EXECUTOR3|10=060|
8=FIX.4.4|9=59|35=0|34=328|49=BVMF2|52=20130404-17:08:54.389|56=EXECUTOR3|10=080|
8=FIX.4.4|9=59|35=0|34=328|49=EXECUTOR3|52=20130404-17:08:54.391|56=BVMF2|10=073|
8=FIX.4.4|9=59|35=0|34=329|49=EXECUTOR3|52=20130404-17:09:24.999|56=BVMF2|10=086|
8=FIX.4.4|9=59|35=0|34=329|49=BVMF2|52=20130404-17:09:25.002|56=EXECUTOR3|10=062|
8=FIX.4.4|9=59|35=0|34=330|49=BVMF2|52=20130404-17:09:55.387|56=EXECUTOR3|10=073|
8=FIX.4.4|9=59|35=0|34=330|49=EXECUTOR3|52=20130404-17:09:55.389|56=BVMF2|10=075|
8=FIX.4.4|9=59|35=0|34=331|49=EXECUTOR3|52=20130404-17:10:25.996|56=BVMF2|10=069|
8=FIX.4.4|9=59|35=0|34=331|49=BVMF2|52=20130404-17:10:25.998|56=EXECUTOR3|10=071|
8=FIX.4.4|9=59|35=0|34=332|49=BVMF2|52=20130404-17:10:56.384|56=EXECUTOR3|10=065|
8=FIX.4.4|9=59|35=0|34=332|49=EXECUTOR3|52=20130404-17:10:56.386|56=BVMF2|10=067|
8=FIX.4.4|9=59|35=0|34=333|49=EXECUTOR3|52=20130404-17:11:26.994|56=BVMF2|10=071|
8=FIX.4.4|9=59|35=0|34=333|49=BVMF2|52=20130404-17:11:26.997|56=EXECUTOR3|10=074|
8=FIX.4.4|9=59|35=0|34=334|49=BVMF2|52=20130404-17:11:57.382|56=EXECUTOR3|10=067|
8=FIX.4.4|9=59|35=0|34=334|49=EXECUTOR3|52=20130404-17:11:57.384|56=BVMF2|10=069|
8=FIX.4.4|9=59|35=0|34=335|49=EXECUTOR3|52=20130404-17:12:27.991|56=BVMF2|10=072|
8=FIX.4.4|9=59|35=0|34=335|49=BVMF2|52=20130404-17:12:27.994|56=EXECUTOR3|10=075|
8=FIX.4.4|9=59|35=0|34=336|49=BVMF2|52=20130404-17:12:58.379|56=EXECUTOR3|10=077|
8=FIX.4.4|9=59|35=0|34=336|49=EXECUTOR3|52=20130404-17:12:58.382|56=BVMF2|10=071|
8=FIX.4.4|9=59|35=0|34=337|49=EXECUTOR3|52=20130404-17:13:28.989|56=BVMF2|10=083|
8=FIX.4.4|9=59|35=0|34=337|49=BVMF2|52=20130404-17:13:28.991|56=EXECUTOR3|10=076|
8=FIX.4.4|9=59|35=0|34=338|49=BVMF2|52=20130404-17:13:59.377|56=EXECUTOR3|10=079|
8=FIX.4.4|9=59|35=0|34=338|49=EXECUTOR3|52=20130404-17:13:59.378|56=BVMF2|10=080|
8=FIX.4.4|9=59|35=0|34=339|49=EXECUTOR3|52=20130404-17:14:29.986|56=BVMF2|10=084|
8=FIX.4.4|9=59|35=0|34=339|49=BVMF2|52=20130404-17:14:29.989|56=EXECUTOR3|10=087|
8=FIX.4.4|9=59|35=0|34=340|49=BVMF2|52=20130404-17:15:00.374|56=EXECUTOR3|10=057|
8=FIX.4.4|9=59|35=0|34=340|49=EXECUTOR3|52=20130404-17:15:00.376|56=BVMF2|10=059|
8=FIX.4.4|9=59|35=0|34=341|49=EXECUTOR3|52=20130404-17:15:30.984|56=BVMF2|10=068|
8=FIX.4.4|9=59|35=0|34=341|49=BVMF2|52=20130404-17:15:30.987|56=EXECUTOR3|10=071|
8=FIX.4.4|9=59|35=0|34=342|49=BVMF2|52=20130404-17:16:01.372|56=EXECUTOR3|10=059|
8=FIX.4.4|9=59|35=0|34=342|49=EXECUTOR3|52=20130404-17:16:01.375|56=BVMF2|10=062|
8=FIX.4.4|9=59|35=0|34=343|49=EXECUTOR3|52=20130404-17:16:31.981|56=BVMF2|10=069|
8=FIX.4.4|9=59|35=0|34=343|49=BVMF2|52=20130404-17:16:31.984|56=EXECUTOR3|10=072|
8=FIX.4.4|9=59|35=0|34=344|49=BVMF2|52=20130404-17:17:02.369|56=EXECUTOR3|10=069|
8=FIX.4.4|9=59|35=0|34=344|49=EXECUTOR3|52=20130404-17:17:02.373|56=BVMF2|10=064|
8=FIX.4.4|9=59|35=0|34=345|49=EXECUTOR3|52=20130404-17:17:32.979|56=BVMF2|10=080|
8=FIX.4.4|9=59|35=0|34=345|49=BVMF2|52=20130404-17:17:32.982|56=EXECUTOR3|10=074|
8=FIX.4.4|9=59|35=0|34=346|49=BVMF2|52=20130404-17:18:03.367|56=EXECUTOR3|10=071|
8=FIX.4.4|9=59|35=0|34=346|49=EXECUTOR3|52=20130404-17:18:03.368|56=BVMF2|10=072|
8=FIX.4.4|9=59|35=0|34=347|49=EXECUTOR3|52=20130404-17:18:33.976|56=BVMF2|10=081|
8=FIX.4.4|9=59|35=0|34=347|49=BVMF2|52=20130404-17:18:33.979|56=EXECUTOR3|10=084|
8=FIX.4.4|9=59|35=0|34=348|49=BVMF2|52=20130404-17:19:04.364|56=EXECUTOR3|10=072|
8=FIX.4.4|9=59|35=0|34=348|49=EXECUTOR3|52=20130404-17:19:04.366|56=BVMF2|10=074|
8=FIX.4.4|9=59|35=0|34=349|49=EXECUTOR3|52=20130404-17:19:34.974|56=BVMF2|10=083|
8=FIX.4.4|9=59|35=0|34=349|49=BVMF2|52=20130404-17:19:34.975|56=EXECUTOR3|10=084|
8=FIX.4.4|9=59|35=0|34=350|49=BVMF2|52=20130404-17:20:05.362|56=EXECUTOR3|10=056|
8=FIX.4.4|9=59|35=0|34=350|49=EXECUTOR3|52=20130404-17:20:05.364|56=BVMF2|10=058|
8=FIX.4.4|9=59|35=0|34=351|49=EXECUTOR3|52=20130404-17:20:35.971|56=BVMF2|10=066|
8=FIX.4.4|9=59|35=0|34=351|49=BVMF2|52=20130404-17:20:35.973|56=EXECUTOR3|10=068|
8=FIX.4.4|9=59|35=0|34=352|49=BVMF2|52=20130404-17:21:06.359|56=EXECUTOR3|10=066|
8=FIX.4.4|9=59|35=0|34=352|49=EXECUTOR3|52=20130404-17:21:06.361|56=BVMF2|10=059|
8=FIX.4.4|9=59|35=0|34=353|49=EXECUTOR3|52=20130404-17:21:36.995|56=BVMF2|10=076|
8=FIX.4.4|9=59|35=0|34=353|49=BVMF2|52=20130404-17:21:36.997|56=EXECUTOR3|10=078|
8=FIX.4.4|9=59|35=0|34=354|49=BVMF2|52=20130404-17:22:07.357|56=EXECUTOR3|10=068|
8=FIX.4.4|9=59|35=0|34=354|49=EXECUTOR3|52=20130404-17:22:07.359|56=BVMF2|10=070|
8=FIX.4.4|9=59|35=0|34=355|49=EXECUTOR3|52=20130404-17:22:37.966|56=BVMF2|10=078|
8=FIX.4.4|9=59|35=0|34=355|49=BVMF2|52=20130404-17:22:37.968|56=EXECUTOR3|10=080|
8=FIX.4.4|9=59|35=0|34=356|49=BVMF2|52=20130404-17:23:08.354|56=EXECUTOR3|10=069|
8=FIX.4.4|9=59|35=0|34=356|49=EXECUTOR3|52=20130404-17:23:08.356|56=BVMF2|10=071|
8=FIX.4.4|9=59|35=0|34=357|49=EXECUTOR3|52=20130404-17:23:38.964|56=BVMF2|10=080|
8=FIX.4.4|9=59|35=0|34=357|49=BVMF2|52=20130404-17:23:38.966|56=EXECUTOR3|10=082|
8=FIX.4.4|9=59|35=0|34=358|49=BVMF2|52=20130404-17:24:09.352|56=EXECUTOR3|10=071|
8=FIX.4.4|9=59|35=0|34=358|49=EXECUTOR3|52=20130404-17:24:09.355|56=BVMF2|10=074|
8=FIX.4.4|9=59|35=0|34=359|49=EXECUTOR3|52=20130404-17:24:39.961|56=BVMF2|10=081|
8=FIX.4.4|9=59|35=0|34=359|49=BVMF2|52=20130404-17:24:39.962|56=EXECUTOR3|10=082|
8=FIX.4.4|9=59|35=0|34=360|49=BVMF2|52=20130404-17:25:10.348|56=EXECUTOR3|10=062|
8=FIX.4.4|9=59|35=0|34=360|49=EXECUTOR3|52=20130404-17:25:10.350|56=BVMF2|10=055|
8=FIX.4.4|9=59|35=0|34=361|49=EXECUTOR3|52=20130404-17:25:40.959|56=BVMF2|10=074|
8=FIX.4.4|9=59|35=0|34=361|49=BVMF2|52=20130404-17:25:40.960|56=EXECUTOR3|10=066|
8=FIX.4.4|9=59|35=0|34=362|49=BVMF2|52=20130404-17:26:11.348|56=EXECUTOR3|10=066|
8=FIX.4.4|9=59|35=0|34=362|49=EXECUTOR3|52=20130404-17:26:11.349|56=BVMF2|10=067|
8=FIX.4.4|9=59|35=0|34=363|49=EXECUTOR3|52=20130404-17:26:41.956|56=BVMF2|10=075|
8=FIX.4.4|9=59|35=0|34=363|49=BVMF2|52=20130404-17:26:42.000|56=EXECUTOR3|10=056|
8=FIX.4.4|9=59|35=0|34=364|49=BVMF2|52=20130404-17:27:12.343|56=EXECUTOR3|10=065|
8=FIX.4.4|9=59|35=0|34=364|49=EXECUTOR3|52=20130404-17:27:12.344|56=BVMF2|10=066|
8=FIX.4.4|9=59|35=0|34=365|49=EXECUTOR3|52=20130404-17:27:42.954|56=BVMF2|10=077|
8=FIX.4.4|9=59|35=0|34=365|49=BVMF2|52=20130404-17:27:42.957|56=EXECUTOR3|10=080|
8=FIX.4.4|9=59|35=0|34=366|49=BVMF2|52=20130404-17:28:13.342|56=EXECUTOR3|10=068|
8=FIX.4.4|9=59|35=0|34=366|49=EXECUTOR3|52=20130404-17:28:13.344|56=BVMF2|10=070|
8=FIX.4.4|9=59|35=0|34=367|49=EXECUTOR3|52=20130404-17:28:43.951|56=BVMF2|10=078|
8=FIX.4.4|9=59|35=0|34=367|49=BVMF2|52=20130404-17:28:43.954|56=EXECUTOR3|10=081|
8=FIX.4.4|9=59|35=0|34=368|49=BVMF2|52=20130404-17:29:14.339|56=EXECUTOR3|10=078|
8=FIX.4.4|9=59|35=0|34=368|49=EXECUTOR3|52=20130404-17:29:14.341|56=BVMF2|10=071|
8=FIX.4.4|9=59|35=0|34=369|49=EXECUTOR3|52=20130404-17:29:44.949|56=BVMF2|10=089|
8=FIX.4.4|9=59|35=0|34=369|49=BVMF2|52=20130404-17:29:44.951|56=EXECUTOR3|10=082|
8=FIX.4.4|9=59|35=0|34=370|49=BVMF2|52=20130404-17:30:15.337|56=EXECUTOR3|10=062|
8=FIX.4.4|9=59|35=0|34=370|49=EXECUTOR3|52=20130404-17:30:15.339|56=BVMF2|10=064|
8=FIX.4.4|9=59|35=0|34=371|49=EXECUTOR3|52=20130404-17:30:45.946|56=BVMF2|10=072|
8=FIX.4.4|9=59|35=0|34=371|49=BVMF2|52=20130404-17:30:45.949|56=EXECUTOR3|10=075|
8=FIX.4.4|9=59|35=0|34=372|49=BVMF2|52=20130404-17:31:16.334|56=EXECUTOR3|10=063|
8=FIX.4.4|9=59|35=0|34=372|49=EXECUTOR3|52=20130404-17:31:16.336|56=BVMF2|10=065|
8=FIX.4.4|9=59|35=0|34=373|49=EXECUTOR3|52=20130404-17:31:46.944|56=BVMF2|10=074|
8=FIX.4.4|9=59|35=0|34=373|49=BVMF2|52=20130404-17:31:46.947|56=EXECUTOR3|10=077|
8=FIX.4.4|9=59|35=0|34=374|49=BVMF2|52=20130404-17:32:17.331|56=EXECUTOR3|10=064|
8=FIX.4.4|9=59|35=0|34=374|49=EXECUTOR3|52=20130404-17:32:17.332|56=BVMF2|10=065|
8=FIX.4.4|9=59|35=0|34=375|49=EXECUTOR3|52=20130404-17:32:47.941|56=BVMF2|10=075|
8=FIX.4.4|9=59|35=0|34=375|49=BVMF2|52=20130404-17:32:47.943|56=EXECUTOR3|10=077|
8=FIX.4.4|9=59|35=0|34=376|49=BVMF2|52=20130404-17:33:18.329|56=EXECUTOR3|10=075|
8=FIX.4.4|9=59|35=0|34=376|49=EXECUTOR3|52=20130404-17:33:18.331|56=BVMF2|10=068|
8=FIX.4.4|9=59|35=0|34=377|49=EXECUTOR3|52=20130404-17:33:48.939|56=BVMF2|10=086|
8=FIX.4.4|9=59|35=0|34=377|49=BVMF2|52=20130404-17:33:48.941|56=EXECUTOR3|10=079|
8=FIX.4.4|9=59|35=0|34=378|49=BVMF2|52=20130404-17:34:19.326|56=EXECUTOR3|10=076|
8=FIX.4.4|9=59|35=0|34=378|49=EXECUTOR3|52=20130404-17:34:19.330|56=BVMF2|10=071|
8=FIX.4.4|9=59|35=0|34=379|49=EXECUTOR3|52=20130404-17:34:49.936|56=BVMF2|10=087|
8=FIX.4.4|9=59|35=0|34=379|49=BVMF2|52=20130404-17:34:49.939|56=EXECUTOR3|10=090|
8=FIX.4.4|9=59|35=0|34=380|49=BVMF2|52=20130404-17:35:20.324|56=EXECUTOR3|10=060|
8=FIX.4.4|9=59|35=0|34=380|49=EXECUTOR3|52=20130404-17:35:20.326|56=BVMF2|10=062|
8=FIX.4.4|9=59|35=0|34=381|49=EXECUTOR3|52=20130404-17:35:50.934|56=BVMF2|10=071|
8=FIX.4.4|9=59|35=0|34=381|49=BVMF2|52=20130404-17:35:50.935|56=EXECUTOR3|10=072|
8=FIX.4.4|9=59|35=0|34=382|49=BVMF2|52=20130404-17:36:21.322|56=EXECUTOR3|10=062|
8=FIX.4.4|9=59|35=0|34=382|49=EXECUTOR3|52=20130404-17:36:21.324|56=BVMF2|10=064|
8=FIX.4.4|9=59|35=0|34=383|49=EXECUTOR3|52=20130404-17:36:51.931|56=BVMF2|10=072|
8=FIX.4.4|9=59|35=0|34=383|49=BVMF2|52=20130404-17:36:51.934|56=EXECUTOR3|10=075|
8=FIX.4.4|9=59|35=0|34=384|49=BVMF2|52=20130404-17:37:22.319|56=EXECUTOR3|10=072|
8=FIX.4.4|9=59|35=0|34=384|49=EXECUTOR3|52=20130404-17:37:22.321|56=BVMF2|10=065|
8=FIX.4.4|9=59|35=0|34=385|49=EXECUTOR3|52=20130404-17:37:52.929|56=BVMF2|10=083|
8=FIX.4.4|9=59|35=0|34=385|49=BVMF2|52=20130404-17:37:52.930|56=EXECUTOR3|10=075|
8=FIX.4.4|9=59|35=0|34=386|49=BVMF2|52=20130404-17:38:23.317|56=EXECUTOR3|10=074|
8=FIX.4.4|9=59|35=0|34=386|49=EXECUTOR3|52=20130404-17:38:23.319|56=BVMF2|10=076|
8=FIX.4.4|9=59|35=0|34=387|49=EXECUTOR3|52=20130404-17:38:53.926|56=BVMF2|10=084|
8=FIX.4.4|9=59|35=0|34=387|49=BVMF2|52=20130404-17:38:53.929|56=EXECUTOR3|10=087|
8=FIX.4.4|9=59|35=0|34=388|49=BVMF2|52=20130404-17:39:24.313|56=EXECUTOR3|10=074|
8=FIX.4.4|9=59|35=0|34=388|49=EXECUTOR3|52=20130404-17:39:24.314|56=BVMF2|10=075|
8=FIX.4.4|9=59|35=0|34=389|49=EXECUTOR3|52=20130404-17:39:54.924|56=BVMF2|10=086|
8=FIX.4.4|9=59|35=0|34=389|49=BVMF2|52=20130404-17:39:54.925|56=EXECUTOR3|10=087|
8=FIX.4.4|9=59|35=0|34=390|49=BVMF2|52=20130404-17:40:25.312|56=EXECUTOR3|10=059|
8=FIX.4.4|9=59|35=0|34=390|49=EXECUTOR3|52=20130404-17:40:25.314|56=BVMF2|10=061|
8=FIX.4.4|9=59|35=0|34=391|49=EXECUTOR3|52=20130404-17:40:55.962|56=BVMF2|10=074|
8=FIX.4.4|9=59|35=0|34=391|49=BVMF2|52=20130404-17:40:55.965|56=EXECUTOR3|10=077|
8=FIX.4.4|9=59|35=0|34=392|49=BVMF2|52=20130404-17:41:26.309|56=EXECUTOR3|10=069|
8=FIX.4.4|9=59|35=0|34=392|49=EXECUTOR3|52=20130404-17:41:26.311|56=BVMF2|10=062|
8=FIX.4.4|9=59|35=0|34=393|49=EXECUTOR3|52=20130404-17:41:56.919|56=BVMF2|10=080|
8=FIX.4.4|9=59|35=0|34=393|49=BVMF2|52=20130404-17:41:56.922|56=EXECUTOR3|10=074|
8=FIX.4.4|9=59|35=0|34=394|49=BVMF2|52=20130404-17:42:27.307|56=EXECUTOR3|10=071|
8=FIX.4.4|9=59|35=0|34=394|49=EXECUTOR3|52=20130404-17:42:27.309|56=BVMF2|10=073|
8=FIX.4.4|9=59|35=0|34=395|49=EXECUTOR3|52=20130404-17:42:57.916|56=BVMF2|10=081|
8=FIX.4.4|9=59|35=0|34=395|49=BVMF2|52=20130404-17:42:57.919|56=EXECUTOR3|10=084|
8=FIX.4.4|9=59|35=0|34=396|49=BVMF2|52=20130404-17:43:28.304|56=EXECUTOR3|10=072|
8=FIX.4.4|9=59|35=0|34=396|49=EXECUTOR3|52=20130404-17:43:28.306|56=BVMF2|10=074|
8=FIX.4.4|9=59|35=0|34=397|49=EXECUTOR3|52=20130404-17:43:58.914|56=BVMF2|10=083|
8=FIX.4.4|9=59|35=0|34=397|49=BVMF2|52=20130404-17:43:58.916|56=EXECUTOR3|10=085|
8=FIX.4.4|9=59|35=0|34=398|49=BVMF2|52=20130404-17:44:29.302|56=EXECUTOR3|10=074|
8=FIX.4.4|9=59|35=0|34=398|49=EXECUTOR3|52=20130404-17:44:29.304|56=BVMF2|10=076|
8=FIX.4.4|9=59|35=0|34=399|49=EXECUTOR3|52=20130404-17:44:59.911|56=BVMF2|10=084|
8=FIX.4.4|9=59|35=0|34=399|49=BVMF2|52=20130404-17:44:59.914|56=EXECUTOR3|10=087|
8=FIX.4.4|9=59|35=0|34=400|49=BVMF2|52=20130404-17:45:30.299|56=EXECUTOR3|10=066|
8=FIX.4.4|9=59|35=0|34=400|49=EXECUTOR3|52=20130404-17:45:30.300|56=BVMF2|10=049|
8=FIX.4.4|9=59|35=0|34=401|49=EXECUTOR3|52=20130404-17:46:00.909|56=BVMF2|10=063|
8=FIX.4.4|9=59|35=0|34=401|49=BVMF2|52=20130404-17:46:00.912|56=EXECUTOR3|10=057|
8=FIX.4.4|9=59|35=0|34=402|49=BVMF2|52=20130404-17:46:31.297|56=EXECUTOR3|10=068|
8=FIX.4.4|9=59|35=0|34=402|49=EXECUTOR3|52=20130404-17:46:31.299|56=BVMF2|10=070|
8=FIX.4.4|9=59|35=0|34=403|49=EXECUTOR3|52=20130404-17:47:01.906|56=BVMF2|10=064|
8=FIX.4.4|9=59|35=0|34=403|49=BVMF2|52=20130404-17:47:01.908|56=EXECUTOR3|10=066|
8=FIX.4.4|9=59|35=0|34=404|49=BVMF2|52=20130404-17:47:32.293|56=EXECUTOR3|10=068|
8=FIX.4.4|9=59|35=0|34=404|49=EXECUTOR3|52=20130404-17:47:32.294|56=BVMF2|10=069|
8=FIX.4.4|9=59|35=0|34=405|49=EXECUTOR3|52=20130404-17:48:02.904|56=BVMF2|10=066|
8=FIX.4.4|9=59|35=0|34=405|49=BVMF2|52=20130404-17:48:02.906|56=EXECUTOR3|10=068|
8=FIX.4.4|9=59|35=0|34=406|49=BVMF2|52=20130404-17:48:33.292|56=EXECUTOR3|10=071|
8=FIX.4.4|9=59|35=0|34=406|49=EXECUTOR3|52=20130404-17:48:33.294|56=BVMF2|10=073|
8=FIX.4.4|9=59|35=0|34=407|49=EXECUTOR3|52=20130404-17:49:03.901|56=BVMF2|10=067|
8=FIX.4.4|9=59|35=0|34=407|49=BVMF2|52=20130404-17:49:03.904|56=EXECUTOR3|10=070|
8=FIX.4.4|9=59|35=0|34=408|49=BVMF2|52=20130404-17:49:34.289|56=EXECUTOR3|10=081|
8=FIX.4.4|9=59|35=0|34=408|49=EXECUTOR3|52=20130404-17:49:34.291|56=BVMF2|10=074|
8=FIX.4.4|9=59|35=0|34=409|49=EXECUTOR3|52=20130404-17:50:04.899|56=BVMF2|10=078|
8=FIX.4.4|9=59|35=0|34=409|49=BVMF2|52=20130404-17:50:04.902|56=EXECUTOR3|10=063|
8=FIX.4.4|9=59|35=0|34=410|49=BVMF2|52=20130404-17:50:35.287|56=EXECUTOR3|10=065|
8=FIX.4.4|9=59|35=0|34=410|49=EXECUTOR3|52=20130404-17:50:35.290|56=BVMF2|10=059|
8=FIX.4.4|9=59|35=0|34=411|49=EXECUTOR3|52=20130404-17:51:05.896|56=BVMF2|10=070|
8=FIX.4.4|9=59|35=0|34=411|49=BVMF2|52=20130404-17:51:05.899|56=EXECUTOR3|10=073|
8=FIX.4.4|9=59|35=0|34=412|49=BVMF2|52=20130404-17:51:36.284|56=EXECUTOR3|10=066|
8=FIX.4.4|9=59|35=0|34=412|49=EXECUTOR3|52=20130404-17:51:36.286|56=BVMF2|10=068|
8=FIX.4.4|9=59|35=0|34=413|49=EXECUTOR3|52=20130404-17:52:06.894|56=BVMF2|10=072|
8=FIX.4.4|9=59|35=0|34=413|49=BVMF2|52=20130404-17:52:06.897|56=EXECUTOR3|10=075|
8=FIX.4.4|9=59|35=0|34=414|49=BVMF2|52=20130404-17:52:37.282|56=EXECUTOR3|10=068|
8=FIX.4.4|9=59|35=0|34=414|49=EXECUTOR3|52=20130404-17:52:37.284|56=BVMF2|10=070|
8=FIX.4.4|9=59|35=0|34=415|49=EXECUTOR3|52=20130404-17:53:07.891|56=BVMF2|10=073|
8=FIX.4.4|9=59|35=0|34=415|49=BVMF2|52=20130404-17:53:07.894|56=EXECUTOR3|10=076|
8=FIX.4.4|9=59|35=0|34=416|49=BVMF2|52=20130404-17:53:38.279|56=EXECUTOR3|10=078|
8=FIX.4.4|9=59|35=0|34=416|49=EXECUTOR3|52=20130404-17:53:38.281|56=BVMF2|10=071|
8=FIX.4.4|9=59|35=0|34=417|49=EXECUTOR3|52=20130404-17:54:08.889|56=BVMF2|10=084|
8=FIX.4.4|9=59|35=0|34=417|49=BVMF2|52=20130404-17:54:08.891|56=EXECUTOR3|10=077|
8=FIX.4.4|9=59|35=0|34=418|49=BVMF2|52=20130404-17:54:39.277|56=EXECUTOR3|10=080|
8=FIX.4.4|9=59|35=0|34=418|49=EXECUTOR3|52=20130404-17:54:39.279|56=BVMF2|10=082|
8=FIX.4.4|9=59|35=0|34=419|49=EXECUTOR3|52=20130404-17:55:09.886|56=BVMF2|10=085|
8=FIX.4.4|9=59|35=0|34=419|49=BVMF2|52=20130404-17:55:09.889|56=EXECUTOR3|10=088|
8=FIX.4.4|9=59|35=0|34=420|49=BVMF2|52=20130404-17:55:40.274|56=EXECUTOR3|10=063|
8=FIX.4.4|9=59|35=0|34=420|49=EXECUTOR3|52=20130404-17:55:40.276|56=BVMF2|10=065|
8=FIX.4.4|9=59|35=0|34=421|49=EXECUTOR3|52=20130404-17:56:10.884|56=BVMF2|10=069|
8=FIX.4.4|9=59|35=0|34=421|49=BVMF2|52=20130404-17:56:10.887|56=EXECUTOR3|10=072|
8=FIX.4.4|9=59|35=0|34=422|49=BVMF2|52=20130404-17:56:41.272|56=EXECUTOR3|10=065|
8=FIX.4.4|9=59|35=0|34=422|49=EXECUTOR3|52=20130404-17:56:41.274|56=BVMF2|10=067|
8=FIX.4.4|9=59|35=0|34=423|49=EXECUTOR3|52=20130404-17:57:11.881|56=BVMF2|10=070|
8=FIX.4.4|9=59|35=0|34=423|49=BVMF2|52=20130404-17:57:11.884|56=EXECUTOR3|10=073|
8=FIX.4.4|9=59|35=0|34=424|49=BVMF2|52=20130404-17:57:42.269|56=EXECUTOR3|10=075|
8=FIX.4.4|9=59|35=0|34=424|49=EXECUTOR3|52=20130404-17:57:42.271|56=BVMF2|10=068|
8=FIX.4.4|9=59|35=0|34=425|49=EXECUTOR3|52=20130404-17:58:12.879|56=BVMF2|10=081|
8=FIX.4.4|9=59|35=0|34=425|49=BVMF2|52=20130404-17:58:12.882|56=EXECUTOR3|10=075|
8=FIX.4.4|9=59|35=0|34=426|49=BVMF2|52=20130404-17:58:43.267|56=EXECUTOR3|10=077|
8=FIX.4.4|9=59|35=0|34=426|49=EXECUTOR3|52=20130404-17:58:43.269|56=BVMF2|10=079|
8=FIX.4.4|9=59|35=0|34=427|49=EXECUTOR3|52=20130404-17:59:13.876|56=BVMF2|10=082|
8=FIX.4.4|9=59|35=0|34=427|49=BVMF2|52=20130404-17:59:13.877|56=EXECUTOR3|10=083|
8=FIX.4.4|9=59|35=0|34=428|49=BVMF2|52=20130404-17:59:44.264|56=EXECUTOR3|10=078|
8=FIX.4.4|9=59|35=0|34=428|49=EXECUTOR3|52=20130404-17:59:44.266|56=BVMF2|10=080|
8=FIX.4.4|9=59|35=0|34=429|49=EXECUTOR3|52=20130404-18:00:14.874|56=BVMF2|10=070|
8=FIX.4.4|9=59|35=0|34=429|49=BVMF2|52=20130404-18:00:14.875|56=EXECUTOR3|10=071|
8=FIX.4.4|9=59|35=0|34=430|49=BVMF2|52=20130404-18:00:45.261|56=EXECUTOR3|10=056|
8=FIX.4.4|9=59|35=0|34=430|49=EXECUTOR3|52=20130404-18:00:45.262|56=BVMF2|10=057|
8=FIX.4.4|9=59|35=0|34=431|49=EXECUTOR3|52=20130404-18:01:15.871|56=BVMF2|10=062|
8=FIX.4.4|9=59|35=0|34=431|49=BVMF2|52=20130404-18:01:15.873|56=EXECUTOR3|10=064|
8=FIX.4.4|9=59|35=0|34=432|49=BVMF2|52=20130404-18:01:46.259|56=EXECUTOR3|10=067|
8=FIX.4.4|9=59|35=0|34=432|49=EXECUTOR3|52=20130404-18:01:46.261|56=BVMF2|10=060|
8=FIX.4.4|9=59|35=0|34=433|49=EXECUTOR3|52=20130404-18:02:16.869|56=BVMF2|10=073|
8=FIX.4.4|9=59|35=0|34=433|49=BVMF2|52=20130404-18:02:16.871|56=EXECUTOR3|10=066|
8=FIX.4.4|9=59|35=0|34=434|49=BVMF2|52=20130404-18:02:47.256|56=EXECUTOR3|10=068|
8=FIX.4.4|9=59|35=0|34=434|49=EXECUTOR3|52=20130404-18:02:47.257|56=BVMF2|10=069|
8=FIX.4.4|9=59|35=0|34=435|49=EXECUTOR3|52=20130404-18:03:17.866|56=BVMF2|10=074|
8=FIX.4.4|9=59|35=0|34=435|49=BVMF2|52=20130404-18:03:17.869|56=EXECUTOR3|10=077|
8=FIX.4.4|9=59|35=0|34=436|49=BVMF2|52=20130404-18:03:48.254|56=EXECUTOR3|10=070|
8=FIX.4.4|9=59|35=0|34=436|49=EXECUTOR3|52=20130404-18:03:48.256|56=BVMF2|10=072|
8=FIX.4.4|9=59|35=0|34=437|49=EXECUTOR3|52=20130404-18:04:18.864|56=BVMF2|10=076|
8=FIX.4.4|9=59|35=0|34=437|49=BVMF2|52=20130404-18:04:18.866|56=EXECUTOR3|10=078|
8=FIX.4.4|9=59|35=0|34=438|49=BVMF2|52=20130404-18:04:49.252|56=EXECUTOR3|10=072|
8=FIX.4.4|9=59|35=0|34=438|49=EXECUTOR3|52=20130404-18:04:49.254|56=BVMF2|10=074|
8=FIX.4.4|9=59|35=0|34=439|49=EXECUTOR3|52=20130404-18:05:19.861|56=BVMF2|10=077|
8=FIX.4.4|9=59|35=0|34=439|49=BVMF2|52=20130404-18:05:19.864|56=EXECUTOR3|10=080|
8=FIX.4.4|9=59|35=0|34=440|49=BVMF2|52=20130404-18:05:50.249|56=EXECUTOR3|10=064|
8=FIX.4.4|9=59|35=0|34=440|49=EXECUTOR3|52=20130404-18:05:50.251|56=BVMF2|10=057|
8=FIX.4.4|9=59|35=0|34=441|49=EXECUTOR3|52=20130404-18:06:20.859|56=BVMF2|10=070|
8=FIX.4.4|9=59|35=0|34=441|49=BVMF2|52=20130404-18:06:20.861|56=EXECUTOR3|10=063|
8=FIX.4.4|9=59|35=0|34=442|49=BVMF2|52=20130404-18:06:51.247|56=EXECUTOR3|10=066|
8=FIX.4.4|9=59|35=0|34=442|49=EXECUTOR3|52=20130404-18:06:51.249|56=BVMF2|10=068|
8=FIX.4.4|9=59|35=0|34=443|49=EXECUTOR3|52=20130404-18:07:21.856|56=BVMF2|10=071|
8=FIX.4.4|9=59|35=0|34=443|49=BVMF2|52=20130404-18:07:21.859|56=EXECUTOR3|10=074|
8=FIX.4.4|9=59|35=0|34=444|49=BVMF2|52=20130404-18:07:52.244|56=EXECUTOR3|10=067|
8=FIX.4.4|9=59|35=0|34=444|49=EXECUTOR3|52=20130404-18:07:52.246|56=BVMF2|10=069|
8=FIX.4.4|9=59|35=0|34=445|49=EXECUTOR3|52=20130404-18:08:22.854|56=BVMF2|10=073|
8=FIX.4.4|9=59|35=0|34=445|49=BVMF2|52=20130404-18:08:22.856|56=EXECUTOR3|10=075|
8=FIX.4.4|9=59|35=0|34=446|49=BVMF2|52=20130404-18:08:53.242|56=EXECUTOR3|10=069|
8=FIX.4.4|9=59|35=0|34=446|49=EXECUTOR3|52=20130404-18:08:53.244|56=BVMF2|10=071|
8=FIX.4.4|9=59|35=0|34=447|49=EXECUTOR3|52=20130404-18:09:23.851|56=BVMF2|10=074|
8=FIX.4.4|9=59|35=0|34=447|49=BVMF2|52=20130404-18:09:23.854|56=EXECUTOR3|10=077|
8=FIX.4.4|9=59|35=0|34=448|49=BVMF2|52=20130404-18:09:54.239|56=EXECUTOR3|10=079|
8=FIX.4.4|9=59|35=0|34=448|49=EXECUTOR3|52=20130404-18:09:54.241|56=BVMF2|10=072|
8=FIX.4.4|9=59|35=0|34=449|49=EXECUTOR3|52=20130404-18:10:24.849|56=BVMF2|10=076|
8=FIX.4.4|9=59|35=0|34=449|49=BVMF2|52=20130404-18:10:24.852|56=EXECUTOR3|10=070|
8=FIX.4.4|9=59|35=0|34=450|49=BVMF2|52=20130404-18:10:55.237|56=EXECUTOR3|10=063|
8=FIX.4.4|9=59|35=0|34=450|49=EXECUTOR3|52=20130404-18:10:55.239|56=BVMF2|10=065|
8=FIX.4.4|9=59|35=0|34=451|49=EXECUTOR3|52=20130404-18:11:25.846|56=BVMF2|10=068|
8=FIX.4.4|9=59|35=0|34=451|49=BVMF2|52=20130404-18:11:25.849|56=EXECUTOR3|10=071|
8=FIX.4.4|9=59|35=0|34=452|49=BVMF2|52=20130404-18:11:56.234|56=EXECUTOR3|10=064|
8=FIX.4.4|9=59|35=0|34=452|49=EXECUTOR3|52=20130404-18:11:56.236|56=BVMF2|10=066|
8=FIX.4.4|9=59|35=0|34=453|49=EXECUTOR3|52=20130404-18:12:26.844|56=BVMF2|10=070|
8=FIX.4.4|9=59|35=0|34=453|49=BVMF2|52=20130404-18:12:26.846|56=EXECUTOR3|10=072|
8=FIX.4.4|9=59|35=0|34=454|49=BVMF2|52=20130404-18:12:57.231|56=EXECUTOR3|10=065|
8=FIX.4.4|9=59|35=0|34=454|49=EXECUTOR3|52=20130404-18:12:57.232|56=BVMF2|10=066|
8=FIX.4.4|9=59|35=0|34=455|49=EXECUTOR3|52=20130404-18:13:27.841|56=BVMF2|10=071|
8=FIX.4.4|9=59|35=0|34=455|49=BVMF2|52=20130404-18:13:27.843|56=EXECUTOR3|10=073|
8=FIX.4.4|9=59|35=0|34=456|49=BVMF2|52=20130404-18:13:58.229|56=EXECUTOR3|10=076|
8=FIX.4.4|9=59|35=0|34=456|49=EXECUTOR3|52=20130404-18:13:58.231|56=BVMF2|10=069|
8=FIX.4.4|9=59|35=0|34=457|49=EXECUTOR3|52=20130404-18:14:28.839|56=BVMF2|10=082|
8=FIX.4.4|9=59|35=0|34=457|49=BVMF2|52=20130404-18:14:28.841|56=EXECUTOR3|10=075|
8=FIX.4.4|9=59|35=0|34=458|49=BVMF2|52=20130404-18:14:59.227|56=EXECUTOR3|10=078|
8=FIX.4.4|9=59|35=0|34=458|49=EXECUTOR3|52=20130404-18:14:59.229|56=BVMF2|10=080|
8=FIX.4.4|9=59|35=0|34=459|49=EXECUTOR3|52=20130404-18:15:29.836|56=BVMF2|10=083|
8=FIX.4.4|9=59|35=0|34=459|49=BVMF2|52=20130404-18:15:29.839|56=EXECUTOR3|10=086|
8=FIX.4.4|9=59|35=0|34=460|49=BVMF2|52=20130404-18:16:00.224|56=EXECUTOR3|10=056|
8=FIX.4.4|9=59|35=0|34=460|49=EXECUTOR3|52=20130404-18:16:00.226|56=BVMF2|10=058|
8=FIX.4.4|9=59|35=0|34=461|49=EXECUTOR3|52=20130404-18:16:30.834|56=BVMF2|10=067|
8=FIX.4.4|9=59|35=0|34=461|49=BVMF2|52=20130404-18:16:30.836|56=EXECUTOR3|10=069|
8=FIX.4.4|9=59|35=0|34=462|49=BVMF2|52=20130404-18:17:01.222|56=EXECUTOR3|10=058|
8=FIX.4.4|9=59|35=0|34=462|49=EXECUTOR3|52=20130404-18:17:01.224|56=BVMF2|10=060|
8=FIX.4.4|9=59|35=0|34=463|49=EXECUTOR3|52=20130404-18:17:31.831|56=BVMF2|10=068|
8=FIX.4.4|9=59|35=0|34=463|49=BVMF2|52=20130404-18:17:31.834|56=EXECUTOR3|10=071|
8=FIX.4.4|9=59|35=0|34=464|49=BVMF2|52=20130404-18:18:02.219|56=EXECUTOR3|10=068|
8=FIX.4.4|9=59|35=0|34=464|49=EXECUTOR3|52=20130404-18:18:02.221|56=BVMF2|10=061|
8=FIX.4.4|9=59|35=0|34=465|49=EXECUTOR3|52=20130404-18:18:32.829|56=BVMF2|10=079|
8=FIX.4.4|9=59|35=0|34=465|49=BVMF2|52=20130404-18:18:32.831|56=EXECUTOR3|10=072|
8=FIX.4.4|9=59|35=0|34=466|49=BVMF2|52=20130404-18:19:03.217|56=EXECUTOR3|10=070|
8=FIX.4.4|9=59|35=0|34=466|49=EXECUTOR3|52=20130404-18:19:03.219|56=BVMF2|10=072|
8=FIX.4.4|9=59|35=0|34=467|49=EXECUTOR3|52=20130404-18:19:33.826|56=BVMF2|10=080|
8=FIX.4.4|9=59|35=0|34=467|49=BVMF2|52=20130404-18:19:33.829|56=EXECUTOR3|10=083|
8=FIX.4.4|9=59|35=0|34=468|49=BVMF2|52=20130404-18:20:04.214|56=EXECUTOR3|10=062|
8=FIX.4.4|9=59|35=0|34=468|49=EXECUTOR3|52=20130404-18:20:04.216|56=BVMF2|10=064|
8=FIX.4.4|9=59|35=0|34=469|49=EXECUTOR3|52=20130404-18:20:34.824|56=BVMF2|10=073|
8=FIX.4.4|9=59|35=0|34=469|49=BVMF2|52=20130404-18:20:34.826|56=EXECUTOR3|10=075|
8=FIX.4.4|9=59|35=0|34=470|49=BVMF2|52=20130404-18:21:05.212|56=EXECUTOR3|10=055|
8=FIX.4.4|9=59|35=0|34=470|49=EXECUTOR3|52=20130404-18:21:05.214|56=BVMF2|10=057|
8=FIX.4.4|9=59|35=0|34=471|49=EXECUTOR3|52=20130404-18:21:35.821|56=BVMF2|10=065|
8=FIX.4.4|9=59|35=0|34=471|49=BVMF2|52=20130404-18:21:35.824|56=EXECUTOR3|10=068|
8=FIX.4.4|9=59|35=0|34=472|49=BVMF2|52=20130404-18:22:06.209|56=EXECUTOR3|10=065|
8=FIX.4.4|9=59|35=0|34=472|49=EXECUTOR3|52=20130404-18:22:06.211|56=BVMF2|10=058|
8=FIX.4.4|9=59|35=0|34=473|49=EXECUTOR3|52=20130404-18:22:36.819|56=BVMF2|10=076|
8=FIX.4.4|9=59|35=0|34=473|49=BVMF2|52=20130404-18:22:36.821|56=EXECUTOR3|10=069|
8=FIX.4.4|9=59|35=0|34=474|49=BVMF2|52=20130404-18:23:07.207|56=EXECUTOR3|10=067|
8=FIX.4.4|9=59|35=0|34=474|49=EXECUTOR3|52=20130404-18:23:07.209|56=BVMF2|10=069|
8=FIX.4.4|9=59|35=0|34=475|49=EXECUTOR3|52=20130404-18:23:37.816|56=BVMF2|10=077|
8=FIX.4.4|9=59|35=0|34=475|49=BVMF2|52=20130404-18:23:37.818|56=EXECUTOR3|10=079|
8=FIX.4.4|9=59|35=0|34=476|49=BVMF2|52=20130404-18:24:08.204|56=EXECUTOR3|10=068|
8=FIX.4.4|9=59|35=0|34=476|49=EXECUTOR3|52=20130404-18:24:08.206|56=BVMF2|10=070|
8=FIX.4.4|9=59|35=0|34=477|49=EXECUTOR3|52=20130404-18:24:38.814|56=BVMF2|10=079|
8=FIX.4.4|9=59|35=0|34=477|49=BVMF2|52=20130404-18:24:38.816|56=EXECUTOR3|10=081|
8=FIX.4.4|9=59|35=0|34=478|49=BVMF2|52=20130404-18:25:09.202|56=EXECUTOR3|10=070|
8=FIX.4.4|9=59|35=0|34=478|49=EXECUTOR3|52=20130404-18:25:09.204|56=BVMF2|10=072|
8=FIX.4.4|9=59|35=0|34=479|49=EXECUTOR3|52=20130404-18:25:39.811|56=BVMF2|10=080|
8=FIX.4.4|9=59|35=0|34=479|49=BVMF2|52=20130404-18:25:39.813|56=EXECUTOR3|10=082|
8=FIX.4.4|9=59|35=0|34=480|49=BVMF2|52=20130404-18:26:10.199|56=EXECUTOR3|10=071|
8=FIX.4.4|9=59|35=0|34=480|49=EXECUTOR3|52=20130404-18:26:10.201|56=BVMF2|10=055|
8=FIX.4.4|9=59|35=0|34=481|49=EXECUTOR3|52=20130404-18:26:40.809|56=BVMF2|10=073|
8=FIX.4.4|9=59|35=0|34=481|49=BVMF2|52=20130404-18:26:40.810|56=EXECUTOR3|10=065|
8=FIX.4.4|9=59|35=0|34=482|49=BVMF2|52=20130404-18:27:11.197|56=EXECUTOR3|10=073|
8=FIX.4.4|9=59|35=0|34=482|49=EXECUTOR3|52=20130404-18:27:11.199|56=BVMF2|10=075|
8=FIX.4.4|9=59|35=0|34=483|49=EXECUTOR3|52=20130404-18:27:41.806|56=BVMF2|10=074|
8=FIX.4.4|9=59|35=0|34=483|49=BVMF2|52=20130404-18:27:41.807|56=EXECUTOR3|10=075|
8=FIX.4.4|9=59|35=0|34=484|49=BVMF2|52=20130404-18:28:12.194|56=EXECUTOR3|10=074|
8=FIX.4.4|9=59|35=0|34=484|49=EXECUTOR3|52=20130404-18:28:12.196|56=BVMF2|10=076|
8=FIX.4.4|9=59|35=0|34=485|49=EXECUTOR3|52=20130404-18:28:42.804|56=BVMF2|10=076|
8=FIX.4.4|9=59|35=0|34=485|49=BVMF2|52=20130404-18:28:42.807|56=EXECUTOR3|10=079|
8=FIX.4.4|9=59|35=0|34=486|49=BVMF2|52=20130404-18:29:13.192|56=EXECUTOR3|10=076|
8=FIX.4.4|9=59|35=0|34=486|49=EXECUTOR3|52=20130404-18:29:13.194|56=BVMF2|10=078|
8=FIX.4.4|9=59|35=0|34=487|49=EXECUTOR3|52=20130404-18:29:43.801|56=BVMF2|10=077|
8=FIX.4.4|9=59|35=0|34=487|49=BVMF2|52=20130404-18:29:43.803|56=EXECUTOR3|10=079|
8=FIX.4.4|9=59|35=0|34=488|49=BVMF2|52=20130404-18:30:14.187|56=EXECUTOR3|10=075|
8=FIX.4.4|9=59|35=0|34=488|49=EXECUTOR3|52=20130404-18:30:14.189|56=BVMF2|10=077|
8=FIX.4.4|9=59|35=0|34=489|49=EXECUTOR3|52=20130404-18:30:44.799|56=BVMF2|10=088|
8=FIX.4.4|9=59|35=0|34=489|49=BVMF2|52=20130404-18:30:44.801|56=EXECUTOR3|10=072|
8=FIX.4.4|9=90|35=A|34=1|49=EXECUTOR3|52=20130404-18:32:50.421|56=BVMF2|95=6|96=PMANQE|98=0|108=30|141=Y|10=116|
8=FIX.4.4|9=75|35=A|34=1|49=BVMF2|52=20130404-18:32:50.444|56=EXECUTOR3|98=0|108=30|141=Y|10=043|
8=FIX.4.4|9=57|35=0|34=2|49=BVMF2|52=20130404-18:33:21.088|56=EXECUTOR3|10=216|
8=FIX.4.4|9=57|35=0|34=2|49=EXECUTOR3|52=20130404-18:33:21.093|56=BVMF2|10=212|
8=FIX.4.4|9=57|35=0|34=3|49=BVMF2|52=20130404-18:33:51.090|56=EXECUTOR3|10=213|
8=FIX.4.4|9=57|35=0|34=3|49=EXECUTOR3|52=20130404-18:33:51.093|56=BVMF2|10=216|
8=FIX.4.4|9=57|35=0|34=4|49=EXECUTOR3|52=20130404-18:34:21.391|56=BVMF2|10=216|
8=FIX.4.4|9=57|35=0|34=4|49=BVMF2|52=20130404-18:34:21.395|56=EXECUTOR3|10=220|
8=FIX.4.4|9=57|35=0|34=5|49=BVMF2|52=20130404-18:34:52.085|56=EXECUTOR3|10=221|
8=FIX.4.4|9=57|35=0|34=5|49=EXECUTOR3|52=20130404-18:34:52.089|56=BVMF2|10=225|
8=FIX.4.4|9=90|35=A|34=1|49=EXECUTOR3|52=20130404-18:35:23.802|56=BVMF2|95=6|96=PMANQE|98=0|108=30|141=Y|10=122|
8=FIX.4.4|9=75|35=A|34=1|49=BVMF2|52=20130404-18:35:23.833|56=EXECUTOR3|98=0|108=30|141=Y|10=048|
8=FIX.4.4|9=57|35=0|34=2|49=BVMF2|52=20130404-18:35:54.108|56=EXECUTOR3|10=217|
8=FIX.4.4|9=57|35=0|34=2|49=EXECUTOR3|52=20130404-18:35:54.111|56=BVMF2|10=211|
8=FIX.4.4|9=57|35=0|34=3|49=EXECUTOR3|52=20130404-18:36:24.774|56=BVMF2|10=225|
8=FIX.4.4|9=57|35=0|34=3|49=BVMF2|52=20130404-18:36:24.777|56=EXECUTOR3|10=228|
8=FIX.4.4|9=57|35=0|34=4|49=BVMF2|52=20130404-18:36:55.100|56=EXECUTOR3|10=213|
8=FIX.4.4|9=57|35=0|34=4|49=EXECUTOR3|52=20130404-18:36:55.103|56=BVMF2|10=216|
8=FIX.4.4|9=57|35=0|34=5|49=EXECUTOR3|52=20130404-18:37:25.771|56=BVMF2|10=226|
8=FIX.4.4|9=57|35=0|34=5|49=BVMF2|52=20130404-18:37:25.773|56=EXECUTOR3|10=228|
8=FIX.4.4|9=90|35=A|34=1|49=EXECUTOR3|52=20130404-18:37:49.595|56=BVMF2|95=6|96=PMANQE|98=0|108=30|141=Y|10=141|
8=FIX.4.4|9=75|35=A|34=1|49=BVMF2|52=20130404-18:37:49.619|56=EXECUTOR3|98=0|108=30|141=Y|10=060|
8=FIX.4.4|9=57|35=0|34=2|49=BVMF2|52=20130404-18:38:20.133|56=EXECUTOR3|10=211|
8=FIX.4.4|9=57|35=0|34=2|49=EXECUTOR3|52=20130404-18:38:20.137|56=BVMF2|10=215|
8=FIX.4.4|9=57|35=0|34=3|49=EXECUTOR3|52=20130404-18:38:50.568|56=BVMF2|10=227|
8=FIX.4.4|9=57|35=0|34=3|49=BVMF2|52=20130404-18:38:50.572|56=EXECUTOR3|10=222|
8=FIX.4.4|9=57|35=0|34=4|49=BVMF2|52=20130404-18:39:21.130|56=EXECUTOR3|10=212|
8=FIX.4.4|9=57|35=0|34=4|49=EXECUTOR3|52=20130404-18:39:21.133|56=BVMF2|10=215|
8=FIX.4.4|9=57|35=0|34=5|49=EXECUTOR3|52=20130404-18:39:51.565|56=BVMF2|10=228|
8=FIX.4.4|9=57|35=0|34=5|49=BVMF2|52=20130404-18:39:51.567|56=EXECUTOR3|10=230|
8=FIX.4.4|9=90|35=A|34=1|49=EXECUTOR3|52=20130404-18:41:49.285|56=BVMF2|95=6|96=PMANQE|98=0|108=30|141=Y|10=132|
8=FIX.4.4|9=75|35=A|34=1|49=BVMF2|52=20130404-18:41:49.363|56=EXECUTOR3|98=0|108=30|141=Y|10=051|
8=FIX.4.4|9=57|35=0|34=2|49=BVMF2|52=20130404-18:42:19.628|56=EXECUTOR3|10=223|
8=FIX.4.4|9=57|35=0|34=2|49=EXECUTOR3|52=20130404-18:42:19.630|56=BVMF2|10=216|
8=FIX.4.4|9=57|35=0|34=3|49=EXECUTOR3|52=20130404-18:42:50.255|56=BVMF2|10=215|
8=FIX.4.4|9=57|35=0|34=3|49=BVMF2|52=20130404-18:42:50.259|56=EXECUTOR3|10=219|
8=FIX.4.4|9=57|35=0|34=4|49=BVMF2|52=20130404-18:43:20.625|56=EXECUTOR3|10=215|
8=FIX.4.4|9=57|35=0|34=4|49=EXECUTOR3|52=20130404-18:43:20.626|56=BVMF2|10=216|
8=FIX.4.4|9=90|35=A|34=1|49=EXECUTOR3|52=20130404-18:54:20.022|56=BVMF2|95=6|96=PMANQE|98=0|108=30|141=Y|10=114|
8=FIX.4.4|9=75|35=A|34=1|49=BVMF2|52=20130404-18:54:20.056|56=EXECUTOR3|98=0|108=30|141=Y|10=043|
8=FIX.4.4|9=57|35=0|34=2|49=BVMF2|52=20130404-18:54:50.334|56=EXECUTOR3|10=215|
8=FIX.4.4|9=57|35=0|34=2|49=EXECUTOR3|52=20130404-18:54:50.338|56=BVMF2|10=219|
8=FIX.4.4|9=57|35=0|34=3|49=EXECUTOR3|52=20130404-18:55:20.993|56=BVMF2|10=225|
8=FIX.4.4|9=57|35=0|34=3|49=BVMF2|52=20130404-18:55:20.998|56=EXECUTOR3|10=230|
8=FIX.4.4|9=57|35=0|34=4|49=BVMF2|52=20130404-18:55:51.326|56=EXECUTOR3|10=220|
8=FIX.4.4|9=57|35=0|34=4|49=EXECUTOR3|52=20130404-18:55:51.330|56=BVMF2|10=215|
8=FIX.4.4|9=90|35=A|34=1|49=EXECUTOR3|52=20130404-18:57:16.092|56=BVMF2|95=6|96=PMANQE|98=0|108=30|141=Y|10=129|
8=FIX.4.4|9=75|35=A|34=1|49=BVMF2|52=20130404-18:57:16.123|56=EXECUTOR3|98=0|108=30|141=Y|10=046|
8=FIX.4.4|9=57|35=0|34=2|49=BVMF2|52=20130404-18:57:46.745|56=EXECUTOR3|10=229|
8=FIX.4.4|9=57|35=0|34=2|49=EXECUTOR3|52=20130404-18:57:46.747|56=BVMF2|10=231|
8=FIX.4.4|9=57|35=0|34=3|49=EXECUTOR3|52=20130404-18:58:17.062|56=BVMF2|10=221|
8=FIX.4.4|9=57|35=0|34=3|49=BVMF2|52=20130404-18:58:17.066|56=EXECUTOR3|10=225|
8=FIX.4.4|9=57|35=0|34=4|49=BVMF2|52=20130404-18:58:47.744|56=EXECUTOR3|10=232|
8=FIX.4.4|9=57|35=0|34=4|49=EXECUTOR3|52=20130404-18:58:47.748|56=BVMF2|10=236|
8=FIX.4.4|9=57|35=0|34=5|49=EXECUTOR3|52=20130404-18:59:18.059|56=BVMF2|10=231|
8=FIX.4.4|9=57|35=0|34=5|49=BVMF2|52=20130404-18:59:18.063|56=EXECUTOR3|10=226|
8=FIX.4.4|9=57|35=0|34=6|49=BVMF2|52=20130404-18:59:48.741|56=EXECUTOR3|10=233|
8=FIX.4.4|9=57|35=0|34=6|49=EXECUTOR3|52=20130404-18:59:48.745|56=BVMF2|10=237|
8=FIX.4.4|9=57|35=0|34=7|49=EXECUTOR3|52=20130404-19:00:19.057|56=BVMF2|10=219|
8=FIX.4.4|9=57|35=0|34=7|49=BVMF2|52=20130404-19:00:19.061|56=EXECUTOR3|10=214|
8=FIX.4.4|9=57|35=0|34=8|49=BVMF2|52=20130404-19:00:49.735|56=EXECUTOR3|10=226|
8=FIX.4.4|9=57|35=0|34=8|49=EXECUTOR3|52=20130404-19:00:49.737|56=BVMF2|10=228|
8=FIX.4.4|9=57|35=0|34=9|49=EXECUTOR3|52=20130404-19:01:20.054|56=BVMF2|10=211|
8=FIX.4.4|9=57|35=0|34=9|49=BVMF2|52=20130404-19:01:20.057|56=EXECUTOR3|10=214|
8=FIX.4.4|9=58|35=0|34=10|49=BVMF2|52=20130404-19:01:50.732|56=EXECUTOR3|10=002|
8=FIX.4.4|9=58|35=0|34=10|49=EXECUTOR3|52=20130404-19:01:50.734|56=BVMF2|10=004|
8=FIX.4.4|9=58|35=0|34=11|49=EXECUTOR3|52=20130404-19:02:21.052|56=BVMF2|10=253|
8=FIX.4.4|9=58|35=0|34=11|49=BVMF2|52=20130404-19:02:21.055|56=EXECUTOR3|10=000|
8=FIX.4.4|9=58|35=0|34=12|49=BVMF2|52=20130404-19:02:51.730|56=EXECUTOR3|10=004|
8=FIX.4.4|9=58|35=0|34=12|49=EXECUTOR3|52=20130404-19:02:51.733|56=BVMF2|10=007|
8=FIX.4.4|9=58|35=0|34=13|49=EXECUTOR3|52=20130404-19:03:22.049|56=BVMF2|10=007|
8=FIX.4.4|9=58|35=0|34=13|49=BVMF2|52=20130404-19:03:22.052|56=EXECUTOR3|10=001|
8=FIX.4.4|9=58|35=0|34=14|49=BVMF2|52=20130404-19:03:52.727|56=EXECUTOR3|10=014|
8=FIX.4.4|9=58|35=0|34=14|49=EXECUTOR3|52=20130404-19:03:52.730|56=BVMF2|10=008|
8=FIX.4.4|9=58|35=0|34=15|49=EXECUTOR3|52=20130404-19:04:23.047|56=BVMF2|10=009|
8=FIX.4.4|9=58|35=0|34=15|49=BVMF2|52=20130404-19:04:23.050|56=EXECUTOR3|10=003|
8=FIX.4.4|9=58|35=0|34=16|49=BVMF2|52=20130404-19:04:53.725|56=EXECUTOR3|10=016|
8=FIX.4.4|9=58|35=0|34=16|49=EXECUTOR3|52=20130404-19:04:53.728|56=BVMF2|10=019|
8=FIX.4.4|9=58|35=0|34=17|49=EXECUTOR3|52=20130404-19:05:24.044|56=BVMF2|10=010|
8=FIX.4.4|9=58|35=0|34=17|49=BVMF2|52=20130404-19:05:24.047|56=EXECUTOR3|10=013|
8=FIX.4.4|9=58|35=0|34=18|49=BVMF2|52=20130404-19:05:54.722|56=EXECUTOR3|10=017|
8=FIX.4.4|9=58|35=0|34=18|49=EXECUTOR3|52=20130404-19:05:54.725|56=BVMF2|10=020|
8=FIX.4.4|9=90|35=A|34=1|49=EXECUTOR3|52=20130404-19:06:08.998|56=BVMF2|95=6|96=PMANQE|98=0|108=30|141=Y|10=140|
8=FIX.4.4|9=75|35=A|34=1|49=BVMF2|52=20130404-19:06:09.033|56=EXECUTOR3|98=0|108=30|141=Y|10=043|
8=FIX.4.4|9=57|35=0|34=2|49=BVMF2|52=20130404-19:06:39.671|56=EXECUTOR3|10=224|
8=FIX.4.4|9=57|35=0|34=2|49=EXECUTOR3|52=20130404-19:06:39.676|56=BVMF2|10=229|
8=FIX.4.4|9=90|35=A|34=1|49=EXECUTOR3|52=20130404-19:07:48.305|56=BVMF2|95=6|96=PMANQE|98=0|108=30|141=Y|10=127|
8=FIX.4.4|9=75|35=A|34=1|49=BVMF2|52=20130404-19:07:48.334|56=EXECUTOR3|98=0|108=30|141=Y|10=051|
8=FIX.4.4|9=57|35=0|34=2|49=EXECUTOR3|52=20130404-19:08:19.282|56=BVMF2|10=222|
8=FIX.4.4|9=57|35=0|34=2|49=BVMF2|52=20130404-19:08:19.287|56=EXECUTOR3|10=227|
8=FIX.4.4|9=57|35=0|34=3|49=BVMF2|52=20130404-19:08:49.289|56=EXECUTOR3|10=233|
8=FIX.4.4|9=57|35=0|34=3|49=EXECUTOR3|52=20130404-19:08:49.291|56=BVMF2|10=226|
8=FIX.4.4|9=57|35=0|34=4|49=EXECUTOR3|52=20130404-19:09:20.278|56=BVMF2|10=222|
8=FIX.4.4|9=57|35=0|34=4|49=BVMF2|52=20130404-19:09:20.282|56=EXECUTOR3|10=217|
8=FIX.4.4|9=57|35=0|34=5|49=BVMF2|52=20130404-19:09:50.286|56=EXECUTOR3|10=225|
8=FIX.4.4|9=57|35=0|34=5|49=EXECUTOR3|52=20130404-19:09:50.290|56=BVMF2|10=220|
8=FIX.4.4|9=57|35=0|34=6|49=EXECUTOR3|52=20130404-19:10:21.276|56=BVMF2|10=215|
8=FIX.4.4|9=57|35=0|34=6|49=BVMF2|52=20130404-19:10:21.280|56=EXECUTOR3|10=210|
8=FIX.4.4|9=57|35=0|34=7|49=BVMF2|52=20130404-19:10:51.284|56=EXECUTOR3|10=218|
8=FIX.4.4|9=57|35=0|34=7|49=EXECUTOR3|52=20130404-19:10:51.288|56=BVMF2|10=222|
8=FIX.4.4|9=57|35=0|34=8|49=EXECUTOR3|52=20130404-19:11:22.273|56=BVMF2|10=216|
8=FIX.4.4|9=57|35=0|34=8|49=BVMF2|52=20130404-19:11:22.277|56=EXECUTOR3|10=220|
8=FIX.4.4|9=57|35=0|34=9|49=BVMF2|52=20130404-19:11:52.282|56=EXECUTOR3|10=220|
8=FIX.4.4|9=57|35=0|34=9|49=EXECUTOR3|52=20130404-19:11:52.285|56=BVMF2|10=223|
8=FIX.4.4|9=58|35=0|34=10|49=EXECUTOR3|52=20130404-19:12:23.271|56=BVMF2|10=002|
8=FIX.4.4|9=58|35=0|34=10|49=BVMF2|52=20130404-19:12:23.273|56=EXECUTOR3|10=004|
8=FIX.4.4|9=58|35=0|34=11|49=BVMF2|52=20130404-19:12:53.279|56=EXECUTOR3|10=014|
8=FIX.4.4|9=58|35=0|34=11|49=EXECUTOR3|52=20130404-19:12:53.282|56=BVMF2|10=008|
8=FIX.4.4|9=58|35=0|34=12|49=EXECUTOR3|52=20130404-19:13:24.268|56=BVMF2|10=012|
8=FIX.4.4|9=58|35=0|34=12|49=BVMF2|52=20130404-19:13:24.272|56=EXECUTOR3|10=007|
8=FIX.4.4|9=58|35=0|34=13|49=BVMF2|52=20130404-19:13:54.276|56=EXECUTOR3|10=015|
8=FIX.4.4|9=58|35=0|34=13|49=EXECUTOR3|52=20130404-19:13:54.279|56=BVMF2|10=018|
8=FIX.4.4|9=58|35=0|34=14|49=EXECUTOR3|52=20130404-19:14:25.266|56=BVMF2|10=014|
8=FIX.4.4|9=58|35=0|34=14|49=BVMF2|52=20130404-19:14:25.270|56=EXECUTOR3|10=009|
8=FIX.4.4|9=58|35=0|34=15|49=BVMF2|52=20130404-19:14:55.274|56=EXECUTOR3|10=017|
8=FIX.4.4|9=58|35=0|34=15|49=EXECUTOR3|52=20130404-19:14:55.277|56=BVMF2|10=020|
8=FIX.4.4|9=58|35=0|34=16|49=EXECUTOR3|52=20130404-19:15:26.263|56=BVMF2|10=015|
8=FIX.4.4|9=58|35=0|34=16|49=BVMF2|52=20130404-19:15:26.266|56=EXECUTOR3|10=018|
8=FIX.4.4|9=58|35=0|34=17|49=BVMF2|52=20130404-19:15:56.271|56=EXECUTOR3|10=018|
8=FIX.4.4|9=58|35=0|34=17|49=EXECUTOR3|52=20130404-19:15:56.275|56=BVMF2|10=022|
8=FIX.4.4|9=90|35=A|34=1|49=EXECUTOR3|52=20130404-19:16:40.720|56=BVMF2|95=6|96=PMANQE|98=0|108=30|141=Y|10=120|
8=FIX.4.4|9=75|35=A|34=1|49=BVMF2|52=20130404-19:16:40.754|56=EXECUTOR3|98=0|108=30|141=Y|10=049|
8=FIX.4.4|9=57|35=0|34=2|49=BVMF2|52=20130404-19:17:11.160|56=EXECUTOR3|10=209|
8=FIX.4.4|9=57|35=0|34=2|49=EXECUTOR3|52=20130404-19:17:11.162|56=BVMF2|10=211|
8=FIX.4.4|9=57|35=0|34=3|49=EXECUTOR3|52=20130404-19:17:41.690|56=BVMF2|10=221|
8=FIX.4.4|9=57|35=0|34=3|49=BVMF2|52=20130404-19:17:41.694|56=EXECUTOR3|10=225|
8=FIX.4.4|9=57|35=0|34=4|49=BVMF2|52=20130404-19:18:12.159|56=EXECUTOR3|10=221|
8=FIX.4.4|9=57|35=0|34=4|49=EXECUTOR3|52=20130404-19:18:12.163|56=BVMF2|10=216|
8=FIX.4.4|9=57|35=0|34=5|49=EXECUTOR3|52=20130404-19:18:42.688|56=BVMF2|10=232|
8=FIX.4.4|9=57|35=0|34=5|49=BVMF2|52=20130404-19:18:42.692|56=EXECUTOR3|10=227|
8=FIX.4.4|9=57|35=0|34=6|49=BVMF2|52=20130404-19:19:13.156|56=EXECUTOR3|10=222|
8=FIX.4.4|9=57|35=0|34=6|49=EXECUTOR3|52=20130404-19:19:13.160|56=BVMF2|10=217|
8=FIX.4.4|9=57|35=0|34=7|49=EXECUTOR3|52=20130404-19:19:43.685|56=BVMF2|10=233|
8=FIX.4.4|9=57|35=0|34=7|49=BVMF2|52=20130404-19:19:43.689|56=EXECUTOR3|10=237|
8=FIX.4.4|9=57|35=0|34=8|49=BVMF2|52=20130404-19:20:14.149|56=EXECUTOR3|10=219|
8=FIX.4.4|9=57|35=0|34=8|49=EXECUTOR3|52=20130404-19:20:14.153|56=BVMF2|10=214|
8=FIX.4.4|9=57|35=0|34=9|49=EXECUTOR3|52=20130404-19:20:44.683|56=BVMF2|10=226|
8=FIX.4.4|9=57|35=0|34=9|49=BVMF2|52=20130404-19:20:44.685|56=EXECUTOR3|10=228|
8=FIX.4.4|9=58|35=0|34=10|49=BVMF2|52=20130404-19:21:15.147|56=EXECUTOR3|10=005|
8=FIX.4.4|9=58|35=0|34=10|49=EXECUTOR3|52=20130404-19:21:15.151|56=BVMF2|10=000|
8=FIX.4.4|9=58|35=0|34=11|49=EXECUTOR3|52=20130404-19:21:45.680|56=BVMF2|10=011|
8=FIX.4.4|9=58|35=0|34=11|49=BVMF2|52=20130404-19:21:45.683|56=EXECUTOR3|10=014|
8=FIX.4.4|9=58|35=0|34=12|49=BVMF2|52=20130404-19:22:16.144|56=EXECUTOR3|10=006|
8=FIX.4.4|9=58|35=0|34=12|49=EXECUTOR3|52=20130404-19:22:16.148|56=BVMF2|10=010|
8=FIX.4.4|9=58|35=0|34=13|49=EXECUTOR3|52=20130404-19:22:46.678|56=BVMF2|10=022|
8=FIX.4.4|9=58|35=0|34=13|49=BVMF2|52=20130404-19:22:46.682|56=EXECUTOR3|10=017|
8=FIX.4.4|9=58|35=0|34=14|49=BVMF2|52=20130404-19:23:17.141|56=EXECUTOR3|10=007|
8=FIX.4.4|9=58|35=0|34=14|49=EXECUTOR3|52=20130404-19:23:17.145|56=BVMF2|10=011|
8=FIX.4.4|9=58|35=0|34=15|49=EXECUTOR3|52=20130404-19:23:47.675|56=BVMF2|10=023|
8=FIX.4.4|9=58|35=0|34=15|49=BVMF2|52=20130404-19:23:47.679|56=EXECUTOR3|10=027|
8=FIX.4.4|9=58|35=0|34=16|49=BVMF2|52=20130404-19:24:18.139|56=EXECUTOR3|10=018|
8=FIX.4.4|9=58|35=0|34=16|49=EXECUTOR3|52=20130404-19:24:18.143|56=BVMF2|10=013|
8=FIX.4.4|9=58|35=0|34=17|49=EXECUTOR3|52=20130404-19:24:48.673|56=BVMF2|10=025|
8=FIX.4.4|9=58|35=0|34=17|49=BVMF2|52=20130404-19:24:48.677|56=EXECUTOR3|10=029|
8=FIX.4.4|9=58|35=0|34=18|49=BVMF2|52=20130404-19:25:19.137|56=EXECUTOR3|10=020|
8=FIX.4.4|9=58|35=0|34=18|49=EXECUTOR3|52=20130404-19:25:19.141|56=BVMF2|10=015|
8=FIX.4.4|9=58|35=0|34=19|49=EXECUTOR3|52=20130404-19:25:49.670|56=BVMF2|10=026|
8=FIX.4.4|9=58|35=0|34=19|49=BVMF2|52=20130404-19:25:49.673|56=EXECUTOR3|10=029|
8=FIX.4.4|9=58|35=0|34=20|49=BVMF2|52=20130404-19:26:20.134|56=EXECUTOR3|10=003|
8=FIX.4.4|9=58|35=0|34=20|49=EXECUTOR3|52=20130404-19:26:20.138|56=BVMF2|10=007|
8=FIX.4.4|9=58|35=0|34=21|49=EXECUTOR3|52=20130404-19:26:50.668|56=BVMF2|10=019|
8=FIX.4.4|9=58|35=0|34=21|49=BVMF2|52=20130404-19:26:50.672|56=EXECUTOR3|10=014|
8=FIX.4.4|9=58|35=0|34=22|49=BVMF2|52=20130404-19:27:21.132|56=EXECUTOR3|10=005|
8=FIX.4.4|9=58|35=0|34=22|49=EXECUTOR3|52=20130404-19:27:21.135|56=BVMF2|10=008|
8=FIX.4.4|9=58|35=0|34=23|49=EXECUTOR3|52=20130404-19:27:51.665|56=BVMF2|10=020|
8=FIX.4.4|9=58|35=0|34=23|49=BVMF2|52=20130404-19:27:51.668|56=EXECUTOR3|10=023|
8=FIX.4.4|9=58|35=0|34=24|49=BVMF2|52=20130404-19:28:22.129|56=EXECUTOR3|10=015|
8=FIX.4.4|9=58|35=0|34=24|49=EXECUTOR3|52=20130404-19:28:22.132|56=BVMF2|10=009|
