8=FIX.4.2|9=72|35=A|34=1|49=EXECUTOR|52=20130404-14:03:20.043|56=BOV|98=0|108=30|141=Y|10=111|
8=FIX.4.2|9=72|35=A|34=1|49=BOV|52=20130404-14:03:20.060|56=EXECUTOR|98=0|108=30|141=Y|10=110|
8=FIX.4.2|9=184|35=D|34=2|49=EXECUTOR|52=20130404-14:03:47.847|56=BOV|1=43121|11=d8b8f7be-2bc6-4e26-9b54-bccf3a2327e7|21=1|38=10|40=2|44=56425|54=2|55=INDJ13|59=0|60=20130404-14:03:47.845|110=0|111=0|10=164|
8=FIX.4.2|9=184|35=D|34=3|49=EXECUTOR|52=20130404-14:03:47.849|56=BOV|1=43121|11=cd6ae353-2ba0-457c-8748-9161352d6cef|21=1|38=10|40=2|44=55035|54=1|55=INDJ13|59=0|60=20130404-14:03:47.849|110=0|111=0|10=226|
8=FIX.4.2|9=221|35=8|34=2|49=BOV|52=20130404-14:03:47.898|56=EXECUTOR|6=0|11=d8b8f7be-2bc6-4e26-9b54-bccf3a2327e7|14=0|17=d790560c-df7f-438f-9f47-bf94ee6e8450|20=0|37=d8b8f7be-2bc6-4e26-9b54-bccf3a2327e7|39=0|54=2|55=INDJ13|150=0|151=10|10=106|
8=FIX.4.2|9=221|35=8|34=3|49=BOV|52=20130404-14:03:47.903|56=EXECUTOR|6=0|11=cd6ae353-2ba0-457c-8748-9161352d6cef|14=0|17=b550d80d-d069-4cc4-bba7-e6315006c20c|20=0|37=cd6ae353-2ba0-457c-8748-9161352d6cef|39=0|54=1|55=INDJ13|150=0|151=10|10=157|
8=FIX.4.2|9=54|35=0|34=4|49=EXECUTOR|52=20130404-14:04:18.037|56=BOV|10=038|
8=FIX.4.2|9=54|35=0|34=4|49=BOV|52=20130404-14:04:18.041|56=EXECUTOR|10=033|
8=FIX.4.2|9=54|35=0|34=5|49=BOV|52=20130404-14:04:48.231|56=EXECUTOR|10=038|
8=FIX.4.2|9=54|35=0|34=5|49=EXECUTOR|52=20130404-14:04:48.233|56=BOV|10=040|
8=FIX.4.2|9=54|35=0|34=6|49=EXECUTOR|52=20130404-14:05:19.035|56=BOV|10=040|
8=FIX.4.2|9=54|35=0|34=6|49=BOV|52=20130404-14:05:19.038|56=EXECUTOR|10=043|
8=FIX.4.2|9=54|35=0|34=7|49=BOV|52=20130404-14:05:49.229|56=EXECUTOR|10=049|
8=FIX.4.2|9=54|35=0|34=7|49=EXECUTOR|52=20130404-14:05:49.232|56=BOV|10=043|
8=FIX.4.2|9=54|35=0|34=8|49=EXECUTOR|52=20130404-14:06:20.032|56=BOV|10=032|
8=FIX.4.2|9=54|35=0|34=8|49=BOV|52=20130404-14:06:20.035|56=EXECUTOR|10=035|
8=FIX.4.2|9=54|35=0|34=9|49=BOV|52=20130404-14:06:50.226|56=EXECUTOR|10=041|
8=FIX.4.2|9=54|35=0|34=9|49=EXECUTOR|52=20130404-14:06:50.227|56=BOV|10=042|
8=FIX.4.2|9=55|35=0|34=10|49=EXECUTOR|52=20130404-14:07:21.030|56=BOV|10=074|
8=FIX.4.2|9=55|35=0|34=10|49=BOV|52=20130404-14:07:21.033|56=EXECUTOR|10=077|
8=FIX.4.2|9=55|35=0|34=11|49=BOV|52=20130404-14:07:51.224|56=EXECUTOR|10=083|
8=FIX.4.2|9=55|35=0|34=11|49=EXECUTOR|52=20130404-14:07:51.226|56=BOV|10=085|
8=FIX.4.2|9=55|35=0|34=12|49=EXECUTOR|52=20130404-14:08:22.027|56=BOV|10=084|
8=FIX.4.2|9=55|35=0|34=12|49=BOV|52=20130404-14:08:22.030|56=EXECUTOR|10=078|
8=FIX.4.2|9=55|35=0|34=13|49=BOV|52=20130404-14:08:52.221|56=EXECUTOR|10=084|
8=FIX.4.2|9=55|35=0|34=13|49=EXECUTOR|52=20130404-14:08:52.224|56=BOV|10=087|
8=FIX.4.2|9=55|35=0|34=14|49=EXECUTOR|52=20130404-14:09:23.025|56=BOV|10=086|
8=FIX.4.2|9=55|35=0|34=14|49=BOV|52=20130404-14:09:23.026|56=EXECUTOR|10=087|
8=FIX.4.2|9=55|35=0|34=15|49=BOV|52=20130404-14:09:53.290|56=EXECUTOR|10=094|
8=FIX.4.2|9=55|35=0|34=15|49=EXECUTOR|52=20130404-14:09:53.292|56=BOV|10=096|
8=FIX.4.2|9=72|35=A|34=1|49=EXECUTOR|52=20130404-14:10:44.305|56=BOV|98=0|108=30|141=Y|10=116|
8=FIX.4.2|9=72|35=A|34=1|49=BOV|52=20130404-14:10:44.329|56=EXECUTOR|98=0|108=30|141=Y|10=122|
8=FIX.4.2|9=54|35=0|34=2|49=BOV|52=20130404-14:11:14.856|56=EXECUTOR|10=039|
8=FIX.4.2|9=54|35=0|34=2|49=EXECUTOR|52=20130404-14:11:14.859|56=BOV|10=042|
8=FIX.4.2|9=184|35=D|34=3|49=EXECUTOR|52=20130404-14:11:36.402|56=BOV|1=43121|11=f9fb55a2-4b1b-471a-8612-2b17fe01e9ab|21=1|38=10|40=2|44=56405|54=2|55=INDJ13|59=0|60=20130404-14:11:36.400|110=0|111=0|10=015|
8=FIX.4.2|9=184|35=D|34=4|49=EXECUTOR|52=20130404-14:11:36.404|56=BOV|1=43121|11=e845f6cf-eeec-427e-8fde-730a5d2df345|21=1|38=10|40=2|44=55035|54=1|55=INDJ13|59=0|60=20130404-14:11:36.404|110=0|111=0|10=193|
8=FIX.4.2|9=221|35=8|34=3|49=BOV|52=20130404-14:11:36.444|56=EXECUTOR|6=0|11=f9fb55a2-4b1b-471a-8612-2b17fe01e9ab|14=0|17=6868566e-5698-41fd-8bb4-07558be2a7f0|20=0|37=f9fb55a2-4b1b-471a-8612-2b17fe01e9ab|39=0|54=2|55=INDJ13|150=0|151=10|10=221|
8=FIX.4.2|9=221|35=8|34=4|49=BOV|52=20130404-14:11:36.450|56=EXECUTOR|6=0|11=e845f6cf-eeec-427e-8fde-730a5d2df345|14=0|17=04630b86-0811-46a8-9ee4-5f3965047ae4|20=0|37=e845f6cf-eeec-427e-8fde-730a5d2df345|39=0|54=1|55=INDJ13|150=0|151=10|10=193|
8=FIX.4.2|9=54|35=0|34=5|49=BOV|52=20130404-14:12:06.854|56=EXECUTOR|10=042|
8=FIX.4.2|9=54|35=0|34=5|49=EXECUTOR|52=20130404-14:12:06.858|56=BOV|10=046|
8=FIX.4.2|9=54|35=0|34=6|49=EXECUTOR|52=20130404-14:12:37.280|56=BOV|10=040|
8=FIX.4.2|9=54|35=0|34=6|49=BOV|52=20130404-14:12:37.283|56=EXECUTOR|10=043|
8=FIX.4.2|9=54|35=0|34=7|49=BOV|52=20130404-14:13:07.852|56=EXECUTOR|10=044|
8=FIX.4.2|9=54|35=0|34=7|49=EXECUTOR|52=20130404-14:13:07.855|56=BOV|10=047|
8=FIX.4.2|9=54|35=0|34=8|49=EXECUTOR|52=20130404-14:13:38.277|56=BOV|10=050|
8=FIX.4.2|9=54|35=0|34=8|49=BOV|52=20130404-14:13:38.280|56=EXECUTOR|10=044|
8=FIX.4.2|9=54|35=0|34=9|49=BOV|52=20130404-14:14:08.849|56=EXECUTOR|10=054|
8=FIX.4.2|9=54|35=0|34=9|49=EXECUTOR|52=20130404-14:14:08.852|56=BOV|10=048|
8=FIX.4.2|9=72|35=A|34=1|49=EXECUTOR|52=20130404-14:15:06.187|56=BOV|98=0|108=30|141=Y|10=127|
8=FIX.4.2|9=72|35=A|34=1|49=BOV|52=20130404-14:15:06.217|56=EXECUTOR|98=0|108=30|141=Y|10=121|
8=FIX.4.2|9=54|35=0|34=2|49=BOV|52=20130404-14:15:36.931|56=EXECUTOR|10=041|
8=FIX.4.2|9=54|35=0|34=2|49=EXECUTOR|52=20130404-14:15:36.937|56=BOV|10=047|
8=FIX.4.2|9=54|35=0|34=3|49=EXECUTOR|52=20130404-14:16:07.161|56=BOV|10=036|
8=FIX.4.2|9=54|35=0|34=3|49=BOV|52=20130404-14:16:07.165|56=EXECUTOR|10=040|
8=FIX.4.2|9=54|35=0|34=4|49=BOV|52=20130404-14:16:37.929|56=EXECUTOR|10=052|
8=FIX.4.2|9=54|35=0|34=4|49=EXECUTOR|52=20130404-14:16:37.933|56=BOV|10=047|
8=FIX.4.2|9=54|35=0|34=5|49=EXECUTOR|52=20130404-14:17:08.159|56=BOV|10=047|
8=FIX.4.2|9=54|35=0|34=5|49=BOV|52=20130404-14:17:08.163|56=EXECUTOR|10=042|
8=FIX.4.2|9=54|35=0|34=6|49=BOV|52=20130404-14:17:38.926|56=EXECUTOR|10=053|
8=FIX.4.2|9=54|35=0|34=6|49=EXECUTOR|52=20130404-14:17:38.930|56=BOV|10=048|
8=FIX.4.2|9=54|35=0|34=7|49=EXECUTOR|52=20130404-14:18:09.156|56=BOV|10=048|
8=FIX.4.2|9=54|35=0|34=7|49=BOV|52=20130404-14:18:09.160|56=EXECUTOR|10=043|
8=FIX.4.2|9=54|35=0|34=8|49=BOV|52=20130404-14:18:39.924|56=EXECUTOR|10=055|
8=FIX.4.2|9=54|35=0|34=8|49=EXECUTOR|52=20130404-14:18:39.929|56=BOV|10=060|
8=FIX.4.2|9=184|35=D|34=9|49=EXECUTOR|52=20130404-14:19:09.437|56=BOV|1=43121|11=eac51a13-9e80-43e0-8a1f-f6c738e05ff7|21=1|38=10|40=2|44=56340|54=2|55=INDJ13|59=0|60=20130404-14:19:09.436|110=0|111=0|10=068|
8=FIX.4.2|9=185|35=D|34=10|49=EXECUTOR|52=20130404-14:19:09.439|56=BOV|1=43121|11=dc6d5c5d-435e-49ec-b4ac-579d2b0e43b1|21=1|38=10|40=2|44=55035|54=1|55=INDJ13|59=0|60=20130404-14:19:09.439|110=0|111=0|10=203|
8=FIX.4.2|9=221|35=8|34=9|49=BOV|52=20130404-14:19:09.480|56=EXECUTOR|6=0|11=eac51a13-9e80-43e0-8a1f-f6c738e05ff7|14=0|17=3f04a628-0178-410d-b6b8-f6caa68136a4|20=0|37=eac51a13-9e80-43e0-8a1f-f6c738e05ff7|39=0|54=2|55=INDJ13|150=0|151=10|10=021|
8=FIX.4.2|9=222|35=8|34=10|49=BOV|52=20130404-14:19:09.486|56=EXECUTOR|6=0|11=dc6d5c5d-435e-49ec-b4ac-579d2b0e43b1|14=0|17=ccbd09ad-4526-4077-a8ac-f8fed670c959|20=0|37=dc6d5c5d-435e-49ec-b4ac-579d2b0e43b1|39=0|54=1|55=INDJ13|150=0|151=10|10=206|
8=FIX.4.2|9=191|35=F|34=11|49=EXECUTOR|52=20130404-14:19:29.319|56=BOV|1=43121|11=eac51a13-9e80-43e0-8a1f-f6c738e05ff7:1|38=10|41=eac51a13-9e80-43e0-8a1f-f6c738e05ff7|54=2|55=INDJ13|60=20130404-14:19:29.319|10=251|
8=FIX.4.2|9=191|35=F|34=12|49=EXECUTOR|52=20130404-14:19:29.322|56=BOV|1=43121|11=dc6d5c5d-435e-49ec-b4ac-579d2b0e43b1:2|38=10|41=dc6d5c5d-435e-49ec-b4ac-579d2b0e43b1|54=1|55=INDJ13|60=20130404-14:19:29.322|10=164|
8=FIX.4.2|9=226|35=8|34=11|49=BOV|52=20130404-14:19:29.326|56=EXECUTOR|6=0|11=eac51a13-9e80-43e0-8a1f-f6c738e05ff7:1|14=0|17=d91c661f-d331-456f-a6f5-42a84e5b497a|20=0|37=eac51a13-9e80-43e0-8a1f-f6c738e05ff7:1|39=4|54=2|55=INDJ13|150=4|151=10|10=101|
8=FIX.4.2|9=226|35=8|34=12|49=BOV|52=20130404-14:19:29.331|56=EXECUTOR|6=0|11=dc6d5c5d-435e-49ec-b4ac-579d2b0e43b1:2|14=0|17=6b9b28e3-c7bf-474c-ad9e-f418b8e9f089|20=0|37=dc6d5c5d-435e-49ec-b4ac-579d2b0e43b1:2|39=4|54=1|55=INDJ13|150=4|151=10|10=187|
8=FIX.4.2|9=55|35=0|34=13|49=BOV|52=20130404-14:19:59.921|56=EXECUTOR|10=100|
8=FIX.4.2|9=55|35=0|34=13|49=EXECUTOR|52=20130404-14:19:59.925|56=BOV|10=104|
8=FIX.4.2|9=55|35=0|34=14|49=EXECUTOR|52=20130404-14:20:30.151|56=BOV|10=077|
8=FIX.4.2|9=55|35=0|34=14|49=BOV|52=20130404-14:20:30.154|56=EXECUTOR|10=080|
8=FIX.4.2|9=55|35=0|34=15|49=BOV|52=20130404-14:21:00.918|56=EXECUTOR|10=087|
8=FIX.4.2|9=55|35=0|34=15|49=EXECUTOR|52=20130404-14:21:00.921|56=BOV|10=081|
8=FIX.4.2|9=55|35=0|34=16|49=EXECUTOR|52=20130404-14:21:31.148|56=BOV|10=087|
8=FIX.4.2|9=55|35=0|34=16|49=BOV|52=20130404-14:21:31.151|56=EXECUTOR|10=081|
8=FIX.4.2|9=72|35=A|34=1|49=EXECUTOR|52=20130404-14:22:41.452|56=BOV|98=0|108=30|141=Y|10=119|
8=FIX.4.2|9=72|35=A|34=1|49=BOV|52=20130404-14:22:41.483|56=EXECUTOR|98=0|108=30|141=Y|10=123|
8=FIX.4.2|9=54|35=0|34=2|49=BOV|52=20130404-14:23:11.796|56=EXECUTOR|10=042|
8=FIX.4.2|9=54|35=0|34=2|49=EXECUTOR|52=20130404-14:23:11.801|56=BOV|10=029|
8=FIX.4.2|9=54|35=0|34=3|49=EXECUTOR|52=20130404-14:23:42.424|56=BOV|10=035|
8=FIX.4.2|9=54|35=0|34=3|49=BOV|52=20130404-14:23:42.428|56=EXECUTOR|10=039|
8=FIX.4.2|9=54|35=0|34=4|49=BOV|52=20130404-14:24:12.792|56=EXECUTOR|10=042|
8=FIX.4.2|9=54|35=0|34=4|49=EXECUTOR|52=20130404-14:24:12.794|56=BOV|10=044|
8=FIX.4.2|9=54|35=0|34=5|49=EXECUTOR|52=20130404-14:24:43.422|56=BOV|10=037|
8=FIX.4.2|9=54|35=0|34=5|49=BOV|52=20130404-14:24:43.426|56=EXECUTOR|10=041|
8=FIX.4.2|9=54|35=0|34=6|49=BOV|52=20130404-14:25:13.790|56=EXECUTOR|10=044|
8=FIX.4.2|9=54|35=0|34=6|49=EXECUTOR|52=20130404-14:25:13.795|56=BOV|10=049|
8=FIX.4.2|9=54|35=0|34=7|49=EXECUTOR|52=20130404-14:25:44.419|56=BOV|10=047|
8=FIX.4.2|9=54|35=0|34=7|49=BOV|52=20130404-14:25:44.423|56=EXECUTOR|10=042|
8=FIX.4.2|9=54|35=0|34=8|49=BOV|52=20130404-14:26:14.787|56=EXECUTOR|10=054|
8=FIX.4.2|9=54|35=0|34=8|49=EXECUTOR|52=20130404-14:26:14.791|56=BOV|10=049|
8=FIX.4.2|9=54|35=0|34=9|49=EXECUTOR|52=20130404-14:26:45.417|56=BOV|10=049|
8=FIX.4.2|9=54|35=0|34=9|49=BOV|52=20130404-14:26:45.421|56=EXECUTOR|10=044|
8=FIX.4.2|9=55|35=0|34=10|49=BOV|52=20130404-14:27:15.785|56=EXECUTOR|10=096|
8=FIX.4.2|9=55|35=0|34=10|49=EXECUTOR|52=20130404-14:27:15.789|56=BOV|10=100|
8=FIX.4.2|9=55|35=0|34=11|49=EXECUTOR|52=20130404-14:27:46.414|56=BOV|10=090|
8=FIX.4.2|9=55|35=0|34=11|49=BOV|52=20130404-14:27:46.417|56=EXECUTOR|10=093|
8=FIX.4.2|9=55|35=0|34=12|49=BOV|52=20130404-14:28:16.782|56=EXECUTOR|10=097|
8=FIX.4.2|9=55|35=0|34=12|49=EXECUTOR|52=20130404-14:28:16.786|56=BOV|10=101|
8=FIX.4.2|9=55|35=0|34=13|49=EXECUTOR|52=20130404-14:28:47.412|56=BOV|10=092|
8=FIX.4.2|9=55|35=0|34=13|49=BOV|52=20130404-14:28:47.415|56=EXECUTOR|10=095|
8=FIX.4.2|9=55|35=0|34=14|49=BOV|52=20130404-14:29:17.780|56=EXECUTOR|10=099|
8=FIX.4.2|9=55|35=0|34=14|49=EXECUTOR|52=20130404-14:29:17.784|56=BOV|10=103|
8=FIX.4.2|9=55|35=0|34=15|49=EXECUTOR|52=20130404-14:29:48.409|56=BOV|10=102|
8=FIX.4.2|9=55|35=0|34=15|49=BOV|52=20130404-14:29:48.411|56=EXECUTOR|10=095|
8=FIX.4.2|9=55|35=0|34=16|49=BOV|52=20130404-14:30:18.777|56=EXECUTOR|10=100|
8=FIX.4.2|9=55|35=0|34=16|49=EXECUTOR|52=20130404-14:30:18.780|56=BOV|10=094|
8=FIX.4.2|9=55|35=0|34=17|49=EXECUTOR|52=20130404-14:30:49.407|56=BOV|10=095|
8=FIX.4.2|9=55|35=0|34=17|49=BOV|52=20130404-14:30:49.410|56=EXECUTOR|10=089|
8=FIX.4.2|9=55|35=0|34=18|49=BOV|52=20130404-14:31:19.775|56=EXECUTOR|10=102|
8=FIX.4.2|9=55|35=0|34=18|49=EXECUTOR|52=20130404-14:31:19.779|56=BOV|10=106|
8=FIX.4.2|9=55|35=0|34=19|49=EXECUTOR|52=20130404-14:31:50.404|56=BOV|10=087|
8=FIX.4.2|9=55|35=0|34=19|49=BOV|52=20130404-14:31:50.407|56=EXECUTOR|10=090|
8=FIX.4.2|9=55|35=0|34=20|49=BOV|52=20130404-14:32:20.772|56=EXECUTOR|10=085|
8=FIX.4.2|9=55|35=0|34=20|49=EXECUTOR|52=20130404-14:32:20.776|56=BOV|10=089|
8=FIX.4.2|9=55|35=0|34=21|49=EXECUTOR|52=20130404-14:32:51.402|56=BOV|10=080|
8=FIX.4.2|9=55|35=0|34=21|49=BOV|52=20130404-14:32:51.405|56=EXECUTOR|10=083|
8=FIX.4.2|9=55|35=0|34=22|49=BOV|52=20130404-14:33:21.770|56=EXECUTOR|10=087|
8=FIX.4.2|9=55|35=0|34=22|49=EXECUTOR|52=20130404-14:33:21.774|56=BOV|10=091|
8=FIX.4.2|9=55|35=0|34=23|49=EXECUTOR|52=20130404-14:33:52.399|56=BOV|10=099|
8=FIX.4.2|9=55|35=0|34=23|49=BOV|52=20130404-14:33:52.402|56=EXECUTOR|10=084|
8=FIX.4.2|9=55|35=0|34=24|49=BOV|52=20130404-14:34:22.767|56=EXECUTOR|10=097|
8=FIX.4.2|9=55|35=0|34=24|49=EXECUTOR|52=20130404-14:34:22.771|56=BOV|10=092|
8=FIX.4.2|9=55|35=0|34=25|49=EXECUTOR|52=20130404-14:34:53.397|56=BOV|10=101|
8=FIX.4.2|9=55|35=0|34=25|49=BOV|52=20130404-14:34:53.400|56=EXECUTOR|10=086|
8=FIX.4.2|9=55|35=0|34=26|49=BOV|52=20130404-14:35:23.765|56=EXECUTOR|10=099|
8=FIX.4.2|9=55|35=0|34=26|49=EXECUTOR|52=20130404-14:35:23.769|56=BOV|10=103|
8=FIX.4.2|9=55|35=0|34=27|49=EXECUTOR|52=20130404-14:35:54.394|56=BOV|10=102|
8=FIX.4.2|9=55|35=0|34=27|49=BOV|52=20130404-14:35:54.397|56=EXECUTOR|10=105|
8=FIX.4.2|9=55|35=0|34=28|49=BOV|52=20130404-14:36:24.762|56=EXECUTOR|10=100|
8=FIX.4.2|9=55|35=0|34=28|49=EXECUTOR|52=20130404-14:36:24.766|56=BOV|10=104|
8=FIX.4.2|9=55|35=0|34=29|49=EXECUTOR|52=20130404-14:36:55.392|56=BOV|10=104|
8=FIX.4.2|9=55|35=0|34=29|49=BOV|52=20130404-14:36:55.395|56=EXECUTOR|10=107|
8=FIX.4.2|9=55|35=0|34=30|49=BOV|52=20130404-14:37:25.760|56=EXECUTOR|10=093|
8=FIX.4.2|9=55|35=0|34=30|49=EXECUTOR|52=20130404-14:37:25.761|56=BOV|10=094|
8=FIX.4.2|9=55|35=0|34=31|49=EXECUTOR|52=20130404-14:37:56.389|56=BOV|10=105|
8=FIX.4.2|9=55|35=0|34=31|49=BOV|52=20130404-14:37:56.391|56=EXECUTOR|10=098|
8=FIX.4.2|9=55|35=0|34=32|49=BOV|52=20130404-14:38:26.757|56=EXECUTOR|10=103|
8=FIX.4.2|9=55|35=0|34=32|49=EXECUTOR|52=20130404-14:38:26.760|56=BOV|10=097|
8=FIX.4.2|9=55|35=0|34=33|49=EXECUTOR|52=20130404-14:38:57.387|56=BOV|10=107|
8=FIX.4.2|9=55|35=0|34=33|49=BOV|52=20130404-14:38:57.390|56=EXECUTOR|10=101|
8=FIX.4.2|9=55|35=0|34=34|49=BOV|52=20130404-14:39:27.755|56=EXECUTOR|10=105|
8=FIX.4.2|9=55|35=0|34=34|49=EXECUTOR|52=20130404-14:39:27.759|56=BOV|10=109|
8=FIX.4.2|9=55|35=0|34=35|49=EXECUTOR|52=20130404-14:39:58.384|56=BOV|10=108|
8=FIX.4.2|9=55|35=0|34=35|49=BOV|52=20130404-14:39:58.385|56=EXECUTOR|10=109|
8=FIX.4.2|9=55|35=0|34=36|49=BOV|52=20130404-14:40:28.752|56=EXECUTOR|10=097|
8=FIX.4.2|9=55|35=0|34=36|49=EXECUTOR|52=20130404-14:40:28.754|56=BOV|10=099|
8=FIX.4.2|9=55|35=0|34=37|49=EXECUTOR|52=20130404-14:40:59.382|56=BOV|10=101|
8=FIX.4.2|9=55|35=0|34=37|49=BOV|52=20130404-14:40:59.383|56=EXECUTOR|10=102|
8=FIX.4.2|9=55|35=0|34=38|49=BOV|52=20130404-14:41:29.750|56=EXECUTOR|10=099|
8=FIX.4.2|9=55|35=0|34=38|49=EXECUTOR|52=20130404-14:41:29.753|56=BOV|10=102|
8=FIX.4.2|9=55|35=0|34=39|49=EXECUTOR|52=20130404-14:42:00.379|56=BOV|10=097|
8=FIX.4.2|9=55|35=0|34=39|49=BOV|52=20130404-14:42:00.382|56=EXECUTOR|10=091|
8=FIX.4.2|9=55|35=0|34=40|49=BOV|52=20130404-14:42:30.747|56=EXECUTOR|10=091|
8=FIX.4.2|9=55|35=0|34=40|49=EXECUTOR|52=20130404-14:42:30.751|56=BOV|10=086|
8=FIX.4.2|9=55|35=0|34=41|49=EXECUTOR|52=20130404-14:43:01.377|56=BOV|10=090|
8=FIX.4.2|9=55|35=0|34=41|49=BOV|52=20130404-14:43:01.380|56=EXECUTOR|10=084|
8=FIX.4.2|9=55|35=0|34=42|49=BOV|52=20130404-14:43:31.745|56=EXECUTOR|10=093|
8=FIX.4.2|9=55|35=0|34=42|49=EXECUTOR|52=20130404-14:43:31.747|56=BOV|10=095|
8=FIX.4.2|9=55|35=0|34=43|49=EXECUTOR|52=20130404-14:44:02.374|56=BOV|10=091|
8=FIX.4.2|9=55|35=0|34=43|49=BOV|52=20130404-14:44:02.376|56=EXECUTOR|10=093|
8=FIX.4.2|9=55|35=0|34=44|49=BOV|52=20130404-14:44:32.742|56=EXECUTOR|10=094|
8=FIX.4.2|9=55|35=0|34=44|49=EXECUTOR|52=20130404-14:44:32.744|56=BOV|10=096|
8=FIX.4.2|9=55|35=0|34=45|49=EXECUTOR|52=20130404-14:45:03.372|56=BOV|10=093|
8=FIX.4.2|9=55|35=0|34=45|49=BOV|52=20130404-14:45:03.374|56=EXECUTOR|10=095|
8=FIX.4.2|9=55|35=0|34=46|49=BOV|52=20130404-14:45:33.740|56=EXECUTOR|10=096|
8=FIX.4.2|9=55|35=0|34=46|49=EXECUTOR|52=20130404-14:45:33.742|56=BOV|10=098|
8=FIX.4.2|9=55|35=0|34=47|49=EXECUTOR|52=20130404-14:46:04.369|56=BOV|10=103|
8=FIX.4.2|9=55|35=0|34=47|49=BOV|52=20130404-14:46:04.372|56=EXECUTOR|10=097|
8=FIX.4.2|9=55|35=0|34=48|49=BOV|52=20130404-14:46:34.737|56=EXECUTOR|10=106|
8=FIX.4.2|9=55|35=0|34=48|49=EXECUTOR|52=20130404-14:46:34.741|56=BOV|10=101|
8=FIX.4.2|9=55|35=0|34=49|49=EXECUTOR|52=20130404-14:47:05.367|56=BOV|10=105|
8=FIX.4.2|9=55|35=0|34=49|49=BOV|52=20130404-14:47:05.369|56=EXECUTOR|10=107|
8=FIX.4.2|9=55|35=0|34=50|49=BOV|52=20130404-14:47:35.735|56=EXECUTOR|10=099|
8=FIX.4.2|9=55|35=0|34=50|49=EXECUTOR|52=20130404-14:47:35.737|56=BOV|10=101|
8=FIX.4.2|9=55|35=0|34=51|49=EXECUTOR|52=20130404-14:48:06.364|56=BOV|10=097|
8=FIX.4.2|9=55|35=0|34=51|49=BOV|52=20130404-14:48:06.366|56=EXECUTOR|10=099|
8=FIX.4.2|9=55|35=0|34=52|49=BOV|52=20130404-14:48:36.732|56=EXECUTOR|10=100|
8=FIX.4.2|9=55|35=0|34=52|49=EXECUTOR|52=20130404-14:48:36.736|56=BOV|10=104|
8=FIX.4.2|9=55|35=0|34=53|49=EXECUTOR|52=20130404-14:49:07.362|56=BOV|10=099|
8=FIX.4.2|9=55|35=0|34=53|49=BOV|52=20130404-14:49:07.364|56=EXECUTOR|10=101|
8=FIX.4.2|9=55|35=0|34=54|49=BOV|52=20130404-14:49:37.730|56=EXECUTOR|10=102|
8=FIX.4.2|9=55|35=0|34=54|49=EXECUTOR|52=20130404-14:49:37.732|56=BOV|10=104|
8=FIX.4.2|9=55|35=0|34=55|49=EXECUTOR|52=20130404-14:50:08.359|56=BOV|10=100|
8=FIX.4.2|9=55|35=0|34=55|49=BOV|52=20130404-14:50:08.362|56=EXECUTOR|10=094|
8=FIX.4.2|9=55|35=0|34=56|49=BOV|52=20130404-14:50:38.727|56=EXECUTOR|10=103|
8=FIX.4.2|9=55|35=0|34=56|49=EXECUTOR|52=20130404-14:50:38.729|56=BOV|10=105|
8=FIX.4.2|9=55|35=0|34=57|49=EXECUTOR|52=20130404-14:51:09.357|56=BOV|10=102|
8=FIX.4.2|9=55|35=0|34=57|49=BOV|52=20130404-14:51:09.359|56=EXECUTOR|10=104|
8=FIX.4.2|9=55|35=0|34=58|49=BOV|52=20130404-14:51:39.725|56=EXECUTOR|10=105|
8=FIX.4.2|9=55|35=0|34=58|49=EXECUTOR|52=20130404-14:51:39.727|56=BOV|10=107|
8=FIX.4.2|9=55|35=0|34=59|49=EXECUTOR|52=20130404-14:52:10.354|56=BOV|10=094|
8=FIX.4.2|9=55|35=0|34=59|49=BOV|52=20130404-14:52:10.357|56=EXECUTOR|10=097|
8=FIX.4.2|9=55|35=0|34=60|49=BOV|52=20130404-14:52:40.722|56=EXECUTOR|10=088|
8=FIX.4.2|9=55|35=0|34=60|49=EXECUTOR|52=20130404-14:52:40.724|56=BOV|10=090|
8=FIX.4.2|9=55|35=0|34=61|49=EXECUTOR|52=20130404-14:53:11.352|56=BOV|10=087|
8=FIX.4.2|9=55|35=0|34=61|49=BOV|52=20130404-14:53:11.354|56=EXECUTOR|10=089|
8=FIX.4.2|9=55|35=0|34=62|49=BOV|52=20130404-14:53:41.720|56=EXECUTOR|10=090|
8=FIX.4.2|9=55|35=0|34=62|49=EXECUTOR|52=20130404-14:53:41.722|56=BOV|10=092|
8=FIX.4.2|9=55|35=0|34=63|49=EXECUTOR|52=20130404-14:54:12.349|56=BOV|10=097|
8=FIX.4.2|9=55|35=0|34=63|49=BOV|52=20130404-14:54:12.351|56=EXECUTOR|10=090|
8=FIX.4.2|9=55|35=0|34=64|49=BOV|52=20130404-14:54:42.717|56=EXECUTOR|10=100|
8=FIX.4.2|9=55|35=0|34=64|49=EXECUTOR|52=20130404-14:54:42.720|56=BOV|10=094|
8=FIX.4.2|9=55|35=0|34=65|49=EXECUTOR|52=20130404-14:55:13.347|56=BOV|10=099|
8=FIX.4.2|9=55|35=0|34=65|49=BOV|52=20130404-14:55:13.349|56=EXECUTOR|10=101|
8=FIX.4.2|9=55|35=0|34=66|49=BOV|52=20130404-14:55:43.715|56=EXECUTOR|10=102|
8=FIX.4.2|9=55|35=0|34=66|49=EXECUTOR|52=20130404-14:55:43.717|56=BOV|10=104|
8=FIX.4.2|9=55|35=0|34=67|49=EXECUTOR|52=20130404-14:56:14.344|56=BOV|10=100|
8=FIX.4.2|9=55|35=0|34=67|49=BOV|52=20130404-14:56:14.346|56=EXECUTOR|10=102|
8=FIX.4.2|9=55|35=0|34=68|49=BOV|52=20130404-14:56:44.712|56=EXECUTOR|10=103|
8=FIX.4.2|9=55|35=0|34=68|49=EXECUTOR|52=20130404-14:56:44.714|56=BOV|10=105|
8=FIX.4.2|9=55|35=0|34=69|49=EXECUTOR|52=20130404-14:57:15.342|56=BOV|10=102|
8=FIX.4.2|9=55|35=0|34=69|49=BOV|52=20130404-14:57:15.344|56=EXECUTOR|10=104|
8=FIX.4.2|9=55|35=0|34=70|49=BOV|52=20130404-14:57:45.710|56=EXECUTOR|10=096|
8=FIX.4.2|9=55|35=0|34=70|49=EXECUTOR|52=20130404-14:57:45.713|56=BOV|10=099|
8=FIX.4.2|9=55|35=0|34=71|49=EXECUTOR|52=20130404-14:58:16.339|56=BOV|10=103|
8=FIX.4.2|9=55|35=0|34=71|49=BOV|52=20130404-14:58:16.341|56=EXECUTOR|10=096|
8=FIX.4.2|9=55|35=0|34=72|49=BOV|52=20130404-14:58:46.707|56=EXECUTOR|10=106|
8=FIX.4.2|9=55|35=0|34=72|49=EXECUTOR|52=20130404-14:58:46.710|56=BOV|10=100|
8=FIX.4.2|9=55|35=0|34=73|49=EXECUTOR|52=20130404-14:59:17.337|56=BOV|10=105|
8=FIX.4.2|9=55|35=0|34=73|49=BOV|52=20130404-14:59:17.338|56=EXECUTOR|10=106|
8=FIX.4.2|9=55|35=0|34=74|49=BOV|52=20130404-14:59:47.705|56=EXECUTOR|10=108|
8=FIX.4.2|9=55|35=0|34=74|49=EXECUTOR|52=20130404-14:59:47.707|56=BOV|10=110|
8=FIX.4.2|9=55|35=0|34=75|49=EXECUTOR|52=20130404-15:00:18.334|56=BOV|10=092|
8=FIX.4.2|9=55|35=0|34=75|49=BOV|52=20130404-15:00:18.336|56=EXECUTOR|10=094|
8=FIX.4.2|9=55|35=0|34=76|49=BOV|52=20130404-15:00:48.702|56=EXECUTOR|10=095|
8=FIX.4.2|9=55|35=0|34=76|49=EXECUTOR|52=20130404-15:00:48.705|56=BOV|10=098|
8=FIX.4.2|9=55|35=0|34=77|49=EXECUTOR|52=20130404-15:01:19.332|56=BOV|10=094|
8=FIX.4.2|9=55|35=0|34=77|49=BOV|52=20130404-15:01:19.334|56=EXECUTOR|10=096|
8=FIX.4.2|9=55|35=0|34=78|49=BOV|52=20130404-15:01:49.700|56=EXECUTOR|10=097|
8=FIX.4.2|9=55|35=0|34=78|49=EXECUTOR|52=20130404-15:01:49.702|56=BOV|10=099|
8=FIX.4.2|9=55|35=0|34=79|49=EXECUTOR|52=20130404-15:02:20.329|56=BOV|10=095|
8=FIX.4.2|9=55|35=0|34=79|49=BOV|52=20130404-15:02:20.331|56=EXECUTOR|10=088|
8=FIX.4.2|9=55|35=0|34=80|49=BOV|52=20130404-15:02:50.697|56=EXECUTOR|10=098|
8=FIX.4.2|9=55|35=0|34=80|49=EXECUTOR|52=20130404-15:02:50.699|56=BOV|10=100|
8=FIX.4.2|9=55|35=0|34=81|49=EXECUTOR|52=20130404-15:03:21.327|56=BOV|10=088|
8=FIX.4.2|9=55|35=0|34=81|49=BOV|52=20130404-15:03:21.329|56=EXECUTOR|10=090|
8=FIX.4.2|9=55|35=0|34=82|49=BOV|52=20130404-15:03:51.695|56=EXECUTOR|10=100|
8=FIX.4.2|9=55|35=0|34=82|49=EXECUTOR|52=20130404-15:03:51.697|56=BOV|10=102|
8=FIX.4.2|9=55|35=0|34=83|49=EXECUTOR|52=20130404-15:04:22.324|56=BOV|10=089|
8=FIX.4.2|9=55|35=0|34=83|49=BOV|52=20130404-15:04:22.327|56=EXECUTOR|10=092|
8=FIX.4.2|9=55|35=0|34=84|49=BOV|52=20130404-15:04:52.692|56=EXECUTOR|10=101|
8=FIX.4.2|9=55|35=0|34=84|49=EXECUTOR|52=20130404-15:04:52.694|56=BOV|10=103|
8=FIX.4.2|9=55|35=0|34=85|49=EXECUTOR|52=20130404-15:05:23.322|56=BOV|10=091|
8=FIX.4.2|9=55|35=0|34=85|49=BOV|52=20130404-15:05:23.324|56=EXECUTOR|10=093|
8=FIX.4.2|9=55|35=0|34=86|49=BOV|52=20130404-15:05:53.690|56=EXECUTOR|10=103|
8=FIX.4.2|9=55|35=0|34=86|49=EXECUTOR|52=20130404-15:05:53.692|56=BOV|10=105|
8=FIX.4.2|9=55|35=0|34=87|49=EXECUTOR|52=20130404-15:06:24.319|56=BOV|10=101|
8=FIX.4.2|9=55|35=0|34=87|49=BOV|52=20130404-15:06:24.320|56=EXECUTOR|10=093|
8=FIX.4.2|9=55|35=0|34=88|49=BOV|52=20130404-15:06:54.687|56=EXECUTOR|10=113|
8=FIX.4.2|9=55|35=0|34=88|49=EXECUTOR|52=20130404-15:06:54.689|56=BOV|10=115|
8=FIX.4.2|9=55|35=0|34=89|49=EXECUTOR|52=20130404-15:07:25.317|56=BOV|10=103|
8=FIX.4.2|9=55|35=0|34=89|49=BOV|52=20130404-15:07:25.319|56=EXECUTOR|10=105|
8=FIX.4.2|9=55|35=0|34=90|49=BOV|52=20130404-15:07:55.685|56=EXECUTOR|10=106|
8=FIX.4.2|9=55|35=0|34=90|49=EXECUTOR|52=20130404-15:07:55.687|56=BOV|10=108|
8=FIX.4.2|9=55|35=0|34=91|49=EXECUTOR|52=20130404-15:08:26.314|56=BOV|10=095|
8=FIX.4.2|9=55|35=0|34=91|49=BOV|52=20130404-15:08:26.315|56=EXECUTOR|10=096|
8=FIX.4.2|9=55|35=0|34=92|49=BOV|52=20130404-15:08:56.682|56=EXECUTOR|10=107|
8=FIX.4.2|9=55|35=0|34=92|49=EXECUTOR|52=20130404-15:08:56.684|56=BOV|10=109|
8=FIX.4.2|9=55|35=0|34=93|49=EXECUTOR|52=20130404-15:09:27.312|56=BOV|10=097|
8=FIX.4.2|9=55|35=0|34=93|49=BOV|52=20130404-15:09:27.314|56=EXECUTOR|10=099|
8=FIX.4.2|9=55|35=0|34=94|49=BOV|52=20130404-15:09:57.680|56=EXECUTOR|10=109|
8=FIX.4.2|9=55|35=0|34=94|49=EXECUTOR|52=20130404-15:09:57.682|56=BOV|10=111|
8=FIX.4.2|9=55|35=0|34=95|49=EXECUTOR|52=20130404-15:10:28.309|56=BOV|10=098|
8=FIX.4.2|9=55|35=0|34=95|49=BOV|52=20130404-15:10:28.311|56=EXECUTOR|10=091|
8=FIX.4.2|9=55|35=0|34=96|49=BOV|52=20130404-15:10:58.677|56=EXECUTOR|10=110|
8=FIX.4.2|9=55|35=0|34=96|49=EXECUTOR|52=20130404-15:10:58.679|56=BOV|10=112|
8=FIX.4.2|9=55|35=0|34=97|49=EXECUTOR|52=20130404-15:11:29.307|56=BOV|10=100|
8=FIX.4.2|9=55|35=0|34=97|49=BOV|52=20130404-15:11:29.309|56=EXECUTOR|10=102|
8=FIX.4.2|9=55|35=0|34=98|49=BOV|52=20130404-15:11:59.675|56=EXECUTOR|10=112|
8=FIX.4.2|9=55|35=0|34=98|49=EXECUTOR|52=20130404-15:11:59.677|56=BOV|10=114|
8=FIX.4.2|9=55|35=0|34=99|49=EXECUTOR|52=20130404-15:12:30.304|56=BOV|10=092|
8=FIX.4.2|9=55|35=0|34=99|49=BOV|52=20130404-15:12:30.306|56=EXECUTOR|10=094|
8=FIX.4.2|9=56|35=0|34=100|49=BOV|52=20130404-15:13:00.672|56=EXECUTOR|10=130|
8=FIX.4.2|9=56|35=0|34=100|49=EXECUTOR|52=20130404-15:13:00.674|56=BOV|10=132|
8=FIX.4.2|9=56|35=0|34=101|49=EXECUTOR|52=20130404-15:13:31.302|56=BOV|10=125|
8=FIX.4.2|9=56|35=0|34=101|49=BOV|52=20130404-15:13:31.303|56=EXECUTOR|10=126|
8=FIX.4.2|9=56|35=0|34=102|49=BOV|52=20130404-15:14:01.670|56=EXECUTOR|10=132|
8=FIX.4.2|9=56|35=0|34=102|49=EXECUTOR|52=20130404-15:14:01.673|56=BOV|10=135|
8=FIX.4.2|9=56|35=0|34=103|49=EXECUTOR|52=20130404-15:14:32.299|56=BOV|10=144|
8=FIX.4.2|9=56|35=0|34=103|49=BOV|52=20130404-15:14:32.301|56=EXECUTOR|10=128|
8=FIX.4.2|9=56|35=0|34=104|49=BOV|52=20130404-15:15:02.667|56=EXECUTOR|10=142|
8=FIX.4.2|9=56|35=0|34=104|49=EXECUTOR|52=20130404-15:15:02.669|56=BOV|10=144|
8=FIX.4.2|9=56|35=0|34=105|49=EXECUTOR|52=20130404-15:15:33.297|56=BOV|10=146|
8=FIX.4.2|9=56|35=0|34=105|49=BOV|52=20130404-15:15:33.299|56=EXECUTOR|10=148|
8=FIX.4.2|9=56|35=0|34=106|49=BOV|52=20130404-15:16:03.665|56=EXECUTOR|10=144|
8=FIX.4.2|9=56|35=0|34=106|49=EXECUTOR|52=20130404-15:16:03.667|56=BOV|10=146|
8=FIX.4.2|9=56|35=0|34=107|49=EXECUTOR|52=20130404-15:16:34.294|56=BOV|10=147|
8=FIX.4.2|9=56|35=0|34=107|49=BOV|52=20130404-15:16:34.296|56=EXECUTOR|10=149|
8=FIX.4.2|9=56|35=0|34=108|49=BOV|52=20130404-15:17:04.662|56=EXECUTOR|10=145|
8=FIX.4.2|9=56|35=0|34=108|49=EXECUTOR|52=20130404-15:17:04.664|56=BOV|10=147|
8=FIX.4.2|9=56|35=0|34=109|49=EXECUTOR|52=20130404-15:17:35.292|56=BOV|10=149|
8=FIX.4.2|9=56|35=0|34=109|49=BOV|52=20130404-15:17:35.293|56=EXECUTOR|10=150|
8=FIX.4.2|9=56|35=0|34=110|49=BOV|52=20130404-15:18:05.660|56=EXECUTOR|10=138|
8=FIX.4.2|9=56|35=0|34=110|49=EXECUTOR|52=20130404-15:18:05.662|56=BOV|10=140|
8=FIX.4.2|9=56|35=0|34=111|49=EXECUTOR|52=20130404-15:18:36.289|56=BOV|10=150|
8=FIX.4.2|9=56|35=0|34=111|49=BOV|52=20130404-15:18:36.291|56=EXECUTOR|10=143|
8=FIX.4.2|9=56|35=0|34=112|49=BOV|52=20130404-15:19:06.657|56=EXECUTOR|10=148|
8=FIX.4.2|9=56|35=0|34=112|49=EXECUTOR|52=20130404-15:19:06.658|56=BOV|10=149|
8=FIX.4.2|9=56|35=0|34=113|49=EXECUTOR|52=20130404-15:19:37.287|56=BOV|10=152|
8=FIX.4.2|9=56|35=0|34=113|49=BOV|52=20130404-15:19:37.289|56=EXECUTOR|10=154|
8=FIX.4.2|9=56|35=0|34=114|49=BOV|52=20130404-15:20:07.655|56=EXECUTOR|10=141|
8=FIX.4.2|9=56|35=0|34=114|49=EXECUTOR|52=20130404-15:20:07.658|56=BOV|10=144|
8=FIX.4.2|9=56|35=0|34=115|49=EXECUTOR|52=20130404-15:20:38.284|56=BOV|10=144|
8=FIX.4.2|9=56|35=0|34=115|49=BOV|52=20130404-15:20:38.285|56=EXECUTOR|10=145|
8=FIX.4.2|9=56|35=0|34=116|49=BOV|52=20130404-15:21:08.652|56=EXECUTOR|10=142|
8=FIX.4.2|9=56|35=0|34=116|49=EXECUTOR|52=20130404-15:21:08.654|56=BOV|10=144|
8=FIX.4.2|9=56|35=0|34=117|49=EXECUTOR|52=20130404-15:21:39.282|56=BOV|10=146|
8=FIX.4.2|9=56|35=0|34=117|49=BOV|52=20130404-15:21:39.284|56=EXECUTOR|10=148|
8=FIX.4.2|9=56|35=0|34=118|49=BOV|52=20130404-15:22:09.650|56=EXECUTOR|10=144|
8=FIX.4.2|9=56|35=0|34=118|49=EXECUTOR|52=20130404-15:22:09.652|56=BOV|10=146|
8=FIX.4.2|9=56|35=0|34=119|49=EXECUTOR|52=20130404-15:22:40.279|56=BOV|10=147|
8=FIX.4.2|9=56|35=0|34=119|49=BOV|52=20130404-15:22:40.281|56=EXECUTOR|10=140|
8=FIX.4.2|9=56|35=0|34=120|49=BOV|52=20130404-15:23:10.647|56=EXECUTOR|10=136|
8=FIX.4.2|9=56|35=0|34=120|49=EXECUTOR|52=20130404-15:23:10.649|56=BOV|10=138|
8=FIX.4.2|9=56|35=0|34=121|49=EXECUTOR|52=20130404-15:23:41.277|56=BOV|10=140|
8=FIX.4.2|9=56|35=0|34=121|49=BOV|52=20130404-15:23:41.279|56=EXECUTOR|10=142|
8=FIX.4.2|9=56|35=0|34=122|49=BOV|52=20130404-15:24:11.645|56=EXECUTOR|10=138|
8=FIX.4.2|9=56|35=0|34=122|49=EXECUTOR|52=20130404-15:24:11.647|56=BOV|10=140|
8=FIX.4.2|9=56|35=0|34=123|49=EXECUTOR|52=20130404-15:24:42.274|56=BOV|10=141|
8=FIX.4.2|9=56|35=0|34=123|49=BOV|52=20130404-15:24:42.276|56=EXECUTOR|10=143|
8=FIX.4.2|9=56|35=0|34=124|49=BOV|52=20130404-15:25:12.642|56=EXECUTOR|10=139|
8=FIX.4.2|9=56|35=0|34=124|49=EXECUTOR|52=20130404-15:25:12.644|56=BOV|10=141|
8=FIX.4.2|9=56|35=0|34=125|49=EXECUTOR|52=20130404-15:25:43.272|56=BOV|10=143|
8=FIX.4.2|9=56|35=0|34=125|49=BOV|52=20130404-15:25:43.274|56=EXECUTOR|10=145|
8=FIX.4.2|9=56|35=0|34=126|49=BOV|52=20130404-15:26:13.640|56=EXECUTOR|10=141|
8=FIX.4.2|9=56|35=0|34=126|49=EXECUTOR|52=20130404-15:26:13.643|56=BOV|10=144|
8=FIX.4.2|9=56|35=0|34=127|49=EXECUTOR|52=20130404-15:26:44.269|56=BOV|10=153|
8=FIX.4.2|9=56|35=0|34=127|49=BOV|52=20130404-15:26:44.270|56=EXECUTOR|10=145|
8=FIX.4.2|9=56|35=0|34=128|49=BOV|52=20130404-15:27:14.637|56=EXECUTOR|10=151|
8=FIX.4.2|9=56|35=0|34=128|49=EXECUTOR|52=20130404-15:27:14.639|56=BOV|10=153|
8=FIX.4.2|9=56|35=0|34=129|49=EXECUTOR|52=20130404-15:27:45.267|56=BOV|10=155|
8=FIX.4.2|9=56|35=0|34=129|49=BOV|52=20130404-15:27:45.268|56=EXECUTOR|10=156|
8=FIX.4.2|9=56|35=0|34=130|49=BOV|52=20130404-15:28:15.635|56=EXECUTOR|10=144|
8=FIX.4.2|9=56|35=0|34=130|49=EXECUTOR|52=20130404-15:28:15.636|56=BOV|10=145|
8=FIX.4.2|9=56|35=0|34=131|49=EXECUTOR|52=20130404-15:28:46.264|56=BOV|10=147|
8=FIX.4.2|9=56|35=0|34=131|49=BOV|52=20130404-15:28:46.266|56=EXECUTOR|10=149|
8=FIX.4.2|9=56|35=0|34=132|49=BOV|52=20130404-15:29:16.632|56=EXECUTOR|10=145|
8=FIX.4.2|9=56|35=0|34=132|49=EXECUTOR|52=20130404-15:29:16.634|56=BOV|10=147|
8=FIX.4.2|9=56|35=0|34=133|49=EXECUTOR|52=20130404-15:29:47.262|56=BOV|10=149|
8=FIX.4.2|9=56|35=0|34=133|49=BOV|52=20130404-15:29:47.264|56=EXECUTOR|10=151|
8=FIX.4.2|9=56|35=0|34=134|49=BOV|52=20130404-15:30:17.630|56=EXECUTOR|10=138|
8=FIX.4.2|9=56|35=0|34=134|49=EXECUTOR|52=20130404-15:30:17.632|56=BOV|10=140|
8=FIX.4.2|9=56|35=0|34=135|49=EXECUTOR|52=20130404-15:30:48.259|56=BOV|10=150|
8=FIX.4.2|9=56|35=0|34=135|49=BOV|52=20130404-15:30:48.260|56=EXECUTOR|10=142|
8=FIX.4.2|9=56|35=0|34=136|49=BOV|52=20130404-15:31:18.627|56=EXECUTOR|10=148|
8=FIX.4.2|9=56|35=0|34=136|49=EXECUTOR|52=20130404-15:31:18.629|56=BOV|10=150|
8=FIX.4.2|9=56|35=0|34=137|49=EXECUTOR|52=20130404-15:31:49.257|56=BOV|10=152|
8=FIX.4.2|9=56|35=0|34=137|49=BOV|52=20130404-15:31:49.259|56=EXECUTOR|10=154|
8=FIX.4.2|9=56|35=0|34=138|49=BOV|52=20130404-15:32:19.625|56=EXECUTOR|10=150|
8=FIX.4.2|9=56|35=0|34=138|49=EXECUTOR|52=20130404-15:32:19.628|56=BOV|10=153|
8=FIX.4.2|9=56|35=0|34=139|49=EXECUTOR|52=20130404-15:32:50.254|56=BOV|10=144|
8=FIX.4.2|9=56|35=0|34=139|49=BOV|52=20130404-15:32:50.256|56=EXECUTOR|10=146|
8=FIX.4.2|9=56|35=0|34=140|49=BOV|52=20130404-15:33:20.622|56=EXECUTOR|10=133|
8=FIX.4.2|9=56|35=0|34=140|49=EXECUTOR|52=20130404-15:33:20.623|56=BOV|10=134|
8=FIX.4.2|9=56|35=0|34=141|49=EXECUTOR|52=20130404-15:33:51.252|56=BOV|10=137|
8=FIX.4.2|9=56|35=0|34=141|49=BOV|52=20130404-15:33:51.253|56=EXECUTOR|10=138|
8=FIX.4.2|9=56|35=0|34=142|49=BOV|52=20130404-15:34:21.620|56=EXECUTOR|10=135|
8=FIX.4.2|9=56|35=0|34=142|49=EXECUTOR|52=20130404-15:34:21.622|56=BOV|10=137|
8=FIX.4.2|9=56|35=0|34=143|49=EXECUTOR|52=20130404-15:34:52.249|56=BOV|10=147|
8=FIX.4.2|9=56|35=0|34=143|49=BOV|52=20130404-15:34:52.251|56=EXECUTOR|10=140|
8=FIX.4.2|9=56|35=0|34=144|49=BOV|52=20130404-15:35:22.617|56=EXECUTOR|10=145|
8=FIX.4.2|9=56|35=0|34=144|49=EXECUTOR|52=20130404-15:35:22.618|56=BOV|10=146|
8=FIX.4.2|9=56|35=0|34=145|49=EXECUTOR|52=20130404-15:35:53.247|56=BOV|10=149|
8=FIX.4.2|9=56|35=0|34=145|49=BOV|52=20130404-15:35:53.249|56=EXECUTOR|10=151|
8=FIX.4.2|9=56|35=0|34=146|49=BOV|52=20130404-15:36:23.615|56=EXECUTOR|10=147|
8=FIX.4.2|9=56|35=0|34=146|49=EXECUTOR|52=20130404-15:36:23.617|56=BOV|10=149|
8=FIX.4.2|9=56|35=0|34=147|49=EXECUTOR|52=20130404-15:36:54.244|56=BOV|10=150|
8=FIX.4.2|9=56|35=0|34=147|49=BOV|52=20130404-15:36:54.246|56=EXECUTOR|10=152|
8=FIX.4.2|9=56|35=0|34=148|49=BOV|52=20130404-15:37:24.612|56=EXECUTOR|10=148|
8=FIX.4.2|9=56|35=0|34=148|49=EXECUTOR|52=20130404-15:37:24.614|56=BOV|10=150|
8=FIX.4.2|9=56|35=0|34=149|49=EXECUTOR|52=20130404-15:37:55.242|56=BOV|10=152|
8=FIX.4.2|9=56|35=0|34=149|49=BOV|52=20130404-15:37:55.243|56=EXECUTOR|10=153|
8=FIX.4.2|9=56|35=0|34=150|49=BOV|52=20130404-15:38:25.610|56=EXECUTOR|10=141|
8=FIX.4.2|9=56|35=0|34=150|49=EXECUTOR|52=20130404-15:38:25.613|56=BOV|10=144|
8=FIX.4.2|9=56|35=0|34=151|49=EXECUTOR|52=20130404-15:38:56.239|56=BOV|10=153|
8=FIX.4.2|9=56|35=0|34=151|49=BOV|52=20130404-15:38:56.240|56=EXECUTOR|10=145|
8=FIX.4.2|9=56|35=0|34=152|49=BOV|52=20130404-15:39:26.607|56=EXECUTOR|10=151|
8=FIX.4.2|9=56|35=0|34=152|49=EXECUTOR|52=20130404-15:39:26.610|56=BOV|10=145|
8=FIX.4.2|9=56|35=0|34=153|49=EXECUTOR|52=20130404-15:39:57.237|56=BOV|10=155|
8=FIX.4.2|9=56|35=0|34=153|49=BOV|52=20130404-15:39:57.238|56=EXECUTOR|10=156|
8=FIX.4.2|9=56|35=0|34=154|49=BOV|52=20130404-15:40:27.605|56=EXECUTOR|10=144|
8=FIX.4.2|9=56|35=0|34=154|49=EXECUTOR|52=20130404-15:40:27.607|56=BOV|10=146|
8=FIX.4.2|9=56|35=0|34=155|49=EXECUTOR|52=20130404-15:40:58.234|56=BOV|10=147|
8=FIX.4.2|9=56|35=0|34=155|49=BOV|52=20130404-15:40:58.236|56=EXECUTOR|10=149|
8=FIX.4.2|9=56|35=0|34=156|49=BOV|52=20130404-15:41:28.602|56=EXECUTOR|10=145|
8=FIX.4.2|9=56|35=0|34=156|49=EXECUTOR|52=20130404-15:41:28.603|56=BOV|10=146|
8=FIX.4.2|9=56|35=0|34=157|49=EXECUTOR|52=20130404-15:41:59.232|56=BOV|10=149|
8=FIX.4.2|9=56|35=0|34=157|49=BOV|52=20130404-15:41:59.234|56=EXECUTOR|10=151|
8=FIX.4.2|9=56|35=0|34=158|49=BOV|52=20130404-15:42:29.600|56=EXECUTOR|10=147|
8=FIX.4.2|9=56|35=0|34=158|49=EXECUTOR|52=20130404-15:42:29.602|56=BOV|10=149|
8=FIX.4.2|9=56|35=0|34=159|49=EXECUTOR|52=20130404-15:43:00.229|56=BOV|10=145|
8=FIX.4.2|9=56|35=0|34=159|49=BOV|52=20130404-15:43:00.230|56=EXECUTOR|10=137|
8=FIX.4.2|9=56|35=0|34=160|49=BOV|52=20130404-15:43:30.597|56=EXECUTOR|10=148|
8=FIX.4.2|9=56|35=0|34=160|49=EXECUTOR|52=20130404-15:43:30.599|56=BOV|10=150|
8=FIX.4.2|9=56|35=0|34=161|49=EXECUTOR|52=20130404-15:44:01.227|56=BOV|10=138|
8=FIX.4.2|9=56|35=0|34=161|49=BOV|52=20130404-15:44:01.228|56=EXECUTOR|10=139|
8=FIX.4.2|9=56|35=0|34=162|49=BOV|52=20130404-15:44:31.595|56=EXECUTOR|10=150|
8=FIX.4.2|9=56|35=0|34=162|49=EXECUTOR|52=20130404-15:44:31.597|56=BOV|10=152|
8=FIX.4.2|9=56|35=0|34=163|49=EXECUTOR|52=20130404-15:45:02.224|56=BOV|10=139|
8=FIX.4.2|9=56|35=0|34=163|49=BOV|52=20130404-15:45:02.225|56=EXECUTOR|10=140|
8=FIX.4.2|9=56|35=0|34=164|49=BOV|52=20130404-15:45:32.592|56=EXECUTOR|10=151|
8=FIX.4.2|9=56|35=0|34=164|49=EXECUTOR|52=20130404-15:45:32.595|56=BOV|10=154|
8=FIX.4.2|9=56|35=0|34=165|49=EXECUTOR|52=20130404-15:46:03.222|56=BOV|10=141|
8=FIX.4.2|9=56|35=0|34=165|49=BOV|52=20130404-15:46:03.224|56=EXECUTOR|10=143|
8=FIX.4.2|9=56|35=0|34=166|49=BOV|52=20130404-15:46:33.590|56=EXECUTOR|10=153|
8=FIX.4.2|9=56|35=0|34=166|49=EXECUTOR|52=20130404-15:46:33.593|56=BOV|10=156|
8=FIX.4.2|9=56|35=0|34=167|49=EXECUTOR|52=20130404-15:47:04.219|56=BOV|10=151|
8=FIX.4.2|9=56|35=0|34=167|49=BOV|52=20130404-15:47:04.220|56=EXECUTOR|10=143|
8=FIX.4.2|9=56|35=0|34=168|49=BOV|52=20130404-15:47:34.587|56=EXECUTOR|10=163|
8=FIX.4.2|9=56|35=0|34=168|49=EXECUTOR|52=20130404-15:47:34.589|56=BOV|10=165|
8=FIX.4.2|9=56|35=0|34=169|49=EXECUTOR|52=20130404-15:48:05.217|56=BOV|10=153|
8=FIX.4.2|9=56|35=0|34=169|49=BOV|52=20130404-15:48:05.218|56=EXECUTOR|10=154|
8=FIX.4.2|9=56|35=0|34=170|49=BOV|52=20130404-15:48:35.585|56=EXECUTOR|10=156|
8=FIX.4.2|9=56|35=0|34=170|49=EXECUTOR|52=20130404-15:48:35.588|56=BOV|10=159|
8=FIX.4.2|9=56|35=0|34=171|49=EXECUTOR|52=20130404-15:49:06.214|56=BOV|10=145|
8=FIX.4.2|9=56|35=0|34=171|49=BOV|52=20130404-15:49:06.216|56=EXECUTOR|10=147|
8=FIX.4.2|9=56|35=0|34=172|49=BOV|52=20130404-15:49:36.582|56=EXECUTOR|10=157|
8=FIX.4.2|9=56|35=0|34=172|49=EXECUTOR|52=20130404-15:49:36.584|56=BOV|10=159|
8=FIX.4.2|9=56|35=0|34=173|49=EXECUTOR|52=20130404-15:50:07.212|56=BOV|10=138|
8=FIX.4.2|9=56|35=0|34=173|49=BOV|52=20130404-15:50:07.214|56=EXECUTOR|10=140|
8=FIX.4.2|9=56|35=0|34=174|49=BOV|52=20130404-15:50:37.580|56=EXECUTOR|10=150|
8=FIX.4.2|9=56|35=0|34=174|49=EXECUTOR|52=20130404-15:50:37.583|56=BOV|10=153|
8=FIX.4.2|9=56|35=0|34=175|49=EXECUTOR|52=20130404-15:51:08.209|56=BOV|10=148|
8=FIX.4.2|9=56|35=0|34=175|49=BOV|52=20130404-15:51:08.211|56=EXECUTOR|10=141|
8=FIX.4.2|9=56|35=0|34=176|49=BOV|52=20130404-15:51:38.577|56=EXECUTOR|10=160|
8=FIX.4.2|9=56|35=0|34=176|49=EXECUTOR|52=20130404-15:51:38.580|56=BOV|10=154|
8=FIX.4.2|9=56|35=0|34=177|49=EXECUTOR|52=20130404-15:52:09.207|56=BOV|10=150|
8=FIX.4.2|9=56|35=0|34=177|49=BOV|52=20130404-15:52:09.208|56=EXECUTOR|10=151|
8=FIX.4.2|9=56|35=0|34=178|49=BOV|52=20130404-15:52:39.575|56=EXECUTOR|10=162|
8=FIX.4.2|9=56|35=0|34=178|49=EXECUTOR|52=20130404-15:52:39.578|56=BOV|10=165|
8=FIX.4.2|9=56|35=0|34=179|49=EXECUTOR|52=20130404-15:53:10.204|56=BOV|10=142|
8=FIX.4.2|9=56|35=0|34=179|49=BOV|52=20130404-15:53:10.206|56=EXECUTOR|10=144|
8=FIX.4.2|9=56|35=0|34=180|49=BOV|52=20130404-15:53:40.572|56=EXECUTOR|10=145|
8=FIX.4.2|9=56|35=0|34=180|49=EXECUTOR|52=20130404-15:53:40.574|56=BOV|10=147|
8=FIX.4.2|9=56|35=0|34=181|49=EXECUTOR|52=20130404-15:54:11.202|56=BOV|10=135|
8=FIX.4.2|9=56|35=0|34=181|49=BOV|52=20130404-15:54:11.204|56=EXECUTOR|10=137|
8=FIX.4.2|9=56|35=0|34=182|49=BOV|52=20130404-15:54:41.570|56=EXECUTOR|10=147|
8=FIX.4.2|9=56|35=0|34=182|49=EXECUTOR|52=20130404-15:54:41.571|56=BOV|10=148|
8=FIX.4.2|9=56|35=0|34=183|49=EXECUTOR|52=20130404-15:55:12.199|56=BOV|10=154|
8=FIX.4.2|9=56|35=0|34=183|49=BOV|52=20130404-15:55:12.200|56=EXECUTOR|10=137|
8=FIX.4.2|9=56|35=0|34=184|49=BOV|52=20130404-15:55:42.567|56=EXECUTOR|10=157|
8=FIX.4.2|9=56|35=0|34=184|49=EXECUTOR|52=20130404-15:55:42.569|56=BOV|10=159|
8=FIX.4.2|9=56|35=0|34=185|49=EXECUTOR|52=20130404-15:56:13.197|56=BOV|10=156|
8=FIX.4.2|9=56|35=0|34=185|49=BOV|52=20130404-15:56:13.198|56=EXECUTOR|10=157|
8=FIX.4.2|9=56|35=0|34=186|49=BOV|52=20130404-15:56:43.565|56=EXECUTOR|10=159|
8=FIX.4.2|9=56|35=0|34=186|49=EXECUTOR|52=20130404-15:56:43.568|56=BOV|10=162|
8=FIX.4.2|9=56|35=0|34=187|49=EXECUTOR|52=20130404-15:57:14.194|56=BOV|10=157|
8=FIX.4.2|9=56|35=0|34=187|49=BOV|52=20130404-15:57:14.195|56=EXECUTOR|10=158|
8=FIX.4.2|9=56|35=0|34=188|49=BOV|52=20130404-15:57:44.562|56=EXECUTOR|10=160|
8=FIX.4.2|9=56|35=0|34=188|49=EXECUTOR|52=20130404-15:57:44.564|56=BOV|10=162|
8=FIX.4.2|9=56|35=0|34=189|49=EXECUTOR|52=20130404-15:58:15.192|56=BOV|10=159|
8=FIX.4.2|9=56|35=0|34=189|49=BOV|52=20130404-15:58:15.194|56=EXECUTOR|10=161|
8=FIX.4.2|9=56|35=0|34=190|49=BOV|52=20130404-15:58:45.560|56=EXECUTOR|10=153|
8=FIX.4.2|9=56|35=0|34=190|49=EXECUTOR|52=20130404-15:58:45.563|56=BOV|10=156|
8=FIX.4.2|9=56|35=0|34=191|49=EXECUTOR|52=20130404-15:59:16.189|56=BOV|10=160|
8=FIX.4.2|9=56|35=0|34=191|49=BOV|52=20130404-15:59:16.191|56=EXECUTOR|10=153|
8=FIX.4.2|9=56|35=0|34=192|49=BOV|52=20130404-15:59:46.557|56=EXECUTOR|10=163|
8=FIX.4.2|9=56|35=0|34=192|49=EXECUTOR|52=20130404-15:59:46.560|56=BOV|10=157|
8=FIX.4.2|9=56|35=0|34=193|49=EXECUTOR|52=20130404-16:00:17.187|56=BOV|10=148|
8=FIX.4.2|9=56|35=0|34=193|49=BOV|52=20130404-16:00:17.189|56=EXECUTOR|10=150|
8=FIX.4.2|9=56|35=0|34=194|49=BOV|52=20130404-16:00:47.555|56=EXECUTOR|10=151|
8=FIX.4.2|9=56|35=0|34=194|49=EXECUTOR|52=20130404-16:00:47.558|56=BOV|10=154|
8=FIX.4.2|9=56|35=0|34=195|49=EXECUTOR|52=20130404-16:01:18.184|56=BOV|10=149|
8=FIX.4.2|9=56|35=0|34=195|49=BOV|52=20130404-16:01:18.186|56=EXECUTOR|10=151|
8=FIX.4.2|9=56|35=0|34=196|49=BOV|52=20130404-16:01:48.552|56=EXECUTOR|10=152|
8=FIX.4.2|9=56|35=0|34=196|49=EXECUTOR|52=20130404-16:01:48.555|56=BOV|10=155|
8=FIX.4.2|9=56|35=0|34=197|49=EXECUTOR|52=20130404-16:02:19.182|56=BOV|10=151|
8=FIX.4.2|9=56|35=0|34=197|49=BOV|52=20130404-16:02:19.183|56=EXECUTOR|10=152|
8=FIX.4.2|9=56|35=0|34=198|49=BOV|52=20130404-16:02:49.550|56=EXECUTOR|10=154|
8=FIX.4.2|9=56|35=0|34=198|49=EXECUTOR|52=20130404-16:02:49.552|56=BOV|10=156|
8=FIX.4.2|9=56|35=0|34=199|49=EXECUTOR|52=20130404-16:03:20.179|56=BOV|10=152|
8=FIX.4.2|9=56|35=0|34=199|49=BOV|52=20130404-16:03:20.181|56=EXECUTOR|10=145|
8=FIX.4.2|9=56|35=0|34=200|49=BOV|52=20130404-16:03:50.547|56=EXECUTOR|10=137|
8=FIX.4.2|9=56|35=0|34=200|49=EXECUTOR|52=20130404-16:03:50.550|56=BOV|10=131|
8=FIX.4.2|9=56|35=0|34=201|49=EXECUTOR|52=20130404-16:04:21.177|56=BOV|10=136|
8=FIX.4.2|9=56|35=0|34=201|49=BOV|52=20130404-16:04:21.179|56=EXECUTOR|10=138|
8=FIX.4.2|9=56|35=0|34=202|49=BOV|52=20130404-16:04:51.545|56=EXECUTOR|10=139|
8=FIX.4.2|9=56|35=0|34=202|49=EXECUTOR|52=20130404-16:04:51.547|56=BOV|10=141|
8=FIX.4.2|9=56|35=0|34=203|49=EXECUTOR|52=20130404-16:05:22.174|56=BOV|10=137|
8=FIX.4.2|9=56|35=0|34=203|49=BOV|52=20130404-16:05:22.176|56=EXECUTOR|10=139|
8=FIX.4.2|9=56|35=0|34=204|49=BOV|52=20130404-16:05:52.542|56=EXECUTOR|10=140|
8=FIX.4.2|9=56|35=0|34=204|49=EXECUTOR|52=20130404-16:05:52.545|56=BOV|10=143|
8=FIX.4.2|9=56|35=0|34=205|49=EXECUTOR|52=20130404-16:06:23.172|56=BOV|10=139|
8=FIX.4.2|9=56|35=0|34=205|49=BOV|52=20130404-16:06:23.174|56=EXECUTOR|10=141|
8=FIX.4.2|9=56|35=0|34=206|49=BOV|52=20130404-16:06:53.540|56=EXECUTOR|10=142|
8=FIX.4.2|9=56|35=0|34=206|49=EXECUTOR|52=20130404-16:06:53.542|56=BOV|10=144|
8=FIX.4.2|9=56|35=0|34=207|49=EXECUTOR|52=20130404-16:07:24.169|56=BOV|10=149|
8=FIX.4.2|9=56|35=0|34=207|49=BOV|52=20130404-16:07:24.171|56=EXECUTOR|10=142|
8=FIX.4.2|9=56|35=0|34=208|49=BOV|52=20130404-16:07:54.537|56=EXECUTOR|10=152|
8=FIX.4.2|9=56|35=0|34=208|49=EXECUTOR|52=20130404-16:07:54.540|56=BOV|10=146|
8=FIX.4.2|9=56|35=0|34=209|49=EXECUTOR|52=20130404-16:08:25.167|56=BOV|10=151|
8=FIX.4.2|9=56|35=0|34=209|49=BOV|52=20130404-16:08:25.169|56=EXECUTOR|10=153|
8=FIX.4.2|9=56|35=0|34=210|49=BOV|52=20130404-16:08:55.535|56=EXECUTOR|10=145|
8=FIX.4.2|9=56|35=0|34=210|49=EXECUTOR|52=20130404-16:08:55.538|56=BOV|10=148|
8=FIX.4.2|9=56|35=0|34=211|49=EXECUTOR|52=20130404-16:09:26.164|56=BOV|10=143|
8=FIX.4.2|9=56|35=0|34=211|49=BOV|52=20130404-16:09:26.166|56=EXECUTOR|10=145|
8=FIX.4.2|9=56|35=0|34=212|49=BOV|52=20130404-16:09:56.532|56=EXECUTOR|10=146|
8=FIX.4.2|9=56|35=0|34=212|49=EXECUTOR|52=20130404-16:09:56.534|56=BOV|10=148|
8=FIX.4.2|9=56|35=0|34=213|49=EXECUTOR|52=20130404-16:10:27.162|56=BOV|10=136|
8=FIX.4.2|9=56|35=0|34=213|49=BOV|52=20130404-16:10:27.164|56=EXECUTOR|10=138|
8=FIX.4.2|9=56|35=0|34=214|49=BOV|52=20130404-16:10:57.530|56=EXECUTOR|10=139|
8=FIX.4.2|9=56|35=0|34=214|49=EXECUTOR|52=20130404-16:10:57.533|56=BOV|10=142|
8=FIX.4.2|9=56|35=0|34=215|49=EXECUTOR|52=20130404-16:11:28.160|56=BOV|10=138|
8=FIX.4.2|9=56|35=0|34=215|49=BOV|52=20130404-16:11:28.161|56=EXECUTOR|10=139|
8=FIX.4.2|9=56|35=0|34=216|49=BOV|52=20130404-16:11:58.527|56=EXECUTOR|10=149|
8=FIX.4.2|9=56|35=0|34=216|49=EXECUTOR|52=20130404-16:11:58.530|56=BOV|10=143|
8=FIX.4.2|9=56|35=0|34=217|49=EXECUTOR|52=20130404-16:12:29.157|56=BOV|10=148|
8=FIX.4.2|9=56|35=0|34=217|49=BOV|52=20130404-16:12:29.159|56=EXECUTOR|10=150|
8=FIX.4.2|9=56|35=0|34=218|49=BOV|52=20130404-16:12:59.525|56=EXECUTOR|10=151|
8=FIX.4.2|9=56|35=0|34=218|49=EXECUTOR|52=20130404-16:12:59.528|56=BOV|10=154|
8=FIX.4.2|9=56|35=0|34=219|49=EXECUTOR|52=20130404-16:13:30.154|56=BOV|10=140|
8=FIX.4.2|9=56|35=0|34=219|49=BOV|52=20130404-16:13:30.156|56=EXECUTOR|10=142|
8=FIX.4.2|9=56|35=0|34=220|49=BOV|52=20130404-16:14:00.522|56=EXECUTOR|10=129|
8=FIX.4.2|9=56|35=0|34=220|49=EXECUTOR|52=20130404-16:14:00.525|56=BOV|10=132|
8=FIX.4.2|9=56|35=0|34=221|49=EXECUTOR|52=20130404-16:14:31.152|56=BOV|10=133|
8=FIX.4.2|9=56|35=0|34=221|49=BOV|52=20130404-16:14:31.154|56=EXECUTOR|10=135|
8=FIX.4.2|9=56|35=0|34=222|49=BOV|52=20130404-16:15:01.520|56=EXECUTOR|10=131|
8=FIX.4.2|9=56|35=0|34=222|49=EXECUTOR|52=20130404-16:15:01.523|56=BOV|10=134|
8=FIX.4.2|9=56|35=0|34=223|49=EXECUTOR|52=20130404-16:15:32.149|56=BOV|10=143|
8=FIX.4.2|9=56|35=0|34=223|49=BOV|52=20130404-16:15:32.151|56=EXECUTOR|10=136|
8=FIX.4.2|9=56|35=0|34=224|49=BOV|52=20130404-16:16:02.517|56=EXECUTOR|10=141|
8=FIX.4.2|9=56|35=0|34=224|49=EXECUTOR|52=20130404-16:16:02.520|56=BOV|10=135|
8=FIX.4.2|9=56|35=0|34=225|49=EXECUTOR|52=20130404-16:16:33.147|56=BOV|10=145|
8=FIX.4.2|9=56|35=0|34=225|49=BOV|52=20130404-16:16:33.149|56=EXECUTOR|10=147|
8=FIX.4.2|9=56|35=0|34=226|49=BOV|52=20130404-16:17:03.515|56=EXECUTOR|10=143|
8=FIX.4.2|9=56|35=0|34=226|49=EXECUTOR|52=20130404-16:17:03.518|56=BOV|10=146|
8=FIX.4.2|9=56|35=0|34=227|49=EXECUTOR|52=20130404-16:17:34.144|56=BOV|10=146|
8=FIX.4.2|9=56|35=0|34=227|49=BOV|52=20130404-16:17:34.145|56=EXECUTOR|10=147|
8=FIX.4.2|9=56|35=0|34=228|49=BOV|52=20130404-16:18:04.512|56=EXECUTOR|10=144|
8=FIX.4.2|9=56|35=0|34=228|49=EXECUTOR|52=20130404-16:18:04.515|56=BOV|10=147|
8=FIX.4.2|9=56|35=0|34=229|49=EXECUTOR|52=20130404-16:18:35.142|56=BOV|10=148|
8=FIX.4.2|9=56|35=0|34=229|49=BOV|52=20130404-16:18:35.144|56=EXECUTOR|10=150|
8=FIX.4.2|9=56|35=0|34=230|49=BOV|52=20130404-16:19:05.510|56=EXECUTOR|10=137|
8=FIX.4.2|9=56|35=0|34=230|49=EXECUTOR|52=20130404-16:19:05.512|56=BOV|10=139|
8=FIX.4.2|9=56|35=0|34=231|49=EXECUTOR|52=20130404-16:19:36.140|56=BOV|10=141|
8=FIX.4.2|9=56|35=0|34=231|49=BOV|52=20130404-16:19:36.141|56=EXECUTOR|10=142|
8=FIX.4.2|9=56|35=0|34=232|49=BOV|52=20130404-16:20:06.507|56=EXECUTOR|10=138|
8=FIX.4.2|9=56|35=0|34=232|49=EXECUTOR|52=20130404-16:20:06.510|56=BOV|10=132|
8=FIX.4.2|9=56|35=0|34=233|49=EXECUTOR|52=20130404-16:20:37.137|56=BOV|10=142|
8=FIX.4.2|9=56|35=0|34=233|49=BOV|52=20130404-16:20:37.138|56=EXECUTOR|10=143|
8=FIX.4.2|9=56|35=0|34=234|49=BOV|52=20130404-16:21:07.505|56=EXECUTOR|10=140|
8=FIX.4.2|9=56|35=0|34=234|49=EXECUTOR|52=20130404-16:21:07.508|56=BOV|10=143|
8=FIX.4.2|9=56|35=0|34=235|49=EXECUTOR|52=20130404-16:21:38.134|56=BOV|10=143|
8=FIX.4.2|9=56|35=0|34=235|49=BOV|52=20130404-16:21:38.136|56=EXECUTOR|10=145|
8=FIX.4.2|9=56|35=0|34=236|49=BOV|52=20130404-16:22:08.502|56=EXECUTOR|10=141|
8=FIX.4.2|9=56|35=0|34=236|49=EXECUTOR|52=20130404-16:22:08.505|56=BOV|10=144|
8=FIX.4.2|9=56|35=0|34=237|49=EXECUTOR|52=20130404-16:22:39.132|56=BOV|10=145|
8=FIX.4.2|9=56|35=0|34=237|49=BOV|52=20130404-16:22:39.134|56=EXECUTOR|10=147|
8=FIX.4.2|9=56|35=0|34=238|49=BOV|52=20130404-16:23:09.500|56=EXECUTOR|10=143|
8=FIX.4.2|9=56|35=0|34=238|49=EXECUTOR|52=20130404-16:23:09.503|56=BOV|10=146|
8=FIX.4.2|9=56|35=0|34=239|49=EXECUTOR|52=20130404-16:23:40.129|56=BOV|10=146|
8=FIX.4.2|9=56|35=0|34=239|49=BOV|52=20130404-16:23:40.131|56=EXECUTOR|10=139|
8=FIX.4.2|9=56|35=0|34=240|49=BOV|52=20130404-16:24:10.497|56=EXECUTOR|10=144|
8=FIX.4.2|9=56|35=0|34=240|49=EXECUTOR|52=20130404-16:24:10.500|56=BOV|10=129|
8=FIX.4.2|9=56|35=0|34=241|49=EXECUTOR|52=20130404-16:24:41.127|56=BOV|10=139|
8=FIX.4.2|9=56|35=0|34=241|49=BOV|52=20130404-16:24:41.129|56=EXECUTOR|10=141|
8=FIX.4.2|9=56|35=0|34=242|49=BOV|52=20130404-16:25:11.495|56=EXECUTOR|10=146|
8=FIX.4.2|9=56|35=0|34=242|49=EXECUTOR|52=20130404-16:25:11.498|56=BOV|10=149|
8=FIX.4.2|9=56|35=0|34=243|49=EXECUTOR|52=20130404-16:25:42.124|56=BOV|10=140|
8=FIX.4.2|9=56|35=0|34=243|49=BOV|52=20130404-16:25:42.126|56=EXECUTOR|10=142|
8=FIX.4.2|9=56|35=0|34=244|49=BOV|52=20130404-16:26:12.492|56=EXECUTOR|10=147|
8=FIX.4.2|9=56|35=0|34=244|49=EXECUTOR|52=20130404-16:26:12.495|56=BOV|10=150|
8=FIX.4.2|9=56|35=0|34=245|49=EXECUTOR|52=20130404-16:26:43.122|56=BOV|10=142|
8=FIX.4.2|9=56|35=0|34=245|49=BOV|52=20130404-16:26:43.123|56=EXECUTOR|10=143|
8=FIX.4.2|9=56|35=0|34=246|49=BOV|52=20130404-16:27:13.490|56=EXECUTOR|10=149|
8=FIX.4.2|9=56|35=0|34=246|49=EXECUTOR|52=20130404-16:27:13.493|56=BOV|10=152|
8=FIX.4.2|9=56|35=0|34=247|49=EXECUTOR|52=20130404-16:27:44.119|56=BOV|10=152|
8=FIX.4.2|9=56|35=0|34=247|49=BOV|52=20130404-16:27:44.122|56=EXECUTOR|10=146|
8=FIX.4.2|9=56|35=0|34=248|49=BOV|52=20130404-16:28:14.487|56=EXECUTOR|10=159|
8=FIX.4.2|9=56|35=0|34=248|49=EXECUTOR|52=20130404-16:28:14.490|56=BOV|10=153|
8=FIX.4.2|9=56|35=0|34=249|49=EXECUTOR|52=20130404-16:28:45.117|56=BOV|10=154|
8=FIX.4.2|9=56|35=0|34=249|49=BOV|52=20130404-16:28:45.119|56=EXECUTOR|10=156|
8=FIX.4.2|9=56|35=0|34=250|49=BOV|52=20130404-16:29:15.485|56=EXECUTOR|10=152|
8=FIX.4.2|9=56|35=0|34=250|49=EXECUTOR|52=20130404-16:29:15.488|56=BOV|10=155|
8=FIX.4.2|9=56|35=0|34=251|49=EXECUTOR|52=20130404-16:29:46.114|56=BOV|10=146|
8=FIX.4.2|9=56|35=0|34=251|49=BOV|52=20130404-16:29:46.115|56=EXECUTOR|10=147|
8=FIX.4.2|9=56|35=0|34=252|49=BOV|52=20130404-16:30:16.482|56=EXECUTOR|10=144|
8=FIX.4.2|9=56|35=0|34=252|49=EXECUTOR|52=20130404-16:30:16.485|56=BOV|10=147|
8=FIX.4.2|9=56|35=0|34=253|49=EXECUTOR|52=20130404-16:30:47.112|56=BOV|10=139|
8=FIX.4.2|9=56|35=0|34=253|49=BOV|52=20130404-16:30:47.114|56=EXECUTOR|10=141|
8=FIX.4.2|9=56|35=0|34=254|49=BOV|52=20130404-16:31:17.480|56=EXECUTOR|10=146|
8=FIX.4.2|9=56|35=0|34=254|49=EXECUTOR|52=20130404-16:31:17.483|56=BOV|10=149|
8=FIX.4.2|9=56|35=0|34=255|49=EXECUTOR|52=20130404-16:31:48.109|56=BOV|10=149|
8=FIX.4.2|9=56|35=0|34=255|49=BOV|52=20130404-16:31:48.111|56=EXECUTOR|10=142|
8=FIX.4.2|9=56|35=0|34=256|49=BOV|52=20130404-16:32:18.477|56=EXECUTOR|10=156|
8=FIX.4.2|9=56|35=0|34=256|49=EXECUTOR|52=20130404-16:32:18.479|56=BOV|10=158|
8=FIX.4.2|9=56|35=0|34=257|49=EXECUTOR|52=20130404-16:32:49.107|56=BOV|10=151|
8=FIX.4.2|9=56|35=0|34=257|49=BOV|52=20130404-16:32:49.109|56=EXECUTOR|10=153|
8=FIX.4.2|9=56|35=0|34=258|49=BOV|52=20130404-16:33:19.475|56=EXECUTOR|10=158|
8=FIX.4.2|9=56|35=0|34=258|49=EXECUTOR|52=20130404-16:33:19.476|56=BOV|10=159|
8=FIX.4.2|9=56|35=0|34=259|49=EXECUTOR|52=20130404-16:33:50.104|56=BOV|10=143|
8=FIX.4.2|9=56|35=0|34=259|49=BOV|52=20130404-16:33:50.105|56=EXECUTOR|10=144|
8=FIX.4.2|9=56|35=0|34=260|49=BOV|52=20130404-16:34:20.472|56=EXECUTOR|10=141|
8=FIX.4.2|9=56|35=0|34=260|49=EXECUTOR|52=20130404-16:34:20.475|56=BOV|10=144|
8=FIX.4.2|9=56|35=0|34=261|49=EXECUTOR|52=20130404-16:34:51.102|56=BOV|10=136|
8=FIX.4.2|9=56|35=0|34=261|49=BOV|52=20130404-16:34:51.104|56=EXECUTOR|10=138|
8=FIX.4.2|9=56|35=0|34=262|49=BOV|52=20130404-16:35:21.470|56=EXECUTOR|10=143|
8=FIX.4.2|9=56|35=0|34=262|49=EXECUTOR|52=20130404-16:35:21.473|56=BOV|10=146|
8=FIX.4.2|9=56|35=0|34=263|49=EXECUTOR|52=20130404-16:35:52.099|56=BOV|10=155|
8=FIX.4.2|9=56|35=0|34=263|49=BOV|52=20130404-16:35:52.101|56=EXECUTOR|10=139|
8=FIX.4.2|9=56|35=0|34=264|49=BOV|52=20130404-16:36:22.467|56=EXECUTOR|10=153|
8=FIX.4.2|9=56|35=0|34=264|49=EXECUTOR|52=20130404-16:36:22.470|56=BOV|10=147|
8=FIX.4.2|9=56|35=0|34=265|49=EXECUTOR|52=20130404-16:36:53.097|56=BOV|10=157|
8=FIX.4.2|9=56|35=0|34=265|49=BOV|52=20130404-16:36:53.099|56=EXECUTOR|10=159|
8=FIX.4.2|9=56|35=0|34=266|49=BOV|52=20130404-16:37:23.465|56=EXECUTOR|10=155|
8=FIX.4.2|9=56|35=0|34=266|49=EXECUTOR|52=20130404-16:37:23.468|56=BOV|10=158|
8=FIX.4.2|9=56|35=0|34=267|49=EXECUTOR|52=20130404-16:37:54.095|56=BOV|10=159|
8=FIX.4.2|9=56|35=0|34=267|49=BOV|52=20130404-16:37:54.097|56=EXECUTOR|10=161|
8=FIX.4.2|9=56|35=0|34=268|49=BOV|52=20130404-16:38:24.462|56=EXECUTOR|10=156|
8=FIX.4.2|9=56|35=0|34=268|49=EXECUTOR|52=20130404-16:38:24.465|56=BOV|10=159|
8=FIX.4.2|9=56|35=0|34=269|49=EXECUTOR|52=20130404-16:38:55.092|56=BOV|10=160|
8=FIX.4.2|9=56|35=0|34=269|49=BOV|52=20130404-16:38:55.094|56=EXECUTOR|10=162|
8=FIX.4.2|9=56|35=0|34=270|49=BOV|52=20130404-16:39:25.460|56=EXECUTOR|10=149|
8=FIX.4.2|9=56|35=0|34=270|49=EXECUTOR|52=20130404-16:39:25.463|56=BOV|10=152|
8=FIX.4.2|9=56|35=0|34=271|49=EXECUTOR|52=20130404-16:39:56.089|56=BOV|10=161|
8=FIX.4.2|9=56|35=0|34=271|49=BOV|52=20130404-16:39:56.091|56=EXECUTOR|10=154|
8=FIX.4.2|9=56|35=0|34=272|49=BOV|52=20130404-16:40:26.457|56=EXECUTOR|10=150|
8=FIX.4.2|9=56|35=0|34=272|49=EXECUTOR|52=20130404-16:40:26.460|56=BOV|10=144|
8=FIX.4.2|9=56|35=0|34=273|49=EXECUTOR|52=20130404-16:40:57.087|56=BOV|10=154|
8=FIX.4.2|9=56|35=0|34=273|49=BOV|52=20130404-16:40:57.089|56=EXECUTOR|10=156|
8=FIX.4.2|9=56|35=0|34=274|49=BOV|52=20130404-16:41:27.455|56=EXECUTOR|10=152|
8=FIX.4.2|9=56|35=0|34=274|49=EXECUTOR|52=20130404-16:41:27.458|56=BOV|10=155|
8=FIX.4.2|9=56|35=0|34=275|49=EXECUTOR|52=20130404-16:41:58.084|56=BOV|10=155|
8=FIX.4.2|9=56|35=0|34=275|49=BOV|52=20130404-16:41:58.086|56=EXECUTOR|10=157|
8=FIX.4.2|9=56|35=0|34=276|49=BOV|52=20130404-16:42:28.452|56=EXECUTOR|10=153|
8=FIX.4.2|9=56|35=0|34=276|49=EXECUTOR|52=20130404-16:42:28.454|56=BOV|10=155|
8=FIX.4.2|9=56|35=0|34=277|49=EXECUTOR|52=20130404-16:42:59.082|56=BOV|10=157|
8=FIX.4.2|9=56|35=0|34=277|49=BOV|52=20130404-16:42:59.084|56=EXECUTOR|10=159|
8=FIX.4.2|9=56|35=0|34=278|49=BOV|52=20130404-16:43:29.450|56=EXECUTOR|10=155|
8=FIX.4.2|9=56|35=0|34=278|49=EXECUTOR|52=20130404-16:43:29.452|56=BOV|10=157|
8=FIX.4.2|9=56|35=0|34=279|49=EXECUTOR|52=20130404-16:44:00.079|56=BOV|10=153|
8=FIX.4.2|9=56|35=0|34=279|49=BOV|52=20130404-16:44:00.081|56=EXECUTOR|10=146|
8=FIX.4.2|9=56|35=0|34=280|49=BOV|52=20130404-16:44:30.447|56=EXECUTOR|10=147|
8=FIX.4.2|9=56|35=0|34=280|49=EXECUTOR|52=20130404-16:44:30.450|56=BOV|10=141|
8=FIX.4.2|9=56|35=0|34=281|49=EXECUTOR|52=20130404-16:45:01.077|56=BOV|10=146|
8=FIX.4.2|9=56|35=0|34=281|49=BOV|52=20130404-16:45:01.079|56=EXECUTOR|10=148|
8=FIX.4.2|9=56|35=0|34=282|49=BOV|52=20130404-16:45:31.445|56=EXECUTOR|10=149|
8=FIX.4.2|9=56|35=0|34=282|49=EXECUTOR|52=20130404-16:45:31.448|56=BOV|10=152|
8=FIX.4.2|9=56|35=0|34=283|49=EXECUTOR|52=20130404-16:46:02.075|56=BOV|10=148|
8=FIX.4.2|9=56|35=0|34=283|49=BOV|52=20130404-16:46:02.076|56=EXECUTOR|10=149|
8=FIX.4.2|9=56|35=0|34=284|49=BOV|52=20130404-16:46:32.442|56=EXECUTOR|10=150|
8=FIX.4.2|9=56|35=0|34=284|49=EXECUTOR|52=20130404-16:46:32.445|56=BOV|10=153|
8=FIX.4.2|9=56|35=0|34=285|49=EXECUTOR|52=20130404-16:47:03.072|56=BOV|10=149|
8=FIX.4.2|9=56|35=0|34=285|49=BOV|52=20130404-16:47:03.074|56=EXECUTOR|10=151|
8=FIX.4.2|9=56|35=0|34=286|49=BOV|52=20130404-16:47:33.440|56=EXECUTOR|10=152|
8=FIX.4.2|9=56|35=0|34=286|49=EXECUTOR|52=20130404-16:47:33.441|56=BOV|10=153|
8=FIX.4.2|9=56|35=0|34=287|49=EXECUTOR|52=20130404-16:48:04.069|56=BOV|10=159|
8=FIX.4.2|9=56|35=0|34=287|49=BOV|52=20130404-16:48:04.071|56=EXECUTOR|10=152|
8=FIX.4.2|9=56|35=0|34=288|49=BOV|52=20130404-16:48:34.437|56=EXECUTOR|10=162|
8=FIX.4.2|9=56|35=0|34=288|49=EXECUTOR|52=20130404-16:48:34.438|56=BOV|10=163|
8=FIX.4.2|9=56|35=0|34=289|49=EXECUTOR|52=20130404-16:49:05.067|56=BOV|10=161|
8=FIX.4.2|9=56|35=0|34=289|49=BOV|52=20130404-16:49:05.069|56=EXECUTOR|10=163|
8=FIX.4.2|9=56|35=0|34=290|49=BOV|52=20130404-16:49:35.435|56=EXECUTOR|10=155|
8=FIX.4.2|9=56|35=0|34=290|49=EXECUTOR|52=20130404-16:49:35.437|56=BOV|10=157|
8=FIX.4.2|9=56|35=0|34=291|49=EXECUTOR|52=20130404-16:50:06.064|56=BOV|10=144|
8=FIX.4.2|9=56|35=0|34=291|49=BOV|52=20130404-16:50:06.066|56=EXECUTOR|10=146|
8=FIX.4.2|9=56|35=0|34=292|49=BOV|52=20130404-16:50:36.432|56=EXECUTOR|10=147|
8=FIX.4.2|9=56|35=0|34=292|49=EXECUTOR|52=20130404-16:50:36.435|56=BOV|10=150|
8=FIX.4.2|9=56|35=0|34=293|49=EXECUTOR|52=20130404-16:51:07.062|56=BOV|10=146|
8=FIX.4.2|9=56|35=0|34=293|49=BOV|52=20130404-16:51:07.064|56=EXECUTOR|10=148|
8=FIX.4.2|9=56|35=0|34=294|49=BOV|52=20130404-16:51:37.430|56=EXECUTOR|10=149|
8=FIX.4.2|9=56|35=0|34=294|49=EXECUTOR|52=20130404-16:51:37.433|56=BOV|10=152|
8=FIX.4.2|9=56|35=0|34=295|49=EXECUTOR|52=20130404-16:52:08.060|56=BOV|10=148|
8=FIX.4.2|9=56|35=0|34=295|49=BOV|52=20130404-16:52:08.061|56=EXECUTOR|10=149|
8=FIX.4.2|9=56|35=0|34=296|49=BOV|52=20130404-16:52:38.427|56=EXECUTOR|10=159|
8=FIX.4.2|9=56|35=0|34=296|49=EXECUTOR|52=20130404-16:52:38.430|56=BOV|10=153|
8=FIX.4.2|9=56|35=0|34=297|49=EXECUTOR|52=20130404-16:53:09.057|56=BOV|10=158|
8=FIX.4.2|9=56|35=0|34=297|49=BOV|52=20130404-16:53:09.059|56=EXECUTOR|10=160|
8=FIX.4.2|9=56|35=0|34=298|49=BOV|52=20130404-16:53:39.425|56=EXECUTOR|10=161|
8=FIX.4.2|9=56|35=0|34=298|49=EXECUTOR|52=20130404-16:53:39.427|56=BOV|10=163|
8=FIX.4.2|9=56|35=0|34=299|49=EXECUTOR|52=20130404-16:54:10.054|56=BOV|10=150|
8=FIX.4.2|9=56|35=0|34=299|49=BOV|52=20130404-16:54:10.056|56=EXECUTOR|10=152|
8=FIX.4.2|9=56|35=0|34=300|49=BOV|52=20130404-16:54:40.422|56=EXECUTOR|10=135|
8=FIX.4.2|9=56|35=0|34=300|49=EXECUTOR|52=20130404-16:54:40.425|56=BOV|10=138|
8=FIX.4.2|9=56|35=0|34=301|49=EXECUTOR|52=20130404-16:55:11.052|56=BOV|10=134|
8=FIX.4.2|9=56|35=0|34=301|49=BOV|52=20130404-16:55:11.053|56=EXECUTOR|10=135|
8=FIX.4.2|9=56|35=0|34=302|49=BOV|52=20130404-16:55:41.420|56=EXECUTOR|10=137|
8=FIX.4.2|9=56|35=0|34=302|49=EXECUTOR|52=20130404-16:55:41.423|56=BOV|10=140|
8=FIX.4.2|9=56|35=0|34=303|49=EXECUTOR|52=20130404-16:56:12.050|56=BOV|10=136|
8=FIX.4.2|9=56|35=0|34=303|49=BOV|52=20130404-16:56:12.051|56=EXECUTOR|10=137|
8=FIX.4.2|9=56|35=0|34=304|49=BOV|52=20130404-16:56:42.417|56=EXECUTOR|10=147|
8=FIX.4.2|9=56|35=0|34=304|49=EXECUTOR|52=20130404-16:56:42.420|56=BOV|10=141|
8=FIX.4.2|9=56|35=0|34=305|49=EXECUTOR|52=20130404-16:57:13.047|56=BOV|10=146|
8=FIX.4.2|9=56|35=0|34=305|49=BOV|52=20130404-16:57:13.049|56=EXECUTOR|10=148|
8=FIX.4.2|9=56|35=0|34=306|49=BOV|52=20130404-16:57:43.415|56=EXECUTOR|10=149|
8=FIX.4.2|9=56|35=0|34=306|49=EXECUTOR|52=20130404-16:57:43.418|56=BOV|10=152|
8=FIX.4.2|9=56|35=0|34=307|49=EXECUTOR|52=20130404-16:58:14.045|56=BOV|10=148|
8=FIX.4.2|9=56|35=0|34=307|49=BOV|52=20130404-16:58:14.047|56=EXECUTOR|10=150|
8=FIX.4.2|9=56|35=0|34=308|49=BOV|52=20130404-16:58:44.412|56=EXECUTOR|10=150|
8=FIX.4.2|9=56|35=0|34=308|49=EXECUTOR|52=20130404-16:58:44.415|56=BOV|10=153|
8=FIX.4.2|9=56|35=0|34=309|49=EXECUTOR|52=20130404-16:59:15.042|56=BOV|10=149|
8=FIX.4.2|9=56|35=0|34=309|49=BOV|52=20130404-16:59:15.044|56=EXECUTOR|10=151|
8=FIX.4.2|9=56|35=0|34=310|49=BOV|52=20130404-16:59:45.410|56=EXECUTOR|10=143|
8=FIX.4.2|9=56|35=0|34=310|49=EXECUTOR|52=20130404-16:59:45.412|56=BOV|10=145|
8=FIX.4.2|9=56|35=0|34=311|49=EXECUTOR|52=20130404-17:00:16.040|56=BOV|10=128|
8=FIX.4.2|9=56|35=0|34=311|49=BOV|52=20130404-17:00:16.042|56=EXECUTOR|10=130|
8=FIX.4.2|9=56|35=0|34=312|49=BOV|52=20130404-17:00:46.407|56=EXECUTOR|10=139|
8=FIX.4.2|9=56|35=0|34=312|49=EXECUTOR|52=20130404-17:00:46.410|56=BOV|10=133|
8=FIX.4.2|9=56|35=0|34=313|49=EXECUTOR|52=20130404-17:01:17.037|56=BOV|10=138|
8=FIX.4.2|9=56|35=0|34=313|49=BOV|52=20130404-17:01:17.038|56=EXECUTOR|10=139|
8=FIX.4.2|9=56|35=0|34=314|49=BOV|52=20130404-17:01:47.405|56=EXECUTOR|10=141|
8=FIX.4.2|9=56|35=0|34=314|49=EXECUTOR|52=20130404-17:01:47.408|56=BOV|10=144|
8=FIX.4.2|9=56|35=0|34=315|49=EXECUTOR|52=20130404-17:02:18.035|56=BOV|10=140|
8=FIX.4.2|9=56|35=0|34=315|49=BOV|52=20130404-17:02:18.037|56=EXECUTOR|10=142|
8=FIX.4.2|9=56|35=0|34=316|49=BOV|52=20130404-17:02:48.402|56=EXECUTOR|10=142|
8=FIX.4.2|9=56|35=0|34=316|49=EXECUTOR|52=20130404-17:02:48.405|56=BOV|10=145|
8=FIX.4.2|9=56|35=0|34=317|49=EXECUTOR|52=20130404-17:03:19.032|56=BOV|10=141|
8=FIX.4.2|9=56|35=0|34=317|49=BOV|52=20130404-17:03:19.033|56=EXECUTOR|10=142|
8=FIX.4.2|9=56|35=0|34=318|49=BOV|52=20130404-17:03:49.400|56=EXECUTOR|10=144|
8=FIX.4.2|9=56|35=0|34=318|49=EXECUTOR|52=20130404-17:03:49.403|56=BOV|10=147|
8=FIX.4.2|9=56|35=0|34=319|49=EXECUTOR|52=20130404-17:04:20.029|56=BOV|10=142|
8=FIX.4.2|9=56|35=0|34=319|49=BOV|52=20130404-17:04:20.031|56=EXECUTOR|10=135|
8=FIX.4.2|9=56|35=0|34=320|49=BOV|52=20130404-17:04:50.397|56=EXECUTOR|10=145|
8=FIX.4.2|9=56|35=0|34=320|49=EXECUTOR|52=20130404-17:04:50.398|56=BOV|10=146|
8=FIX.4.2|9=56|35=0|34=321|49=EXECUTOR|52=20130404-17:05:21.027|56=BOV|10=135|
8=FIX.4.2|9=56|35=0|34=321|49=BOV|52=20130404-17:05:21.028|56=EXECUTOR|10=136|
8=FIX.4.2|9=56|35=0|34=322|49=BOV|52=20130404-17:05:51.395|56=EXECUTOR|10=147|
8=FIX.4.2|9=56|35=0|34=322|49=EXECUTOR|52=20130404-17:05:51.398|56=BOV|10=150|
8=FIX.4.2|9=56|35=0|34=323|49=EXECUTOR|52=20130404-17:06:22.025|56=BOV|10=137|
8=FIX.4.2|9=56|35=0|34=323|49=BOV|52=20130404-17:06:22.026|56=EXECUTOR|10=138|
8=FIX.4.2|9=56|35=0|34=324|49=BOV|52=20130404-17:06:52.392|56=EXECUTOR|10=148|
8=FIX.4.2|9=56|35=0|34=324|49=EXECUTOR|52=20130404-17:06:52.394|56=BOV|10=150|
8=FIX.4.2|9=56|35=0|34=325|49=EXECUTOR|52=20130404-17:07:23.022|56=BOV|10=138|
8=FIX.4.2|9=56|35=0|34=325|49=BOV|52=20130404-17:07:23.024|56=EXECUTOR|10=140|
8=FIX.4.2|9=56|35=0|34=326|49=BOV|52=20130404-17:07:53.390|56=EXECUTOR|10=150|
8=FIX.4.2|9=56|35=0|34=326|49=EXECUTOR|52=20130404-17:07:53.392|56=BOV|10=152|
8=FIX.4.2|9=56|35=0|34=327|49=EXECUTOR|52=20130404-17:08:24.019|56=BOV|10=148|
8=FIX.4.2|9=56|35=0|34=327|49=BOV|52=20130404-17:08:24.021|56=EXECUTOR|10=141|
8=FIX.4.2|9=56|35=0|34=328|49=BOV|52=20130404-17:08:54.387|56=EXECUTOR|10=160|
8=FIX.4.2|9=56|35=0|34=328|49=EXECUTOR|52=20130404-17:08:54.390|56=BOV|10=154|
8=FIX.4.2|9=56|35=0|34=329|49=EXECUTOR|52=20130404-17:09:25.017|56=BOV|10=150|
8=FIX.4.2|9=56|35=0|34=329|49=BOV|52=20130404-17:09:25.019|56=EXECUTOR|10=152|
8=FIX.4.2|9=56|35=0|34=330|49=BOV|52=20130404-17:09:55.385|56=EXECUTOR|10=153|
8=FIX.4.2|9=56|35=0|34=330|49=EXECUTOR|52=20130404-17:09:55.388|56=BOV|10=156|
8=FIX.4.2|9=56|35=0|34=331|49=EXECUTOR|52=20130404-17:10:26.015|56=BOV|10=134|
8=FIX.4.2|9=56|35=0|34=331|49=BOV|52=20130404-17:10:26.016|56=EXECUTOR|10=135|
8=FIX.4.2|9=56|35=0|34=332|49=BOV|52=20130404-17:10:56.382|56=EXECUTOR|10=145|
8=FIX.4.2|9=56|35=0|34=332|49=EXECUTOR|52=20130404-17:10:56.384|56=BOV|10=147|
8=FIX.4.2|9=56|35=0|34=333|49=EXECUTOR|52=20130404-17:11:27.012|56=BOV|10=135|
8=FIX.4.2|9=56|35=0|34=333|49=BOV|52=20130404-17:11:27.014|56=EXECUTOR|10=137|
8=FIX.4.2|9=56|35=0|34=334|49=BOV|52=20130404-17:11:57.380|56=EXECUTOR|10=147|
8=FIX.4.2|9=56|35=0|34=334|49=EXECUTOR|52=20130404-17:11:57.382|56=BOV|10=149|
8=FIX.4.2|9=56|35=0|34=335|49=EXECUTOR|52=20130404-17:12:28.010|56=BOV|10=137|
8=FIX.4.2|9=56|35=0|34=335|49=BOV|52=20130404-17:12:28.012|56=EXECUTOR|10=139|
8=FIX.4.2|9=56|35=0|34=336|49=BOV|52=20130404-17:12:58.377|56=EXECUTOR|10=157|
8=FIX.4.2|9=56|35=0|34=336|49=EXECUTOR|52=20130404-17:12:58.380|56=BOV|10=151|
8=FIX.4.2|9=56|35=0|34=337|49=EXECUTOR|52=20130404-17:13:29.007|56=BOV|10=147|
8=FIX.4.2|9=56|35=0|34=337|49=BOV|52=20130404-17:13:29.009|56=EXECUTOR|10=149|
8=FIX.4.2|9=56|35=0|34=338|49=BOV|52=20130404-17:13:59.375|56=EXECUTOR|10=159|
8=FIX.4.2|9=56|35=0|34=338|49=EXECUTOR|52=20130404-17:13:59.377|56=BOV|10=161|
8=FIX.4.2|9=56|35=0|34=339|49=EXECUTOR|52=20130404-17:14:30.004|56=BOV|10=139|
8=FIX.4.2|9=56|35=0|34=339|49=BOV|52=20130404-17:14:30.006|56=EXECUTOR|10=141|
8=FIX.4.2|9=56|35=0|34=340|49=BOV|52=20130404-17:15:00.372|56=EXECUTOR|10=137|
8=FIX.4.2|9=56|35=0|34=340|49=EXECUTOR|52=20130404-17:15:00.375|56=BOV|10=140|
8=FIX.4.2|9=56|35=0|34=341|49=EXECUTOR|52=20130404-17:15:31.002|56=BOV|10=132|
8=FIX.4.2|9=56|35=0|34=341|49=BOV|52=20130404-17:15:31.004|56=EXECUTOR|10=134|
8=FIX.4.2|9=56|35=0|34=342|49=BOV|52=20130404-17:16:01.370|56=EXECUTOR|10=139|
8=FIX.4.2|9=56|35=0|34=342|49=EXECUTOR|52=20130404-17:16:01.373|56=BOV|10=142|
8=FIX.4.2|9=56|35=0|34=343|49=EXECUTOR|52=20130404-17:16:31.999|56=BOV|10=160|
8=FIX.4.2|9=56|35=0|34=343|49=BOV|52=20130404-17:16:32.001|56=EXECUTOR|10=135|
8=FIX.4.2|9=56|35=0|34=344|49=BOV|52=20130404-17:17:02.367|56=EXECUTOR|10=149|
8=FIX.4.2|9=56|35=0|34=344|49=EXECUTOR|52=20130404-17:17:02.370|56=BOV|10=143|
8=FIX.4.2|9=56|35=0|34=345|49=EXECUTOR|52=20130404-17:17:32.997|56=BOV|10=162|
8=FIX.4.2|9=56|35=0|34=345|49=BOV|52=20130404-17:17:32.999|56=EXECUTOR|10=164|
8=FIX.4.2|9=56|35=0|34=346|49=BOV|52=20130404-17:18:03.365|56=EXECUTOR|10=151|
8=FIX.4.2|9=56|35=0|34=346|49=EXECUTOR|52=20130404-17:18:03.367|56=BOV|10=153|
8=FIX.4.2|9=56|35=0|34=347|49=EXECUTOR|52=20130404-17:18:33.995|56=BOV|10=164|
8=FIX.4.2|9=56|35=0|34=347|49=BOV|52=20130404-17:18:33.997|56=EXECUTOR|10=166|
8=FIX.4.2|9=56|35=0|34=348|49=BOV|52=20130404-17:19:04.362|56=EXECUTOR|10=152|
8=FIX.4.2|9=56|35=0|34=348|49=EXECUTOR|52=20130404-17:19:04.364|56=BOV|10=154|
8=FIX.4.2|9=56|35=0|34=349|49=EXECUTOR|52=20130404-17:19:34.992|56=BOV|10=165|
8=FIX.4.2|9=56|35=0|34=349|49=BOV|52=20130404-17:19:34.993|56=EXECUTOR|10=166|
8=FIX.4.2|9=56|35=0|34=350|49=BOV|52=20130404-17:20:05.360|56=EXECUTOR|10=136|
8=FIX.4.2|9=56|35=0|34=350|49=EXECUTOR|52=20130404-17:20:05.363|56=BOV|10=139|
8=FIX.4.2|9=56|35=0|34=351|49=EXECUTOR|52=20130404-17:20:35.990|56=BOV|10=149|
8=FIX.4.2|9=56|35=0|34=351|49=BOV|52=20130404-17:20:36.033|56=EXECUTOR|10=138|
8=FIX.4.2|9=56|35=0|34=352|49=BOV|52=20130404-17:21:06.357|56=EXECUTOR|10=146|
8=FIX.4.2|9=56|35=0|34=352|49=EXECUTOR|52=20130404-17:21:06.359|56=BOV|10=148|
8=FIX.4.2|9=56|35=0|34=353|49=EXECUTOR|52=20130404-17:21:36.995|56=BOV|10=158|
8=FIX.4.2|9=56|35=0|34=353|49=BOV|52=20130404-17:21:36.999|56=EXECUTOR|10=162|
8=FIX.4.2|9=56|35=0|34=354|49=BOV|52=20130404-17:22:07.355|56=EXECUTOR|10=148|
8=FIX.4.2|9=56|35=0|34=354|49=EXECUTOR|52=20130404-17:22:07.358|56=BOV|10=151|
8=FIX.4.2|9=56|35=0|34=355|49=EXECUTOR|52=20130404-17:22:37.984|56=BOV|10=160|
8=FIX.4.2|9=56|35=0|34=355|49=BOV|52=20130404-17:22:37.986|56=EXECUTOR|10=162|
8=FIX.4.2|9=56|35=0|34=356|49=BOV|52=20130404-17:23:08.352|56=EXECUTOR|10=149|
8=FIX.4.2|9=56|35=0|34=356|49=EXECUTOR|52=20130404-17:23:08.354|56=BOV|10=151|
8=FIX.4.2|9=56|35=0|34=357|49=EXECUTOR|52=20130404-17:23:39.023|56=BOV|10=149|
8=FIX.4.2|9=56|35=0|34=357|49=BOV|52=20130404-17:23:39.025|56=EXECUTOR|10=151|
8=FIX.4.2|9=56|35=0|34=358|49=BOV|52=20130404-17:24:09.350|56=EXECUTOR|10=151|
8=FIX.4.2|9=56|35=0|34=358|49=EXECUTOR|52=20130404-17:24:09.353|56=BOV|10=154|
8=FIX.4.2|9=56|35=0|34=359|49=EXECUTOR|52=20130404-17:24:39.980|56=BOV|10=164|
8=FIX.4.2|9=56|35=0|34=359|49=BOV|52=20130404-17:24:39.981|56=EXECUTOR|10=165|
8=FIX.4.2|9=56|35=0|34=360|49=BOV|52=20130404-17:25:10.347|56=EXECUTOR|10=143|
8=FIX.4.2|9=56|35=0|34=360|49=EXECUTOR|52=20130404-17:25:10.349|56=BOV|10=145|
8=FIX.4.2|9=56|35=0|34=361|49=EXECUTOR|52=20130404-17:25:40.977|56=BOV|10=156|
8=FIX.4.2|9=56|35=0|34=361|49=BOV|52=20130404-17:25:40.978|56=EXECUTOR|10=157|
8=FIX.4.2|9=56|35=0|34=362|49=BOV|52=20130404-17:26:11.345|56=EXECUTOR|10=145|
8=FIX.4.2|9=56|35=0|34=362|49=EXECUTOR|52=20130404-17:26:11.349|56=BOV|10=149|
8=FIX.4.2|9=56|35=0|34=363|49=EXECUTOR|52=20130404-17:26:41.997|56=BOV|10=162|
8=FIX.4.2|9=56|35=0|34=363|49=BOV|52=20130404-17:26:42.003|56=EXECUTOR|10=141|
8=FIX.4.2|9=56|35=0|34=364|49=BOV|52=20130404-17:27:12.342|56=EXECUTOR|10=146|
8=FIX.4.2|9=56|35=0|34=364|49=EXECUTOR|52=20130404-17:27:12.343|56=BOV|10=147|
8=FIX.4.2|9=56|35=0|34=365|49=EXECUTOR|52=20130404-17:27:42.972|56=BOV|10=159|
8=FIX.4.2|9=56|35=0|34=365|49=BOV|52=20130404-17:27:42.974|56=EXECUTOR|10=161|
8=FIX.4.2|9=56|35=0|34=366|49=BOV|52=20130404-17:28:13.340|56=EXECUTOR|10=148|
8=FIX.4.2|9=56|35=0|34=366|49=EXECUTOR|52=20130404-17:28:13.343|56=BOV|10=151|
8=FIX.4.2|9=56|35=0|34=367|49=EXECUTOR|52=20130404-17:28:43.970|56=BOV|10=161|
8=FIX.4.2|9=56|35=0|34=367|49=BOV|52=20130404-17:28:43.972|56=EXECUTOR|10=163|
8=FIX.4.2|9=56|35=0|34=368|49=BOV|52=20130404-17:29:14.337|56=EXECUTOR|10=158|
8=FIX.4.2|9=56|35=0|34=368|49=EXECUTOR|52=20130404-17:29:14.339|56=BOV|10=160|
8=FIX.4.2|9=56|35=0|34=369|49=EXECUTOR|52=20130404-17:29:44.967|56=BOV|10=171|
8=FIX.4.2|9=56|35=0|34=369|49=BOV|52=20130404-17:29:44.969|56=EXECUTOR|10=173|
8=FIX.4.2|9=56|35=0|34=370|49=BOV|52=20130404-17:30:15.335|56=EXECUTOR|10=142|
8=FIX.4.2|9=56|35=0|34=370|49=EXECUTOR|52=20130404-17:30:15.337|56=BOV|10=144|
8=FIX.4.2|9=56|35=0|34=371|49=EXECUTOR|52=20130404-17:30:45.964|56=BOV|10=154|
8=FIX.4.2|9=56|35=0|34=371|49=BOV|52=20130404-17:30:45.966|56=EXECUTOR|10=156|
8=FIX.4.2|9=56|35=0|34=372|49=BOV|52=20130404-17:31:16.332|56=EXECUTOR|10=143|
8=FIX.4.2|9=56|35=0|34=372|49=EXECUTOR|52=20130404-17:31:16.334|56=BOV|10=145|
8=FIX.4.2|9=56|35=0|34=373|49=EXECUTOR|52=20130404-17:31:46.962|56=BOV|10=156|
8=FIX.4.2|9=56|35=0|34=373|49=BOV|52=20130404-17:31:46.964|56=EXECUTOR|10=158|
8=FIX.4.2|9=56|35=0|34=374|49=BOV|52=20130404-17:32:17.330|56=EXECUTOR|10=145|
8=FIX.4.2|9=56|35=0|34=374|49=EXECUTOR|52=20130404-17:32:17.331|56=BOV|10=146|
8=FIX.4.2|9=56|35=0|34=375|49=EXECUTOR|52=20130404-17:32:47.960|56=BOV|10=158|
8=FIX.4.2|9=56|35=0|34=375|49=BOV|52=20130404-17:32:47.962|56=EXECUTOR|10=160|
8=FIX.4.2|9=56|35=0|34=376|49=BOV|52=20130404-17:33:18.327|56=EXECUTOR|10=155|
8=FIX.4.2|9=56|35=0|34=376|49=EXECUTOR|52=20130404-17:33:18.329|56=BOV|10=157|
8=FIX.4.2|9=56|35=0|34=377|49=EXECUTOR|52=20130404-17:33:48.957|56=BOV|10=168|
8=FIX.4.2|9=56|35=0|34=377|49=BOV|52=20130404-17:33:48.959|56=EXECUTOR|10=170|
8=FIX.4.2|9=56|35=0|34=378|49=BOV|52=20130404-17:34:19.325|56=EXECUTOR|10=157|
8=FIX.4.2|9=56|35=0|34=378|49=EXECUTOR|52=20130404-17:34:19.327|56=BOV|10=159|
8=FIX.4.2|9=56|35=0|34=379|49=EXECUTOR|52=20130404-17:34:49.955|56=BOV|10=170|
8=FIX.4.2|9=56|35=0|34=379|49=BOV|52=20130404-17:34:49.957|56=EXECUTOR|10=172|
8=FIX.4.2|9=56|35=0|34=380|49=BOV|52=20130404-17:35:20.322|56=EXECUTOR|10=140|
8=FIX.4.2|9=56|35=0|34=380|49=EXECUTOR|52=20130404-17:35:20.324|56=BOV|10=142|
8=FIX.4.2|9=56|35=0|34=381|49=EXECUTOR|52=20130404-17:35:50.952|56=BOV|10=153|
8=FIX.4.2|9=56|35=0|34=381|49=BOV|52=20130404-17:35:50.954|56=EXECUTOR|10=155|
8=FIX.4.2|9=56|35=0|34=382|49=BOV|52=20130404-17:36:21.320|56=EXECUTOR|10=142|
8=FIX.4.2|9=56|35=0|34=382|49=EXECUTOR|52=20130404-17:36:21.322|56=BOV|10=144|
8=FIX.4.2|9=56|35=0|34=383|49=EXECUTOR|52=20130404-17:36:51.950|56=BOV|10=155|
8=FIX.4.2|9=56|35=0|34=383|49=BOV|52=20130404-17:36:51.952|56=EXECUTOR|10=157|
8=FIX.4.2|9=56|35=0|34=384|49=BOV|52=20130404-17:37:22.317|56=EXECUTOR|10=152|
8=FIX.4.2|9=56|35=0|34=384|49=EXECUTOR|52=20130404-17:37:22.361|56=BOV|10=151|
8=FIX.4.2|9=56|35=0|34=385|49=EXECUTOR|52=20130404-17:37:52.947|56=BOV|10=165|
8=FIX.4.2|9=56|35=0|34=385|49=BOV|52=20130404-17:37:52.948|56=EXECUTOR|10=166|
8=FIX.4.2|9=56|35=0|34=386|49=BOV|52=20130404-17:38:23.315|56=EXECUTOR|10=154|
8=FIX.4.2|9=56|35=0|34=386|49=EXECUTOR|52=20130404-17:38:23.318|56=BOV|10=157|
8=FIX.4.2|9=56|35=0|34=387|49=EXECUTOR|52=20130404-17:38:53.945|56=BOV|10=167|
8=FIX.4.2|9=56|35=0|34=387|49=BOV|52=20130404-17:38:53.947|56=EXECUTOR|10=169|
8=FIX.4.2|9=56|35=0|34=388|49=BOV|52=20130404-17:39:24.312|56=EXECUTOR|10=155|
8=FIX.4.2|9=56|35=0|34=388|49=EXECUTOR|52=20130404-17:39:24.313|56=BOV|10=156|
8=FIX.4.2|9=56|35=0|34=389|49=EXECUTOR|52=20130404-17:39:54.942|56=BOV|10=168|
8=FIX.4.2|9=56|35=0|34=389|49=BOV|52=20130404-17:39:54.943|56=EXECUTOR|10=169|
8=FIX.4.2|9=56|35=0|34=390|49=BOV|52=20130404-17:40:25.310|56=EXECUTOR|10=139|
8=FIX.4.2|9=56|35=0|34=390|49=EXECUTOR|52=20130404-17:40:25.313|56=BOV|10=142|
8=FIX.4.2|9=56|35=0|34=391|49=EXECUTOR|52=20130404-17:40:55.962|56=BOV|10=156|
8=FIX.4.2|9=56|35=0|34=391|49=BOV|52=20130404-17:40:55.968|56=EXECUTOR|10=162|
8=FIX.4.2|9=56|35=0|34=392|49=BOV|52=20130404-17:41:26.307|56=EXECUTOR|10=149|
8=FIX.4.2|9=56|35=0|34=392|49=EXECUTOR|52=20130404-17:41:26.310|56=BOV|10=143|
8=FIX.4.2|9=56|35=0|34=393|49=EXECUTOR|52=20130404-17:41:56.937|56=BOV|10=162|
8=FIX.4.2|9=56|35=0|34=393|49=BOV|52=20130404-17:41:56.939|56=EXECUTOR|10=164|
8=FIX.4.2|9=56|35=0|34=394|49=BOV|52=20130404-17:42:27.305|56=EXECUTOR|10=151|
8=FIX.4.2|9=56|35=0|34=394|49=EXECUTOR|52=20130404-17:42:27.307|56=BOV|10=153|
8=FIX.4.2|9=56|35=0|34=395|49=EXECUTOR|52=20130404-17:42:57.935|56=BOV|10=164|
8=FIX.4.2|9=56|35=0|34=395|49=BOV|52=20130404-17:42:57.937|56=EXECUTOR|10=166|
8=FIX.4.2|9=56|35=0|34=396|49=BOV|52=20130404-17:43:28.302|56=EXECUTOR|10=152|
8=FIX.4.2|9=56|35=0|34=396|49=EXECUTOR|52=20130404-17:43:28.305|56=BOV|10=155|
8=FIX.4.2|9=56|35=0|34=397|49=EXECUTOR|52=20130404-17:43:58.932|56=BOV|10=165|
8=FIX.4.2|9=56|35=0|34=397|49=BOV|52=20130404-17:43:58.934|56=EXECUTOR|10=167|
8=FIX.4.2|9=56|35=0|34=398|49=BOV|52=20130404-17:44:29.300|56=EXECUTOR|10=154|
8=FIX.4.2|9=56|35=0|34=398|49=EXECUTOR|52=20130404-17:44:29.302|56=BOV|10=156|
8=FIX.4.2|9=56|35=0|34=399|49=EXECUTOR|52=20130404-17:44:59.930|56=BOV|10=167|
8=FIX.4.2|9=56|35=0|34=399|49=BOV|52=20130404-17:44:59.933|56=EXECUTOR|10=170|
8=FIX.4.2|9=56|35=0|34=400|49=BOV|52=20130404-17:45:30.297|56=EXECUTOR|10=146|
8=FIX.4.2|9=56|35=0|34=400|49=EXECUTOR|52=20130404-17:45:30.299|56=BOV|10=148|
8=FIX.4.2|9=56|35=0|34=401|49=EXECUTOR|52=20130404-17:46:00.927|56=BOV|10=145|
8=FIX.4.2|9=56|35=0|34=401|49=BOV|52=20130404-17:46:00.929|56=EXECUTOR|10=147|
8=FIX.4.2|9=56|35=0|34=402|49=BOV|52=20130404-17:46:31.295|56=EXECUTOR|10=148|
8=FIX.4.2|9=56|35=0|34=402|49=EXECUTOR|52=20130404-17:46:31.297|56=BOV|10=150|
8=FIX.4.2|9=56|35=0|34=403|49=EXECUTOR|52=20130404-17:47:01.925|56=BOV|10=147|
8=FIX.4.2|9=56|35=0|34=403|49=BOV|52=20130404-17:47:01.927|56=EXECUTOR|10=149|
8=FIX.4.2|9=56|35=0|34=404|49=BOV|52=20130404-17:47:32.292|56=EXECUTOR|10=149|
8=FIX.4.2|9=56|35=0|34=404|49=EXECUTOR|52=20130404-17:47:32.293|56=BOV|10=150|
8=FIX.4.2|9=56|35=0|34=405|49=EXECUTOR|52=20130404-17:48:02.922|56=BOV|10=148|
8=FIX.4.2|9=56|35=0|34=405|49=BOV|52=20130404-17:48:02.923|56=EXECUTOR|10=149|
8=FIX.4.2|9=56|35=0|34=406|49=BOV|52=20130404-17:48:33.290|56=EXECUTOR|10=151|
8=FIX.4.2|9=56|35=0|34=406|49=EXECUTOR|52=20130404-17:48:33.292|56=BOV|10=153|
8=FIX.4.2|9=56|35=0|34=407|49=EXECUTOR|52=20130404-17:49:03.920|56=BOV|10=150|
8=FIX.4.2|9=56|35=0|34=407|49=BOV|52=20130404-17:49:03.922|56=EXECUTOR|10=152|
8=FIX.4.2|9=56|35=0|34=408|49=BOV|52=20130404-17:49:34.287|56=EXECUTOR|10=161|
8=FIX.4.2|9=56|35=0|34=408|49=EXECUTOR|52=20130404-17:49:34.289|56=BOV|10=163|
8=FIX.4.2|9=56|35=0|34=409|49=EXECUTOR|52=20130404-17:50:04.917|56=BOV|10=151|
8=FIX.4.2|9=56|35=0|34=409|49=BOV|52=20130404-17:50:04.919|56=EXECUTOR|10=153|
8=FIX.4.2|9=56|35=0|34=410|49=BOV|52=20130404-17:50:35.285|56=EXECUTOR|10=145|
8=FIX.4.2|9=56|35=0|34=410|49=EXECUTOR|52=20130404-17:50:35.288|56=BOV|10=148|
8=FIX.4.2|9=56|35=0|34=411|49=EXECUTOR|52=20130404-17:51:05.914|56=BOV|10=143|
8=FIX.4.2|9=56|35=0|34=411|49=BOV|52=20130404-17:51:05.916|56=EXECUTOR|10=145|
8=FIX.4.2|9=56|35=0|34=412|49=BOV|52=20130404-17:51:36.282|56=EXECUTOR|10=146|
8=FIX.4.2|9=56|35=0|34=412|49=EXECUTOR|52=20130404-17:51:36.285|56=BOV|10=149|
8=FIX.4.2|9=56|35=0|34=413|49=EXECUTOR|52=20130404-17:52:06.912|56=BOV|10=145|
8=FIX.4.2|9=56|35=0|34=413|49=BOV|52=20130404-17:52:06.914|56=EXECUTOR|10=147|
8=FIX.4.2|9=56|35=0|34=414|49=BOV|52=20130404-17:52:37.280|56=EXECUTOR|10=148|
8=FIX.4.2|9=56|35=0|34=414|49=EXECUTOR|52=20130404-17:52:37.283|56=BOV|10=151|
8=FIX.4.2|9=56|35=0|34=415|49=EXECUTOR|52=20130404-17:53:07.910|56=BOV|10=147|
8=FIX.4.2|9=56|35=0|34=415|49=BOV|52=20130404-17:53:07.912|56=EXECUTOR|10=149|
8=FIX.4.2|9=56|35=0|34=416|49=BOV|52=20130404-17:53:38.277|56=EXECUTOR|10=158|
8=FIX.4.2|9=56|35=0|34=416|49=EXECUTOR|52=20130404-17:53:38.279|56=BOV|10=160|
8=FIX.4.2|9=56|35=0|34=417|49=EXECUTOR|52=20130404-17:54:08.907|56=BOV|10=157|
8=FIX.4.2|9=56|35=0|34=417|49=BOV|52=20130404-17:54:08.908|56=EXECUTOR|10=158|
8=FIX.4.2|9=56|35=0|34=418|49=BOV|52=20130404-17:54:39.275|56=EXECUTOR|10=160|
8=FIX.4.2|9=56|35=0|34=418|49=EXECUTOR|52=20130404-17:54:39.278|56=BOV|10=163|
8=FIX.4.2|9=56|35=0|34=419|49=EXECUTOR|52=20130404-17:55:09.905|56=BOV|10=159|
8=FIX.4.2|9=56|35=0|34=419|49=BOV|52=20130404-17:55:09.907|56=EXECUTOR|10=161|
8=FIX.4.2|9=56|35=0|34=420|49=BOV|52=20130404-17:55:40.272|56=EXECUTOR|10=143|
8=FIX.4.2|9=56|35=0|34=420|49=EXECUTOR|52=20130404-17:55:40.275|56=BOV|10=146|
8=FIX.4.2|9=56|35=0|34=421|49=EXECUTOR|52=20130404-17:56:10.902|56=BOV|10=142|
8=FIX.4.2|9=56|35=0|34=421|49=BOV|52=20130404-17:56:10.904|56=EXECUTOR|10=144|
8=FIX.4.2|9=56|35=0|34=422|49=BOV|52=20130404-17:56:41.270|56=EXECUTOR|10=145|
8=FIX.4.2|9=56|35=0|34=422|49=EXECUTOR|52=20130404-17:56:41.273|56=BOV|10=148|
8=FIX.4.2|9=56|35=0|34=423|49=EXECUTOR|52=20130404-17:57:11.900|56=BOV|10=144|
8=FIX.4.2|9=56|35=0|34=423|49=BOV|52=20130404-17:57:11.902|56=EXECUTOR|10=146|
8=FIX.4.2|9=56|35=0|34=424|49=BOV|52=20130404-17:57:42.267|56=EXECUTOR|10=155|
8=FIX.4.2|9=56|35=0|34=424|49=EXECUTOR|52=20130404-17:57:42.269|56=BOV|10=157|
8=FIX.4.2|9=56|35=0|34=425|49=EXECUTOR|52=20130404-17:58:12.897|56=BOV|10=163|
8=FIX.4.2|9=56|35=0|34=425|49=BOV|52=20130404-17:58:12.899|56=EXECUTOR|10=165|
8=FIX.4.2|9=56|35=0|34=426|49=BOV|52=20130404-17:58:43.265|56=EXECUTOR|10=157|
8=FIX.4.2|9=56|35=0|34=426|49=EXECUTOR|52=20130404-17:58:43.268|56=BOV|10=160|
8=FIX.4.2|9=56|35=0|34=427|49=EXECUTOR|52=20130404-17:59:13.895|56=BOV|10=165|
8=FIX.4.2|9=56|35=0|34=427|49=BOV|52=20130404-17:59:13.896|56=EXECUTOR|10=166|
8=FIX.4.2|9=56|35=0|34=428|49=BOV|52=20130404-17:59:44.262|56=EXECUTOR|10=158|
8=FIX.4.2|9=56|35=0|34=428|49=EXECUTOR|52=20130404-17:59:44.264|56=BOV|10=160|
8=FIX.4.2|9=56|35=0|34=429|49=EXECUTOR|52=20130404-18:00:14.892|56=BOV|10=152|
8=FIX.4.2|9=56|35=0|34=429|49=BOV|52=20130404-18:00:14.893|56=EXECUTOR|10=153|
8=FIX.4.2|9=56|35=0|34=430|49=BOV|52=20130404-18:00:45.260|56=EXECUTOR|10=137|
8=FIX.4.2|9=56|35=0|34=430|49=EXECUTOR|52=20130404-18:00:45.261|56=BOV|10=138|
8=FIX.4.2|9=56|35=0|34=431|49=EXECUTOR|52=20130404-18:01:15.890|56=BOV|10=145|
8=FIX.4.2|9=56|35=0|34=431|49=BOV|52=20130404-18:01:15.892|56=EXECUTOR|10=147|
8=FIX.4.2|9=56|35=0|34=432|49=BOV|52=20130404-18:01:46.257|56=EXECUTOR|10=147|
8=FIX.4.2|9=56|35=0|34=432|49=EXECUTOR|52=20130404-18:01:46.259|56=BOV|10=149|
8=FIX.4.2|9=56|35=0|34=433|49=EXECUTOR|52=20130404-18:02:16.887|56=BOV|10=155|
8=FIX.4.2|9=56|35=0|34=433|49=BOV|52=20130404-18:02:16.888|56=EXECUTOR|10=156|
8=FIX.4.2|9=56|35=0|34=434|49=BOV|52=20130404-18:02:47.255|56=EXECUTOR|10=149|
8=FIX.4.2|9=56|35=0|34=434|49=EXECUTOR|52=20130404-18:02:47.257|56=BOV|10=151|
8=FIX.4.2|9=56|35=0|34=435|49=EXECUTOR|52=20130404-18:03:17.885|56=BOV|10=157|
8=FIX.4.2|9=56|35=0|34=435|49=BOV|52=20130404-18:03:17.887|56=EXECUTOR|10=159|
8=FIX.4.2|9=56|35=0|34=436|49=BOV|52=20130404-18:03:48.252|56=EXECUTOR|10=150|
8=FIX.4.2|9=56|35=0|34=436|49=EXECUTOR|52=20130404-18:03:48.254|56=BOV|10=152|
8=FIX.4.2|9=56|35=0|34=437|49=EXECUTOR|52=20130404-18:04:18.882|56=BOV|10=158|
8=FIX.4.2|9=56|35=0|34=437|49=BOV|52=20130404-18:04:18.884|56=EXECUTOR|10=160|
8=FIX.4.2|9=56|35=0|34=438|49=BOV|52=20130404-18:04:49.250|56=EXECUTOR|10=152|
8=FIX.4.2|9=56|35=0|34=438|49=EXECUTOR|52=20130404-18:04:49.253|56=BOV|10=155|
8=FIX.4.2|9=56|35=0|34=439|49=EXECUTOR|52=20130404-18:05:19.879|56=BOV|10=168|
8=FIX.4.2|9=56|35=0|34=439|49=BOV|52=20130404-18:05:19.881|56=EXECUTOR|10=161|
8=FIX.4.2|9=56|35=0|34=440|49=BOV|52=20130404-18:05:50.247|56=EXECUTOR|10=144|
8=FIX.4.2|9=56|35=0|34=440|49=EXECUTOR|52=20130404-18:05:50.249|56=BOV|10=146|
8=FIX.4.2|9=56|35=0|34=441|49=EXECUTOR|52=20130404-18:06:20.877|56=BOV|10=152|
8=FIX.4.2|9=56|35=0|34=441|49=BOV|52=20130404-18:06:20.879|56=EXECUTOR|10=154|
8=FIX.4.2|9=56|35=0|34=442|49=BOV|52=20130404-18:06:51.245|56=EXECUTOR|10=146|
8=FIX.4.2|9=56|35=0|34=442|49=EXECUTOR|52=20130404-18:06:51.248|56=BOV|10=149|
8=FIX.4.2|9=56|35=0|34=443|49=EXECUTOR|52=20130404-18:07:21.875|56=BOV|10=154|
8=FIX.4.2|9=56|35=0|34=443|49=BOV|52=20130404-18:07:21.877|56=EXECUTOR|10=156|
8=FIX.4.2|9=56|35=0|34=444|49=BOV|52=20130404-18:07:52.242|56=EXECUTOR|10=147|
8=FIX.4.2|9=56|35=0|34=444|49=EXECUTOR|52=20130404-18:07:52.244|56=BOV|10=149|
8=FIX.4.2|9=56|35=0|34=445|49=EXECUTOR|52=20130404-18:08:22.872|56=BOV|10=155|
8=FIX.4.2|9=56|35=0|34=445|49=BOV|52=20130404-18:08:22.874|56=EXECUTOR|10=157|
8=FIX.4.2|9=56|35=0|34=446|49=BOV|52=20130404-18:08:53.240|56=EXECUTOR|10=149|
8=FIX.4.2|9=56|35=0|34=446|49=EXECUTOR|52=20130404-18:08:53.243|56=BOV|10=152|
8=FIX.4.2|9=56|35=0|34=447|49=EXECUTOR|52=20130404-18:09:23.870|56=BOV|10=157|
8=FIX.4.2|9=56|35=0|34=447|49=BOV|52=20130404-18:09:23.872|56=EXECUTOR|10=159|
8=FIX.4.2|9=56|35=0|34=448|49=BOV|52=20130404-18:09:54.237|56=EXECUTOR|10=159|
8=FIX.4.2|9=56|35=0|34=448|49=EXECUTOR|52=20130404-18:09:54.239|56=BOV|10=161|
8=FIX.4.2|9=56|35=0|34=449|49=EXECUTOR|52=20130404-18:10:24.867|56=BOV|10=158|
8=FIX.4.2|9=56|35=0|34=449|49=BOV|52=20130404-18:10:24.869|56=EXECUTOR|10=160|
8=FIX.4.2|9=56|35=0|34=450|49=BOV|52=20130404-18:10:55.235|56=EXECUTOR|10=143|
8=FIX.4.2|9=56|35=0|34=450|49=EXECUTOR|52=20130404-18:10:55.238|56=BOV|10=146|
8=FIX.4.2|9=56|35=0|34=451|49=EXECUTOR|52=20130404-18:11:25.865|56=BOV|10=151|
8=FIX.4.2|9=56|35=0|34=451|49=BOV|52=20130404-18:11:25.867|56=EXECUTOR|10=153|
8=FIX.4.2|9=56|35=0|34=452|49=BOV|52=20130404-18:11:56.232|56=EXECUTOR|10=144|
8=FIX.4.2|9=56|35=0|34=452|49=EXECUTOR|52=20130404-18:11:56.234|56=BOV|10=146|
8=FIX.4.2|9=56|35=0|34=453|49=EXECUTOR|52=20130404-18:12:26.862|56=BOV|10=152|
8=FIX.4.2|9=56|35=0|34=453|49=BOV|52=20130404-18:12:26.864|56=EXECUTOR|10=154|
8=FIX.4.2|9=56|35=0|34=454|49=BOV|52=20130404-18:12:57.230|56=EXECUTOR|10=146|
8=FIX.4.2|9=56|35=0|34=454|49=EXECUTOR|52=20130404-18:12:57.231|56=BOV|10=147|
8=FIX.4.2|9=56|35=0|34=455|49=EXECUTOR|52=20130404-18:13:27.860|56=BOV|10=154|
8=FIX.4.2|9=56|35=0|34=455|49=BOV|52=20130404-18:13:27.861|56=EXECUTOR|10=155|
8=FIX.4.2|9=56|35=0|34=456|49=BOV|52=20130404-18:13:58.227|56=EXECUTOR|10=156|
8=FIX.4.2|9=56|35=0|34=456|49=EXECUTOR|52=20130404-18:13:58.229|56=BOV|10=158|
8=FIX.4.2|9=56|35=0|34=457|49=EXECUTOR|52=20130404-18:14:28.857|56=BOV|10=164|
8=FIX.4.2|9=56|35=0|34=457|49=BOV|52=20130404-18:14:28.859|56=EXECUTOR|10=166|
8=FIX.4.2|9=56|35=0|34=458|49=BOV|52=20130404-18:14:59.225|56=EXECUTOR|10=158|
8=FIX.4.2|9=56|35=0|34=458|49=EXECUTOR|52=20130404-18:14:59.228|56=BOV|10=161|
8=FIX.4.2|9=56|35=0|34=459|49=EXECUTOR|52=20130404-18:15:29.855|56=BOV|10=166|
8=FIX.4.2|9=56|35=0|34=459|49=BOV|52=20130404-18:15:29.857|56=EXECUTOR|10=168|
8=FIX.4.2|9=56|35=0|34=460|49=BOV|52=20130404-18:16:00.222|56=EXECUTOR|10=136|
8=FIX.4.2|9=56|35=0|34=460|49=EXECUTOR|52=20130404-18:16:00.225|56=BOV|10=139|
8=FIX.4.2|9=56|35=0|34=461|49=EXECUTOR|52=20130404-18:16:30.852|56=BOV|10=149|
8=FIX.4.2|9=56|35=0|34=461|49=BOV|52=20130404-18:16:30.854|56=EXECUTOR|10=151|
8=FIX.4.2|9=56|35=0|34=462|49=BOV|52=20130404-18:17:01.220|56=EXECUTOR|10=138|
8=FIX.4.2|9=56|35=0|34=462|49=EXECUTOR|52=20130404-18:17:01.223|56=BOV|10=141|
8=FIX.4.2|9=56|35=0|34=463|49=EXECUTOR|52=20130404-18:17:31.850|56=BOV|10=151|
8=FIX.4.2|9=56|35=0|34=463|49=BOV|52=20130404-18:17:31.852|56=EXECUTOR|10=153|
8=FIX.4.2|9=56|35=0|34=464|49=BOV|52=20130404-18:18:02.217|56=EXECUTOR|10=148|
8=FIX.4.2|9=56|35=0|34=464|49=EXECUTOR|52=20130404-18:18:02.219|56=BOV|10=150|
8=FIX.4.2|9=56|35=0|34=465|49=EXECUTOR|52=20130404-18:18:32.847|56=BOV|10=161|
8=FIX.4.2|9=56|35=0|34=465|49=BOV|52=20130404-18:18:32.849|56=EXECUTOR|10=163|
8=FIX.4.2|9=56|35=0|34=466|49=BOV|52=20130404-18:19:03.215|56=EXECUTOR|10=150|
8=FIX.4.2|9=56|35=0|34=466|49=EXECUTOR|52=20130404-18:19:03.218|56=BOV|10=153|
8=FIX.4.2|9=56|35=0|34=467|49=EXECUTOR|52=20130404-18:19:33.845|56=BOV|10=163|
8=FIX.4.2|9=56|35=0|34=467|49=BOV|52=20130404-18:19:33.847|56=EXECUTOR|10=165|
8=FIX.4.2|9=56|35=0|34=468|49=BOV|52=20130404-18:20:04.212|56=EXECUTOR|10=142|
8=FIX.4.2|9=56|35=0|34=468|49=EXECUTOR|52=20130404-18:20:04.214|56=BOV|10=144|
8=FIX.4.2|9=56|35=0|34=469|49=EXECUTOR|52=20130404-18:20:34.842|56=BOV|10=155|
8=FIX.4.2|9=56|35=0|34=469|49=BOV|52=20130404-18:20:34.844|56=EXECUTOR|10=157|
8=FIX.4.2|9=56|35=0|34=470|49=BOV|52=20130404-18:21:05.210|56=EXECUTOR|10=135|
8=FIX.4.2|9=56|35=0|34=470|49=EXECUTOR|52=20130404-18:21:05.212|56=BOV|10=137|
8=FIX.4.2|9=56|35=0|34=471|49=EXECUTOR|52=20130404-18:21:35.840|56=BOV|10=148|
8=FIX.4.2|9=56|35=0|34=471|49=BOV|52=20130404-18:21:35.842|56=EXECUTOR|10=150|
8=FIX.4.2|9=56|35=0|34=472|49=BOV|52=20130404-18:22:06.207|56=EXECUTOR|10=145|
8=FIX.4.2|9=56|35=0|34=472|49=EXECUTOR|52=20130404-18:22:06.210|56=BOV|10=139|
8=FIX.4.2|9=56|35=0|34=473|49=EXECUTOR|52=20130404-18:22:36.837|56=BOV|10=158|
8=FIX.4.2|9=56|35=0|34=473|49=BOV|52=20130404-18:22:36.839|56=EXECUTOR|10=160|
8=FIX.4.2|9=56|35=0|34=474|49=BOV|52=20130404-18:23:07.205|56=EXECUTOR|10=147|
8=FIX.4.2|9=56|35=0|34=474|49=EXECUTOR|52=20130404-18:23:07.207|56=BOV|10=149|
8=FIX.4.2|9=56|35=0|34=475|49=EXECUTOR|52=20130404-18:23:37.835|56=BOV|10=160|
8=FIX.4.2|9=56|35=0|34=475|49=BOV|52=20130404-18:23:37.837|56=EXECUTOR|10=162|
8=FIX.4.2|9=56|35=0|34=476|49=BOV|52=20130404-18:24:08.202|56=EXECUTOR|10=148|
8=FIX.4.2|9=56|35=0|34=476|49=EXECUTOR|52=20130404-18:24:08.205|56=BOV|10=151|
8=FIX.4.2|9=56|35=0|34=477|49=EXECUTOR|52=20130404-18:24:38.832|56=BOV|10=161|
8=FIX.4.2|9=56|35=0|34=477|49=BOV|52=20130404-18:24:38.834|56=EXECUTOR|10=163|
8=FIX.4.2|9=56|35=0|34=478|49=BOV|52=20130404-18:25:09.200|56=EXECUTOR|10=150|
8=FIX.4.2|9=56|35=0|34=478|49=EXECUTOR|52=20130404-18:25:09.202|56=BOV|10=152|
8=FIX.4.2|9=56|35=0|34=479|49=EXECUTOR|52=20130404-18:25:39.830|56=BOV|10=163|
8=FIX.4.2|9=56|35=0|34=479|49=BOV|52=20130404-18:25:39.832|56=EXECUTOR|10=165|
8=FIX.4.2|9=56|35=0|34=480|49=BOV|52=20130404-18:26:10.197|56=EXECUTOR|10=151|
8=FIX.4.2|9=56|35=0|34=480|49=EXECUTOR|52=20130404-18:26:10.200|56=BOV|10=136|
8=FIX.4.2|9=56|35=0|34=481|49=EXECUTOR|52=20130404-18:26:40.827|56=BOV|10=155|
8=FIX.4.2|9=56|35=0|34=481|49=BOV|52=20130404-18:26:40.828|56=EXECUTOR|10=156|
8=FIX.4.2|9=56|35=0|34=482|49=BOV|52=20130404-18:27:11.195|56=EXECUTOR|10=153|
8=FIX.4.2|9=56|35=0|34=482|49=EXECUTOR|52=20130404-18:27:11.197|56=BOV|10=155|
8=FIX.4.2|9=56|35=0|34=483|49=EXECUTOR|52=20130404-18:27:41.825|56=BOV|10=157|
8=FIX.4.2|9=56|35=0|34=483|49=BOV|52=20130404-18:27:41.826|56=EXECUTOR|10=158|
8=FIX.4.2|9=56|35=0|34=484|49=BOV|52=20130404-18:28:12.192|56=EXECUTOR|10=154|
8=FIX.4.2|9=56|35=0|34=484|49=EXECUTOR|52=20130404-18:28:12.194|56=BOV|10=156|
8=FIX.4.2|9=56|35=0|34=485|49=EXECUTOR|52=20130404-18:28:42.822|56=BOV|10=158|
8=FIX.4.2|9=56|35=0|34=485|49=BOV|52=20130404-18:28:42.824|56=EXECUTOR|10=160|
8=FIX.4.2|9=56|35=0|34=486|49=BOV|52=20130404-18:29:13.190|56=EXECUTOR|10=156|
8=FIX.4.2|9=56|35=0|34=486|49=EXECUTOR|52=20130404-18:29:13.192|56=BOV|10=158|
8=FIX.4.2|9=186|35=D|34=487|49=EXECUTOR|52=20130404-18:29:27.476|56=BOV|1=43121|11=d622e6a1-1fe8-4ffe-8ecb-835f3d686b7d|21=1|38=10|40=2|44=56045|54=2|55=INDJ13|59=0|60=20130404-18:29:27.474|110=0|111=0|10=049|
8=FIX.4.2|9=186|35=D|34=488|49=EXECUTOR|52=20130404-18:29:27.477|56=BOV|1=43121|11=40359a91-bb9f-4129-8f89-c707210d500b|21=1|38=10|40=2|44=55035|54=1|55=INDJ13|59=0|60=20130404-18:29:27.477|110=0|111=0|10=208|
8=FIX.4.2|9=223|35=8|34=487|49=BOV|52=20130404-18:29:27.518|56=EXECUTOR|6=0|11=d622e6a1-1fe8-4ffe-8ecb-835f3d686b7d|14=0|17=833be49b-8144-4517-a414-2bde0ffb76a2|20=0|37=d622e6a1-1fe8-4ffe-8ecb-835f3d686b7d|39=0|54=2|55=INDJ13|150=0|151=10|10=156|
8=FIX.4.2|9=223|35=8|34=488|49=BOV|52=20130404-18:29:27.523|56=EXECUTOR|6=0|11=40359a91-bb9f-4129-8f89-c707210d500b|14=0|17=16dfb60c-a060-4254-90fe-2be138a0b2dd|20=0|37=40359a91-bb9f-4129-8f89-c707210d500b|39=0|54=1|55=INDJ13|150=0|151=10|10=031|
8=FIX.4.2|9=238|35=8|34=489|49=BOV|52=20130404-18:29:27.574|56=EXECUTOR|6=0|11=40359a91-bb9f-4129-8f89-c707210d500b|14=10|17=d1575c54-333a-42aa-ac59-01933c05e616|20=0|31=55035|32=10|37=40359a91-bb9f-4129-8f89-c707210d500b|39=2|54=1|55=INDJ13|150=2|151=0|10=032|
8=FIX.4.2|9=56|35=0|34=489|49=EXECUTOR|52=20130404-18:29:57.819|56=BOV|10=175|
8=FIX.4.2|9=56|35=0|34=490|49=BOV|52=20130404-18:29:57.821|56=EXECUTOR|10=160|
8=FIX.4.2|9=56|35=0|34=491|49=BOV|52=20130404-18:30:28.187|56=EXECUTOR|10=156|
8=FIX.4.2|9=56|35=0|34=490|49=EXECUTOR|52=20130404-18:30:28.189|56=BOV|10=157|
8=FIX.4.2|9=56|35=0|34=491|49=EXECUTOR|52=20130404-18:30:58.816|56=BOV|10=158|
8=FIX.4.2|9=56|35=0|34=492|49=BOV|52=20130404-18:30:58.818|56=EXECUTOR|10=161|
8=FIX.4.2|9=72|35=A|34=1|49=EXECUTOR|52=20130404-18:32:50.430|56=BOV|98=0|108=30|141=Y|10=120|
8=FIX.4.2|9=72|35=A|34=1|49=BOV|52=20130404-18:32:50.454|56=EXECUTOR|98=0|108=30|141=Y|10=126|
8=FIX.4.2|9=184|35=D|34=2|49=EXECUTOR|52=20130404-18:33:20.443|56=BOV|1=43121|11=784ab54e-5557-42f9-aca0-3da9412df233|21=1|38=10|40=2|44=55965|54=2|55=INDJ13|59=0|60=20130404-18:33:20.441|110=0|111=0|10=206|
8=FIX.4.2|9=184|35=D|34=3|49=EXECUTOR|52=20130404-18:33:20.444|56=BOV|1=43121|11=ee290b53-580c-4993-8f97-4f1b719feeb7|21=1|38=10|40=2|44=55035|54=1|55=INDJ13|59=0|60=20130404-18:33:20.444|110=0|111=0|10=229|
8=FIX.4.2|9=221|35=8|34=2|49=BOV|52=20130404-18:33:20.485|56=EXECUTOR|6=0|11=784ab54e-5557-42f9-aca0-3da9412df233|14=0|17=dd3414e3-ac75-4a52-979e-5a9e7b5b5a68|20=0|37=784ab54e-5557-42f9-aca0-3da9412df233|39=0|54=2|55=INDJ13|150=0|151=10|10=183|
8=FIX.4.2|9=221|35=8|34=3|49=BOV|52=20130404-18:33:20.490|56=EXECUTOR|6=0|11=ee290b53-580c-4993-8f97-4f1b719feeb7|14=0|17=401a0879-59d9-47e9-8459-eae2752478bc|20=0|37=ee290b53-580c-4993-8f97-4f1b719feeb7|39=0|54=1|55=INDJ13|150=0|151=10|10=066|
8=FIX.4.2|9=236|35=8|34=4|49=BOV|52=20130404-18:33:20.538|56=EXECUTOR|6=0|11=ee290b53-580c-4993-8f97-4f1b719feeb7|14=10|17=f6120211-33f6-4566-abf5-72412d421648|20=0|31=55035|32=10|37=ee290b53-580c-4993-8f97-4f1b719feeb7|39=2|54=1|55=INDJ13|150=2|151=0|10=110|
8=FIX.4.2|9=54|35=0|34=5|49=BOV|52=20130404-18:33:51.086|56=EXECUTOR|10=046|
8=FIX.4.2|9=54|35=0|34=4|49=EXECUTOR|52=20130404-18:33:51.090|56=BOV|10=040|
8=FIX.4.2|9=214|35=G|34=5|49=EXECUTOR|52=20130404-18:33:58.538|56=BOV|1=43121|11=784ab54e-5557-42f9-aca0-3da9412df233:1|21=1|38=10|40=2|41=784ab54e-5557-42f9-aca0-3da9412df233|44=54850|54=2|55=INDJ13|59=0|60=20130404-18:33:58.538|10=055|
8=FIX.4.2|9=225|35=8|34=6|49=BOV|52=20130404-18:33:58.543|56=EXECUTOR|6=0|11=784ab54e-5557-42f9-aca0-3da9412df233:1|14=0|17=5fdb33bd-5977-43ba-ad64-061d7956e774|20=0|37=784ab54e-5557-42f9-aca0-3da9412df233:1|39=5|54=2|55=INDJ13|150=5|151=10|10=118|
8=FIX.4.2|9=240|35=8|34=7|49=BOV|52=20130404-18:34:02.690|56=EXECUTOR|6=0|11=784ab54e-5557-42f9-aca0-3da9412df233:1|14=10|17=da90889f-1fb1-4805-819f-0479677cdff7|20=0|31=54850|32=10|37=784ab54e-5557-42f9-aca0-3da9412df233:1|39=2|54=2|55=INDJ13|150=2|151=0|10=246|
8=FIX.4.2|9=54|35=0|34=6|49=EXECUTOR|52=20130404-18:34:29.415|56=BOV|10=049|
8=FIX.4.2|9=54|35=0|34=8|49=BOV|52=20130404-18:34:33.085|56=EXECUTOR|10=049|
8=FIX.4.2|9=54|35=0|34=7|49=EXECUTOR|52=20130404-18:35:00.413|56=BOV|10=038|
8=FIX.4.2|9=54|35=0|34=9|49=BOV|52=20130404-18:35:04.083|56=EXECUTOR|10=047|
8=FIX.4.2|9=72|35=A|34=1|49=EXECUTOR|52=20130404-18:35:23.815|56=BOV|98=0|108=30|141=Y|10=130|
8=FIX.4.2|9=72|35=A|34=1|49=BOV|52=20130404-18:35:23.846|56=EXECUTOR|98=0|108=30|141=Y|10=134|
8=FIX.4.2|9=54|35=0|34=2|49=BOV|52=20130404-18:35:54.104|56=EXECUTOR|10=039|
8=FIX.4.2|9=54|35=0|34=2|49=EXECUTOR|52=20130404-18:35:54.109|56=BOV|10=044|
8=FIX.4.2|9=54|35=0|34=3|49=EXECUTOR|52=20130404-18:36:24.793|56=BOV|10=052|
8=FIX.4.2|9=54|35=0|34=3|49=BOV|52=20130404-18:36:24.795|56=EXECUTOR|10=054|
8=FIX.4.2|9=163|35=D|34=4|49=EXECUTOR|52=20130404-18:36:50.589|56=BOV|1=43121|11=000000000014821|21=1|38=10|40=2|44=55680|54=2|55=INDJ13|59=0|60=20130404-18:36:50.587|110=0|111=0|10=135|
8=FIX.4.2|9=179|35=8|34=4|49=BOV|52=20130404-18:36:50.630|56=EXECUTOR|6=0|11=000000000014821|14=0|17=23fa0cb4-1368-4365-a22e-dec740b223a3|20=0|37=000000000014821|39=0|54=2|55=INDJ13|150=0|151=10|10=168|
8=FIX.4.2|9=171|35=G|34=5|49=EXECUTOR|52=20130404-18:36:58.747|56=BOV|1=43121|11=000000000014821:1|21=1|38=1|40=2|41=000000000014821|44=55680|54=2|55=INDJ13|59=0|60=20130404-18:36:58.747|10=081|
8=FIX.4.2|9=182|35=8|34=5|49=BOV|52=20130404-18:36:58.752|56=EXECUTOR|6=0|11=000000000014821:1|14=0|17=8854a94b-47f6-477d-922e-1e90e46be367|20=0|37=000000000014821:1|39=5|54=2|55=INDJ13|150=5|151=1|10=054|
8=FIX.4.2|9=149|35=F|34=6|49=EXECUTOR|52=20130404-18:37:26.675|56=BOV|1=43121|11=000000000014821:2|38=1|41=000000000014821:1|54=2|55=INDJ13|60=20130404-18:37:26.675|10=138|
8=FIX.4.2|9=182|35=8|34=6|49=BOV|52=20130404-18:37:26.677|56=EXECUTOR|6=0|11=000000000014821:2|14=0|17=3dcf5d0e-1ec2-4b03-b660-d9d3ec9a87a2|20=0|37=000000000014821:2|39=4|54=2|55=INDJ13|150=4|151=1|10=052|
8=FIX.4.2|9=72|35=A|34=1|49=EXECUTOR|52=20130404-18:37:49.605|56=BOV|98=0|108=30|141=Y|10=137|
8=FIX.4.2|9=72|35=A|34=1|49=BOV|52=20130404-18:37:49.629|56=EXECUTOR|98=0|108=30|141=Y|10=143|
8=FIX.4.2|9=162|35=D|34=2|49=EXECUTOR|52=20130404-18:37:59.316|56=BOV|1=43121|11=000000000014822|21=1|38=1|40=2|44=55680|54=2|55=INDJ13|59=0|60=20130404-18:37:59.315|110=0|111=0|10=082|
8=FIX.4.2|9=178|35=8|34=2|49=BOV|52=20130404-18:37:59.359|56=EXECUTOR|6=0|11=000000000014822|14=0|17=5a7abfd0-571c-49c5-803a-afac35a4c743|20=0|37=000000000014822|39=0|54=2|55=INDJ13|150=0|151=1|10=038|
8=FIX.4.2|9=171|35=G|34=3|49=EXECUTOR|52=20130404-18:38:21.092|56=BOV|1=43121|11=000000000014822:1|21=1|38=1|40=2|41=000000000014822|44=55840|54=2|55=INDJ13|59=0|60=20130404-18:38:21.091|10=048|
8=FIX.4.2|9=182|35=8|34=3|49=BOV|52=20130404-18:38:21.096|56=EXECUTOR|6=0|11=000000000014822:1|14=0|17=443a8f7c-afca-4a82-9256-ef4152c8a714|20=0|37=000000000014822:1|39=5|54=2|55=INDJ13|150=5|151=1|10=165|
8=FIX.4.2|9=173|35=G|34=4|49=EXECUTOR|52=20130404-18:38:50.995|56=BOV|1=43121|11=000000000014822:2|21=1|38=1|40=2|41=000000000014822:1|44=54840|54=2|55=INDJ13|59=0|60=20130404-18:38:50.995|10=187|
8=FIX.4.2|9=182|35=8|34=4|49=BOV|52=20130404-18:38:50.997|56=EXECUTOR|6=0|11=000000000014822:2|14=0|17=9ba7ece0-7751-4381-bc6c-6ef78bfab34e|20=0|37=000000000014822:2|39=5|54=2|55=INDJ13|150=5|151=1|10=074|
8=FIX.4.2|9=196|35=8|34=5|49=BOV|52=20130404-18:38:59.346|56=EXECUTOR|6=0|11=000000000014822:2|14=1|17=9fbcc337-eab1-4a8d-946e-982e7b3acdae|20=0|31=54840|32=1|37=000000000014822:2|39=2|54=2|55=INDJ13|150=2|151=0|10=033|
8=FIX.4.2|9=54|35=0|34=5|49=EXECUTOR|52=20130404-18:39:21.588|56=BOV|10=056|
8=FIX.4.2|9=54|35=0|34=6|49=BOV|52=20130404-18:39:30.129|56=EXECUTOR|10=048|
8=FIX.4.2|9=54|35=0|34=6|49=EXECUTOR|52=20130404-18:39:52.587|56=BOV|10=060|
8=FIX.4.2|9=54|35=0|34=7|49=BOV|52=20130404-18:40:01.127|56=EXECUTOR|10=037|
8=FIX.4.2|9=72|35=A|34=1|49=EXECUTOR|52=20130404-18:41:49.304|56=BOV|98=0|108=30|141=Y|10=128|
8=FIX.4.2|9=72|35=A|34=1|49=BOV|52=20130404-18:41:49.370|56=EXECUTOR|98=0|108=30|141=Y|10=131|
8=FIX.4.2|9=184|35=D|34=2|49=EXECUTOR|52=20130404-18:42:11.606|56=BOV|1=43121|11=6729d104-ea7b-4929-90df-05b60b3ea879|21=1|38=10|40=2|44=55970|54=2|55=INDJ13|59=0|60=20130404-18:42:11.604|110=0|111=0|10=169|
8=FIX.4.2|9=184|35=D|34=3|49=EXECUTOR|52=20130404-18:42:11.608|56=BOV|1=43121|11=cbc9dabe-c09d-4886-8fd7-a9115b54a614|21=1|38=10|40=2|44=55035|54=1|55=INDJ13|59=0|60=20130404-18:42:11.608|110=0|111=0|10=100|
8=FIX.4.2|9=221|35=8|34=2|49=BOV|52=20130404-18:42:11.651|56=EXECUTOR|6=0|11=6729d104-ea7b-4929-90df-05b60b3ea879|14=0|17=324a765e-67e3-409c-9d29-1516b844463d|20=0|37=6729d104-ea7b-4929-90df-05b60b3ea879|39=0|54=2|55=INDJ13|150=0|151=10|10=124|
8=FIX.4.2|9=221|35=8|34=3|49=BOV|52=20130404-18:42:11.656|56=EXECUTOR|6=0|11=cbc9dabe-c09d-4886-8fd7-a9115b54a614|14=0|17=bf5773ad-8702-404d-b063-c89748434c3c|20=0|37=cbc9dabe-c09d-4886-8fd7-a9115b54a614|39=0|54=1|55=INDJ13|150=0|151=10|10=083|
8=FIX.4.2|9=236|35=8|34=4|49=BOV|52=20130404-18:42:11.709|56=EXECUTOR|6=0|11=cbc9dabe-c09d-4886-8fd7-a9115b54a614|14=10|17=4fc509ba-4b46-458b-b6bc-c9ea21fc6165|20=0|31=55035|32=10|37=cbc9dabe-c09d-4886-8fd7-a9115b54a614|39=2|54=1|55=INDJ13|150=2|151=0|10=237|
8=FIX.4.2|9=214|35=G|34=4|49=EXECUTOR|52=20130404-18:42:23.649|56=BOV|1=43121|11=6729d104-ea7b-4929-90df-05b60b3ea879:1|21=1|38=10|40=2|41=6729d104-ea7b-4929-90df-05b60b3ea879|44=54835|54=2|55=INDJ13|59=0|60=20130404-18:42:23.648|10=232|
8=FIX.4.2|9=54|35=0|34=5|49=BOV|52=20130404-18:42:42.626|56=EXECUTOR|10=046|
8=FIX.4.2|9=225|35=8|34=6|49=BOV|52=20130404-18:42:49.921|56=EXECUTOR|6=0|11=6729d104-ea7b-4929-90df-05b60b3ea879:1|14=0|17=5d5c1342-d719-4429-a01d-5f5f96e7f268|20=0|37=6729d104-ea7b-4929-90df-05b60b3ea879:1|39=5|54=2|55=INDJ13|150=5|151=10|10=209|
8=FIX.4.2|9=240|35=8|34=7|49=BOV|52=20130404-18:42:53.703|56=EXECUTOR|6=0|11=6729d104-ea7b-4929-90df-05b60b3ea879:1|14=10|17=9f2d3285-4f40-4835-82bd-fc558fc50302|20=0|31=54835|32=10|37=6729d104-ea7b-4929-90df-05b60b3ea879:1|39=2|54=2|55=INDJ13|150=2|151=0|10=104|
8=FIX.4.2|9=54|35=0|34=5|49=EXECUTOR|52=20130404-18:42:53.723|56=BOV|10=046|
8=FIX.4.2|9=72|35=A|34=1|49=EXECUTOR|52=20130404-18:54:20.040|56=BOV|98=0|108=30|141=Y|10=118|
8=FIX.4.2|9=72|35=A|34=1|49=BOV|52=20130404-18:54:20.066|56=EXECUTOR|98=0|108=30|141=Y|10=126|
8=FIX.4.2|9=54|35=0|34=2|49=BOV|52=20130404-18:54:50.329|56=EXECUTOR|10=045|
8=FIX.4.2|9=54|35=0|34=2|49=EXECUTOR|52=20130404-18:54:50.335|56=BOV|10=042|
8=FIX.4.2|9=54|35=0|34=3|49=EXECUTOR|52=20130404-18:55:21.012|56=BOV|10=034|
8=FIX.4.2|9=54|35=0|34=3|49=BOV|52=20130404-18:55:21.016|56=EXECUTOR|10=038|
8=FIX.4.2|9=184|35=D|34=4|49=EXECUTOR|52=20130404-18:55:27.700|56=BOV|1=43121|11=d4153f5c-21a9-4063-9dae-96bf8d8f4129|21=1|38=10|40=2|44=55785|54=2|55=INDJ13|59=0|60=20130404-18:55:27.698|110=0|111=0|10=255|
8=FIX.4.2|9=184|35=D|34=5|49=EXECUTOR|52=20130404-18:55:27.702|56=BOV|1=43121|11=0bc541b2-b4e6-4f90-8926-e9e020d369a5|21=1|38=10|40=2|44=55035|54=1|55=INDJ13|59=0|60=20130404-18:55:27.702|110=0|111=0|10=171|
8=FIX.4.2|9=221|35=8|34=4|49=BOV|52=20130404-18:55:27.746|56=EXECUTOR|6=0|11=d4153f5c-21a9-4063-9dae-96bf8d8f4129|14=0|17=5cfb1c03-c50f-4311-a5b3-3194d4543dbc|20=0|37=d4153f5c-21a9-4063-9dae-96bf8d8f4129|39=0|54=2|55=INDJ13|150=0|151=10|10=187|
8=FIX.4.2|9=221|35=8|34=5|49=BOV|52=20130404-18:55:27.753|56=EXECUTOR|6=0|11=0bc541b2-b4e6-4f90-8926-e9e020d369a5|14=0|17=ced5922f-53d8-4fdf-83a5-ce3e771960b0|20=0|37=0bc541b2-b4e6-4f90-8926-e9e020d369a5|39=0|54=1|55=INDJ13|150=0|151=10|10=151|
8=FIX.4.2|9=236|35=8|34=6|49=BOV|52=20130404-18:55:27.796|56=EXECUTOR|6=0|11=0bc541b2-b4e6-4f90-8926-e9e020d369a5|14=10|17=a99e7769-b614-48c1-afd9-36c8e8a7d36a|20=0|31=55035|32=10|37=0bc541b2-b4e6-4f90-8926-e9e020d369a5|39=2|54=1|55=INDJ13|150=2|151=0|10=049|
8=FIX.4.2|9=54|35=0|34=6|49=EXECUTOR|52=20130404-18:55:58.010|56=BOV|10=045|
8=FIX.4.2|9=54|35=0|34=7|49=BOV|52=20130404-18:55:58.014|56=EXECUTOR|10=050|
8=FIX.4.2|9=72|35=A|34=1|49=EXECUTOR|52=20130404-18:57:16.109|56=BOV|98=0|108=30|141=Y|10=132|
8=FIX.4.2|9=72|35=A|34=1|49=BOV|52=20130404-18:57:16.134|56=EXECUTOR|98=0|108=30|141=Y|10=130|
8=FIX.4.2|9=54|35=0|34=2|49=BOV|52=20130404-18:57:46.742|56=EXECUTOR|10=052|
8=FIX.4.2|9=54|35=0|34=2|49=EXECUTOR|52=20130404-18:57:46.745|56=BOV|10=055|
8=FIX.4.2|9=54|35=0|34=3|49=EXECUTOR|52=20130404-18:58:17.082|56=BOV|10=049|
8=FIX.4.2|9=54|35=0|34=3|49=BOV|52=20130404-18:58:17.086|56=EXECUTOR|10=053|
8=FIX.4.2|9=54|35=0|34=4|49=BOV|52=20130404-18:58:47.740|56=EXECUTOR|10=054|
8=FIX.4.2|9=54|35=0|34=4|49=EXECUTOR|52=20130404-18:58:47.744|56=BOV|10=058|
8=FIX.4.2|9=54|35=0|34=5|49=EXECUTOR|52=20130404-18:59:18.079|56=BOV|10=059|
8=FIX.4.2|9=54|35=0|34=5|49=BOV|52=20130404-18:59:18.083|56=EXECUTOR|10=054|
8=FIX.4.2|9=54|35=0|34=6|49=BOV|52=20130404-18:59:48.737|56=EXECUTOR|10=064|
8=FIX.4.2|9=54|35=0|34=6|49=EXECUTOR|52=20130404-18:59:48.742|56=BOV|10=060|
8=FIX.4.2|9=54|35=0|34=7|49=EXECUTOR|52=20130404-19:00:19.077|56=BOV|10=047|
8=FIX.4.2|9=54|35=0|34=7|49=BOV|52=20130404-19:00:19.081|56=EXECUTOR|10=042|
8=FIX.4.2|9=184|35=D|34=8|49=EXECUTOR|52=20130404-19:00:47.548|56=BOV|1=43121|11=24db88a8-190c-4eab-add7-102c37c4846e|21=1|38=10|40=2|44=55690|54=2|55=INDJ13|59=0|60=20130404-19:00:47.547|110=0|111=0|10=066|
8=FIX.4.2|9=184|35=D|34=9|49=EXECUTOR|52=20130404-19:00:47.550|56=BOV|1=43121|11=e21d243e-4166-4445-adbb-1afb8918fe77|21=1|38=10|40=2|44=55035|54=1|55=INDJ13|59=0|60=20130404-19:00:47.550|110=0|111=0|10=004|
8=FIX.4.2|9=221|35=8|34=8|49=BOV|52=20130404-19:00:47.593|56=EXECUTOR|6=0|11=24db88a8-190c-4eab-add7-102c37c4846e|14=0|17=bb436570-00c2-42de-a579-68cb0961785d|20=0|37=24db88a8-190c-4eab-add7-102c37c4846e|39=0|54=2|55=INDJ13|150=0|151=10|10=225|
8=FIX.4.2|9=221|35=8|34=9|49=BOV|52=20130404-19:00:47.602|56=EXECUTOR|6=0|11=e21d243e-4166-4445-adbb-1afb8918fe77|14=0|17=ecde74cf-5f17-4ce6-bf7f-d13bac3ec686|20=0|37=e21d243e-4166-4445-adbb-1afb8918fe77|39=0|54=1|55=INDJ13|150=0|151=10|10=062|
8=FIX.4.2|9=237|35=8|34=10|49=BOV|52=20130404-19:00:47.665|56=EXECUTOR|6=0|11=e21d243e-4166-4445-adbb-1afb8918fe77|14=10|17=43ff446b-b01b-4205-a49c-01f500a109dc|20=0|31=55035|32=10|37=e21d243e-4166-4445-adbb-1afb8918fe77|39=2|54=1|55=INDJ13|150=2|151=0|10=168|
8=FIX.4.2|9=55|35=0|34=11|49=BOV|52=20130404-19:01:17.734|56=EXECUTOR|10=090|
8=FIX.4.2|9=55|35=0|34=10|49=EXECUTOR|52=20130404-19:01:17.736|56=BOV|10=091|
8=FIX.4.2|9=55|35=0|34=11|49=EXECUTOR|52=20130404-19:01:48.073|56=BOV|10=090|
8=FIX.4.2|9=55|35=0|34=12|49=BOV|52=20130404-19:01:48.075|56=EXECUTOR|10=093|
8=FIX.4.2|9=55|35=0|34=13|49=BOV|52=20130404-19:02:18.731|56=EXECUTOR|10=091|
8=FIX.4.2|9=55|35=0|34=12|49=EXECUTOR|52=20130404-19:02:18.734|56=BOV|10=093|
